{
  "contractName": "ConstructorInitializableMock",
  "abi": [
    {
      "inputs": [],
      "stateMutability": "nonpayable",
      "type": "constructor"
    },
    {
      "inputs": [],
      "name": "initializerRan",
      "outputs": [
        {
          "internalType": "bool",
          "name": "",
          "type": "bool"
        }
      ],
      "stateMutability": "view",
      "type": "function"
    },
    {
      "inputs": [],
      "name": "onlyInitializingRan",
      "outputs": [
        {
          "internalType": "bool",
          "name": "",
          "type": "bool"
        }
      ],
      "stateMutability": "view",
      "type": "function"
    },
    {
      "inputs": [],
      "name": "initialize",
      "outputs": [],
      "stateMutability": "nonpayable",
      "type": "function"
    },
    {
      "inputs": [],
      "name": "initializeOnlyInitializing",
      "outputs": [],
      "stateMutability": "nonpayable",
      "type": "function"
    }
  ],
  "bytecode": "0x608060405234801561001057600080fd5b50600060019054906101000a900460ff166100395760008054906101000a900460ff1615610048565b61004761011a60201b60201c565b5b610087576040517f08c379a000000000000000000000000000000000000000000000000000000000815260040161007e9061034c565b60405180910390fd5b60008060019054906101000a900460ff1615905080156100d7576001600060016101000a81548160ff02191690831515021790555060016000806101000a81548160ff0219169083151502179055505b6100e561013560201b60201c565b6100f361023a60201b60201c565b80156101145760008060016101000a81548160ff0219169083151502179055505b506103fe565b600061012f306102a660201b6102321760201c565b15905090565b600060019054906101000a900460ff1661015d5760008054906101000a900460ff161561016c565b61016b61011a60201b60201c565b5b6101ab576040517f08c379a00000000000000000000000000000000000000000000000000000000081526004016101a29061034c565b60405180910390fd5b60008060019054906101000a900460ff1615905080156101fb576001600060016101000a81548160ff02191690831515021790555060016000806101000a81548160ff0219169083151502179055505b6001600060026101000a81548160ff02191690831515021790555080156102375760008060016101000a81548160ff0219169083151502179055505b50565b600060019054906101000a900460ff16610289576040517f08c379a0000000000000000000000000000000000000000000000000000000008152600401610280906103de565b60405180910390fd5b6001600060036101000a81548160ff021916908315150217905550565b6000808273ffffffffffffffffffffffffffffffffffffffff163b119050919050565b600082825260208201905092915050565b7f496e697469616c697a61626c653a20636f6e747261637420697320616c72656160008201527f647920696e697469616c697a6564000000000000000000000000000000000000602082015250565b6000610336602e836102c9565b9150610341826102da565b604082019050919050565b6000602082019050818103600083015261036581610329565b9050919050565b7f496e697469616c697a61626c653a20636f6e7472616374206973206e6f74206960008201527f6e697469616c697a696e67000000000000000000000000000000000000000000602082015250565b60006103c8602b836102c9565b91506103d38261036c565b604082019050919050565b600060208201905081810360008301526103f7816103bb565b9050919050565b6104078061040d6000396000f3fe608060405234801561001057600080fd5b506004361061004c5760003560e01c806310065ed2146100515780637cffe97a1461005b5780638129fc1c14610079578063c3b8ef2a14610083575b600080fd5b6100596100a1565b005b61006361010d565b6040516100709190610281565b60405180910390f35b610081610120565b005b61008b61021f565b6040516100989190610281565b60405180910390f35b600060019054906101000a900460ff166100f0576040517f08c379a00000000000000000000000000000000000000000000000000000000081526004016100e79061031f565b60405180910390fd5b6001600060036101000a81548160ff021916908315150217905550565b600060039054906101000a900460ff1681565b600060019054906101000a900460ff166101485760008054906101000a900460ff1615610151565b610150610255565b5b610190576040517f08c379a0000000000000000000000000000000000000000000000000000000008152600401610187906103b1565b60405180910390fd5b60008060019054906101000a900460ff1615905080156101e0576001600060016101000a81548160ff02191690831515021790555060016000806101000a81548160ff0219169083151502179055505b6001600060026101000a81548160ff021916908315150217905550801561021c5760008060016101000a81548160ff0219169083151502179055505b50565b600060029054906101000a900460ff1681565b6000808273ffffffffffffffffffffffffffffffffffffffff163b119050919050565b600061026030610232565b15905090565b60008115159050919050565b61027b81610266565b82525050565b60006020820190506102966000830184610272565b92915050565b600082825260208201905092915050565b7f496e697469616c697a61626c653a20636f6e7472616374206973206e6f74206960008201527f6e697469616c697a696e67000000000000000000000000000000000000000000602082015250565b6000610309602b8361029c565b9150610314826102ad565b604082019050919050565b60006020820190508181036000830152610338816102fc565b9050919050565b7f496e697469616c697a61626c653a20636f6e747261637420697320616c72656160008201527f647920696e697469616c697a6564000000000000000000000000000000000000602082015250565b600061039b602e8361029c565b91506103a68261033f565b604082019050919050565b600060208201905081810360008301526103ca8161038e565b905091905056fea2646970667358221220d509c5f2c460e4e602e909deeb73555f3442254963c4dc36fcde1144e133bdec64736f6c634300080b0033",
  "immutableReferences": {},
  "source": "// SPDX-License-Identifier: MIT\n\npragma solidity ^0.8.0;\n\nimport \"../proxy/utils/Initializable.sol\";\n\n/**\n * @title InitializableMock\n * @dev This contract is a mock to test initializable functionality\n */\ncontract InitializableMock is Initializable {\n    bool public initializerRan;\n    bool public onlyInitializingRan;\n    uint256 public x;\n\n    function initialize() public initializer {\n        initializerRan = true;\n    }\n\n    function initializeOnlyInitializing() public onlyInitializing {\n        onlyInitializingRan = true;\n    }\n\n    function initializerNested() public initializer {\n        initialize();\n    }\n\n    function onlyInitializingNested() public initializer {\n        initializeOnlyInitializing();\n    }\n\n    function initializeWithX(uint256 _x) public payable initializer {\n        x = _x;\n    }\n\n    function nonInitializable(uint256 _x) public payable {\n        x = _x;\n    }\n\n    function fail() public pure {\n        require(false, \"InitializableMock forced failure\");\n    }\n}\n\ncontract ConstructorInitializableMock is Initializable {\n    bool public initializerRan;\n    bool public onlyInitializingRan;\n\n    constructor() initializer {\n        initialize();\n        initializeOnlyInitializing();\n    }\n\n    function initialize() public initializer {\n        initializerRan = true;\n    }\n\n    function initializeOnlyInitializing() public onlyInitializing {\n        onlyInitializingRan = true;\n    }\n}\n",
  "sourcePath": "D:\\03.block-chain\\01.miquelTC__nft-marketplace\\test-proj\\nft-marketplace-master\\src\\contracts\\ERC721\\mocks\\InitializableMock.sol",
  "compiler": {
    "name": "solc",
    "version": "0.8.11+commit.d7f03943.Emscripten.clang"
  },
  "schemaVersion": "3.4.4",
  "updatedAt": "2022-02-14T12:43:14.368Z",
  "devdoc": {
    "kind": "dev",
    "methods": {},
    "version": 1
  },
  "userdoc": {
    "kind": "user",
    "methods": {},
    "version": 1
  }
}