{
  "contractName": "ERC20FlashMintMock",
  "abi": [
    {
      "inputs": [
        {
          "internalType": "string",
          "name": "name",
          "type": "string"
        },
        {
          "internalType": "string",
          "name": "symbol",
          "type": "string"
        },
        {
          "internalType": "address",
          "name": "initialAccount",
          "type": "address"
        },
        {
          "internalType": "uint256",
          "name": "initialBalance",
          "type": "uint256"
        }
      ],
      "stateMutability": "nonpayable",
      "type": "constructor"
    },
    {
      "anonymous": false,
      "inputs": [
        {
          "indexed": true,
          "internalType": "address",
          "name": "owner",
          "type": "address"
        },
        {
          "indexed": true,
          "internalType": "address",
          "name": "spender",
          "type": "address"
        },
        {
          "indexed": false,
          "internalType": "uint256",
          "name": "value",
          "type": "uint256"
        }
      ],
      "name": "Approval",
      "type": "event"
    },
    {
      "anonymous": false,
      "inputs": [
        {
          "indexed": true,
          "internalType": "address",
          "name": "from",
          "type": "address"
        },
        {
          "indexed": true,
          "internalType": "address",
          "name": "to",
          "type": "address"
        },
        {
          "indexed": false,
          "internalType": "uint256",
          "name": "value",
          "type": "uint256"
        }
      ],
      "name": "Transfer",
      "type": "event"
    },
    {
      "inputs": [
        {
          "internalType": "address",
          "name": "owner",
          "type": "address"
        },
        {
          "internalType": "address",
          "name": "spender",
          "type": "address"
        }
      ],
      "name": "allowance",
      "outputs": [
        {
          "internalType": "uint256",
          "name": "",
          "type": "uint256"
        }
      ],
      "stateMutability": "view",
      "type": "function"
    },
    {
      "inputs": [
        {
          "internalType": "address",
          "name": "spender",
          "type": "address"
        },
        {
          "internalType": "uint256",
          "name": "amount",
          "type": "uint256"
        }
      ],
      "name": "approve",
      "outputs": [
        {
          "internalType": "bool",
          "name": "",
          "type": "bool"
        }
      ],
      "stateMutability": "nonpayable",
      "type": "function"
    },
    {
      "inputs": [
        {
          "internalType": "address",
          "name": "account",
          "type": "address"
        }
      ],
      "name": "balanceOf",
      "outputs": [
        {
          "internalType": "uint256",
          "name": "",
          "type": "uint256"
        }
      ],
      "stateMutability": "view",
      "type": "function"
    },
    {
      "inputs": [],
      "name": "decimals",
      "outputs": [
        {
          "internalType": "uint8",
          "name": "",
          "type": "uint8"
        }
      ],
      "stateMutability": "view",
      "type": "function"
    },
    {
      "inputs": [
        {
          "internalType": "address",
          "name": "spender",
          "type": "address"
        },
        {
          "internalType": "uint256",
          "name": "subtractedValue",
          "type": "uint256"
        }
      ],
      "name": "decreaseAllowance",
      "outputs": [
        {
          "internalType": "bool",
          "name": "",
          "type": "bool"
        }
      ],
      "stateMutability": "nonpayable",
      "type": "function"
    },
    {
      "inputs": [
        {
          "internalType": "address",
          "name": "token",
          "type": "address"
        },
        {
          "internalType": "uint256",
          "name": "amount",
          "type": "uint256"
        }
      ],
      "name": "flashFee",
      "outputs": [
        {
          "internalType": "uint256",
          "name": "",
          "type": "uint256"
        }
      ],
      "stateMutability": "view",
      "type": "function"
    },
    {
      "inputs": [
        {
          "internalType": "contract IERC3156FlashBorrower",
          "name": "receiver",
          "type": "address"
        },
        {
          "internalType": "address",
          "name": "token",
          "type": "address"
        },
        {
          "internalType": "uint256",
          "name": "amount",
          "type": "uint256"
        },
        {
          "internalType": "bytes",
          "name": "data",
          "type": "bytes"
        }
      ],
      "name": "flashLoan",
      "outputs": [
        {
          "internalType": "bool",
          "name": "",
          "type": "bool"
        }
      ],
      "stateMutability": "nonpayable",
      "type": "function"
    },
    {
      "inputs": [
        {
          "internalType": "address",
          "name": "spender",
          "type": "address"
        },
        {
          "internalType": "uint256",
          "name": "addedValue",
          "type": "uint256"
        }
      ],
      "name": "increaseAllowance",
      "outputs": [
        {
          "internalType": "bool",
          "name": "",
          "type": "bool"
        }
      ],
      "stateMutability": "nonpayable",
      "type": "function"
    },
    {
      "inputs": [
        {
          "internalType": "address",
          "name": "token",
          "type": "address"
        }
      ],
      "name": "maxFlashLoan",
      "outputs": [
        {
          "internalType": "uint256",
          "name": "",
          "type": "uint256"
        }
      ],
      "stateMutability": "view",
      "type": "function"
    },
    {
      "inputs": [],
      "name": "name",
      "outputs": [
        {
          "internalType": "string",
          "name": "",
          "type": "string"
        }
      ],
      "stateMutability": "view",
      "type": "function"
    },
    {
      "inputs": [],
      "name": "symbol",
      "outputs": [
        {
          "internalType": "string",
          "name": "",
          "type": "string"
        }
      ],
      "stateMutability": "view",
      "type": "function"
    },
    {
      "inputs": [],
      "name": "totalSupply",
      "outputs": [
        {
          "internalType": "uint256",
          "name": "",
          "type": "uint256"
        }
      ],
      "stateMutability": "view",
      "type": "function"
    },
    {
      "inputs": [
        {
          "internalType": "address",
          "name": "to",
          "type": "address"
        },
        {
          "internalType": "uint256",
          "name": "amount",
          "type": "uint256"
        }
      ],
      "name": "transfer",
      "outputs": [
        {
          "internalType": "bool",
          "name": "",
          "type": "bool"
        }
      ],
      "stateMutability": "nonpayable",
      "type": "function"
    },
    {
      "inputs": [
        {
          "internalType": "address",
          "name": "from",
          "type": "address"
        },
        {
          "internalType": "address",
          "name": "to",
          "type": "address"
        },
        {
          "internalType": "uint256",
          "name": "amount",
          "type": "uint256"
        }
      ],
      "name": "transferFrom",
      "outputs": [
        {
          "internalType": "bool",
          "name": "",
          "type": "bool"
        }
      ],
      "stateMutability": "nonpayable",
      "type": "function"
    }
  ],
  "bytecode": "0x60806040523480156200001157600080fd5b50604051620027c0380380620027c08339818101604052810190620000379190620004f9565b83838160039080519060200190620000519291906200020c565b5080600490805190602001906200006a9291906200020c565b5050506200007f82826200008960201b60201c565b505050506200074b565b600073ffffffffffffffffffffffffffffffffffffffff168273ffffffffffffffffffffffffffffffffffffffff161415620000fc576040517f08c379a0000000000000000000000000000000000000000000000000000000008152600401620000f3906200060a565b60405180910390fd5b62000110600083836200020260201b60201c565b80600260008282546200012491906200065b565b92505081905550806000808473ffffffffffffffffffffffffffffffffffffffff1673ffffffffffffffffffffffffffffffffffffffff16815260200190815260200160002060008282546200017b91906200065b565b925050819055508173ffffffffffffffffffffffffffffffffffffffff16600073ffffffffffffffffffffffffffffffffffffffff167fddf252ad1be2c89b69c2b068fc378daa952ba7f163c4a11628f55a4df523b3ef83604051620001e29190620006c9565b60405180910390a3620001fe600083836200020760201b60201c565b5050565b505050565b505050565b8280546200021a9062000715565b90600052602060002090601f0160209004810192826200023e57600085556200028a565b82601f106200025957805160ff19168380011785556200028a565b828001600101855582156200028a579182015b82811115620002895782518255916020019190600101906200026c565b5b5090506200029991906200029d565b5090565b5b80821115620002b85760008160009055506001016200029e565b5090565b6000604051905090565b600080fd5b600080fd5b600080fd5b600080fd5b6000601f19601f8301169050919050565b7f4e487b7100000000000000000000000000000000000000000000000000000000600052604160045260246000fd5b6200032582620002da565b810181811067ffffffffffffffff82111715620003475762000346620002eb565b5b80604052505050565b60006200035c620002bc565b90506200036a82826200031a565b919050565b600067ffffffffffffffff8211156200038d576200038c620002eb565b5b6200039882620002da565b9050602081019050919050565b60005b83811015620003c5578082015181840152602081019050620003a8565b83811115620003d5576000848401525b50505050565b6000620003f2620003ec846200036f565b62000350565b905082815260208101848484011115620004115762000410620002d5565b5b6200041e848285620003a5565b509392505050565b600082601f8301126200043e576200043d620002d0565b5b815162000450848260208601620003db565b91505092915050565b600073ffffffffffffffffffffffffffffffffffffffff82169050919050565b6000620004868262000459565b9050919050565b620004988162000479565b8114620004a457600080fd5b50565b600081519050620004b8816200048d565b92915050565b6000819050919050565b620004d381620004be565b8114620004df57600080fd5b50565b600081519050620004f381620004c8565b92915050565b60008060008060808587031215620005165762000515620002c6565b5b600085015167ffffffffffffffff811115620005375762000536620002cb565b5b620005458782880162000426565b945050602085015167ffffffffffffffff811115620005695762000568620002cb565b5b620005778782880162000426565b93505060406200058a87828801620004a7565b92505060606200059d87828801620004e2565b91505092959194509250565b600082825260208201905092915050565b7f45524332303a206d696e7420746f20746865207a65726f206164647265737300600082015250565b6000620005f2601f83620005a9565b9150620005ff82620005ba565b602082019050919050565b600060208201905081810360008301526200062581620005e3565b9050919050565b7f4e487b7100000000000000000000000000000000000000000000000000000000600052601160045260246000fd5b60006200066882620004be565b91506200067583620004be565b9250827fffffffffffffffffffffffffffffffffffffffffffffffffffffffffffffffff03821115620006ad57620006ac6200062c565b5b828201905092915050565b620006c381620004be565b82525050565b6000602082019050620006e06000830184620006b8565b92915050565b7f4e487b7100000000000000000000000000000000000000000000000000000000600052602260045260246000fd5b600060028204905060018216806200072e57607f821691505b60208210811415620007455762000744620006e6565b5b50919050565b612065806200075b6000396000f3fe608060405234801561001057600080fd5b50600436106100ea5760003560e01c8063613255ab1161008c578063a457c2d711610066578063a457c2d714610287578063a9059cbb146102b7578063d9d98ce4146102e7578063dd62ed3e14610317576100ea565b8063613255ab1461020957806370a082311461023957806395d89b4114610269576100ea565b806323b872dd116100c857806323b872dd1461015b578063313ce5671461018b57806339509351146101a95780635cffe9de146101d9576100ea565b806306fdde03146100ef578063095ea7b31461010d57806318160ddd1461013d575b600080fd5b6100f7610347565b60405161010491906112ee565b60405180910390f35b610127600480360381019061012291906113ae565b6103d9565b6040516101349190611409565b60405180910390f35b6101456103fc565b6040516101529190611433565b60405180910390f35b6101756004803603810190610170919061144e565b610406565b6040516101829190611409565b60405180910390f35b610193610435565b6040516101a091906114bd565b60405180910390f35b6101c360048036038101906101be91906113ae565b61043e565b6040516101d09190611409565b60405180910390f35b6101f360048036038101906101ee919061157b565b6104e8565b6040516102009190611409565b60405180910390f35b610223600480360381019061021e9190611603565b6106d5565b6040516102309190611433565b60405180910390f35b610253600480360381019061024e9190611603565b61074c565b6040516102609190611433565b60405180910390f35b610271610794565b60405161027e91906112ee565b60405180910390f35b6102a1600480360381019061029c91906113ae565b610826565b6040516102ae9190611409565b60405180910390f35b6102d160048036038101906102cc91906113ae565b610910565b6040516102de9190611409565b60405180910390f35b61030160048036038101906102fc91906113ae565b610933565b60405161030e9190611433565b60405180910390f35b610331600480360381019061032c9190611630565b6109ad565b60405161033e9190611433565b60405180910390f35b6060600380546103569061169f565b80601f01602080910402602001604051908101604052809291908181526020018280546103829061169f565b80156103cf5780601f106103a4576101008083540402835291602001916103cf565b820191906000526020600020905b8154815290600101906020018083116103b257829003601f168201915b5050505050905090565b6000806103e4610a34565b90506103f1818585610a3c565b600191505092915050565b6000600254905090565b600080610411610a34565b905061041e858285610c07565b610429858585610c93565b60019150509392505050565b60006012905090565b600080610449610a34565b90506104dd818585600160008673ffffffffffffffffffffffffffffffffffffffff1673ffffffffffffffffffffffffffffffffffffffff16815260200190815260200160002060008973ffffffffffffffffffffffffffffffffffffffff1673ffffffffffffffffffffffffffffffffffffffff168152602001908152602001600020546104d89190611700565b610a3c565b600191505092915050565b60006104f3856106d5565b841115610535576040517f08c379a000000000000000000000000000000000000000000000000000000000815260040161052c906117c8565b60405180910390fd5b60006105418686610933565b905061054d8786610f14565b7f439148f0bbc682ca079e46d6e2c2f0c1e3b820f1a291b069d8882abf8cf18dd98773ffffffffffffffffffffffffffffffffffffffff166323e30c8b338989868a8a6040518763ffffffff1660e01b81526004016105b196959493929190611844565b6020604051808303816000875af11580156105d0573d6000803e3d6000fd5b505050506040513d601f19601f820116820180604052508101906105f491906118d6565b14610634576040517f08c379a000000000000000000000000000000000000000000000000000000000815260040161062b90611975565b60405180910390fd5b600061064088306109ad565b9050818661064e9190611700565b811015610690576040517f08c379a000000000000000000000000000000000000000000000000000000000815260040161068790611a07565b60405180910390fd5b6106b188308489856106a29190611a27565b6106ac9190611a27565b610a3c565b6106c68883886106c19190611700565b611074565b60019250505095945050505050565b60003073ffffffffffffffffffffffffffffffffffffffff168273ffffffffffffffffffffffffffffffffffffffff1614610711576000610745565b6107196103fc565b7fffffffffffffffffffffffffffffffffffffffffffffffffffffffffffffffff6107449190611a27565b5b9050919050565b60008060008373ffffffffffffffffffffffffffffffffffffffff1673ffffffffffffffffffffffffffffffffffffffff168152602001908152602001600020549050919050565b6060600480546107a39061169f565b80601f01602080910402602001604051908101604052809291908181526020018280546107cf9061169f565b801561081c5780601f106107f15761010080835404028352916020019161081c565b820191906000526020600020905b8154815290600101906020018083116107ff57829003601f168201915b5050505050905090565b600080610831610a34565b90506000600160008373ffffffffffffffffffffffffffffffffffffffff1673ffffffffffffffffffffffffffffffffffffffff16815260200190815260200160002060008673ffffffffffffffffffffffffffffffffffffffff1673ffffffffffffffffffffffffffffffffffffffff168152602001908152602001600020549050838110156108f7576040517f08c379a00000000000000000000000000000000000000000000000000000000081526004016108ee90611acd565b60405180910390fd5b6109048286868403610a3c565b60019250505092915050565b60008061091b610a34565b9050610928818585610c93565b600191505092915050565b60003073ffffffffffffffffffffffffffffffffffffffff168373ffffffffffffffffffffffffffffffffffffffff16146109a3576040517f08c379a000000000000000000000000000000000000000000000000000000000815260040161099a90611b39565b60405180910390fd5b6000905092915050565b6000600160008473ffffffffffffffffffffffffffffffffffffffff1673ffffffffffffffffffffffffffffffffffffffff16815260200190815260200160002060008373ffffffffffffffffffffffffffffffffffffffff1673ffffffffffffffffffffffffffffffffffffffff16815260200190815260200160002054905092915050565b600033905090565b600073ffffffffffffffffffffffffffffffffffffffff168373ffffffffffffffffffffffffffffffffffffffff161415610aac576040517f08c379a0000000000000000000000000000000000000000000000000000000008152600401610aa390611bcb565b60405180910390fd5b600073ffffffffffffffffffffffffffffffffffffffff168273ffffffffffffffffffffffffffffffffffffffff161415610b1c576040517f08c379a0000000000000000000000000000000000000000000000000000000008152600401610b1390611c5d565b60405180910390fd5b80600160008573ffffffffffffffffffffffffffffffffffffffff1673ffffffffffffffffffffffffffffffffffffffff16815260200190815260200160002060008473ffffffffffffffffffffffffffffffffffffffff1673ffffffffffffffffffffffffffffffffffffffff168152602001908152602001600020819055508173ffffffffffffffffffffffffffffffffffffffff168373ffffffffffffffffffffffffffffffffffffffff167f8c5be1e5ebec7d5bd14f71427d1e84f3dd0314c0f7b2291e5b200ac8c7c3b92583604051610bfa9190611433565b60405180910390a3505050565b6000610c1384846109ad565b90507fffffffffffffffffffffffffffffffffffffffffffffffffffffffffffffffff8114610c8d5781811015610c7f576040517f08c379a0000000000000000000000000000000000000000000000000000000008152600401610c7690611cc9565b60405180910390fd5b610c8c8484848403610a3c565b5b50505050565b600073ffffffffffffffffffffffffffffffffffffffff168373ffffffffffffffffffffffffffffffffffffffff161415610d03576040517f08c379a0000000000000000000000000000000000000000000000000000000008152600401610cfa90611d5b565b60405180910390fd5b600073ffffffffffffffffffffffffffffffffffffffff168273ffffffffffffffffffffffffffffffffffffffff161415610d73576040517f08c379a0000000000000000000000000000000000000000000000000000000008152600401610d6a90611ded565b60405180910390fd5b610d7e83838361124b565b60008060008573ffffffffffffffffffffffffffffffffffffffff1673ffffffffffffffffffffffffffffffffffffffff16815260200190815260200160002054905081811015610e04576040517f08c379a0000000000000000000000000000000000000000000000000000000008152600401610dfb90611e7f565b60405180910390fd5b8181036000808673ffffffffffffffffffffffffffffffffffffffff1673ffffffffffffffffffffffffffffffffffffffff16815260200190815260200160002081905550816000808573ffffffffffffffffffffffffffffffffffffffff1673ffffffffffffffffffffffffffffffffffffffff1681526020019081526020016000206000828254610e979190611700565b925050819055508273ffffffffffffffffffffffffffffffffffffffff168473ffffffffffffffffffffffffffffffffffffffff167fddf252ad1be2c89b69c2b068fc378daa952ba7f163c4a11628f55a4df523b3ef84604051610efb9190611433565b60405180910390a3610f0e848484611250565b50505050565b600073ffffffffffffffffffffffffffffffffffffffff168273ffffffffffffffffffffffffffffffffffffffff161415610f84576040517f08c379a0000000000000000000000000000000000000000000000000000000008152600401610f7b90611eeb565b60405180910390fd5b610f906000838361124b565b8060026000828254610fa29190611700565b92505081905550806000808473ffffffffffffffffffffffffffffffffffffffff1673ffffffffffffffffffffffffffffffffffffffff1681526020019081526020016000206000828254610ff79190611700565b925050819055508173ffffffffffffffffffffffffffffffffffffffff16600073ffffffffffffffffffffffffffffffffffffffff167fddf252ad1be2c89b69c2b068fc378daa952ba7f163c4a11628f55a4df523b3ef8360405161105c9190611433565b60405180910390a361107060008383611250565b5050565b600073ffffffffffffffffffffffffffffffffffffffff168273ffffffffffffffffffffffffffffffffffffffff1614156110e4576040517f08c379a00000000000000000000000000000000000000000000000000000000081526004016110db90611f7d565b60405180910390fd5b6110f08260008361124b565b60008060008473ffffffffffffffffffffffffffffffffffffffff1673ffffffffffffffffffffffffffffffffffffffff16815260200190815260200160002054905081811015611176576040517f08c379a000000000000000000000000000000000000000000000000000000000815260040161116d9061200f565b60405180910390fd5b8181036000808573ffffffffffffffffffffffffffffffffffffffff1673ffffffffffffffffffffffffffffffffffffffff1681526020019081526020016000208190555081600260008282546111cd9190611a27565b92505081905550600073ffffffffffffffffffffffffffffffffffffffff168373ffffffffffffffffffffffffffffffffffffffff167fddf252ad1be2c89b69c2b068fc378daa952ba7f163c4a11628f55a4df523b3ef846040516112329190611433565b60405180910390a361124683600084611250565b505050565b505050565b505050565b600081519050919050565b600082825260208201905092915050565b60005b8381101561128f578082015181840152602081019050611274565b8381111561129e576000848401525b50505050565b6000601f19601f8301169050919050565b60006112c082611255565b6112ca8185611260565b93506112da818560208601611271565b6112e3816112a4565b840191505092915050565b6000602082019050818103600083015261130881846112b5565b905092915050565b600080fd5b600080fd5b600073ffffffffffffffffffffffffffffffffffffffff82169050919050565b60006113458261131a565b9050919050565b6113558161133a565b811461136057600080fd5b50565b6000813590506113728161134c565b92915050565b6000819050919050565b61138b81611378565b811461139657600080fd5b50565b6000813590506113a881611382565b92915050565b600080604083850312156113c5576113c4611310565b5b60006113d385828601611363565b92505060206113e485828601611399565b9150509250929050565b60008115159050919050565b611403816113ee565b82525050565b600060208201905061141e60008301846113fa565b92915050565b61142d81611378565b82525050565b60006020820190506114486000830184611424565b92915050565b60008060006060848603121561146757611466611310565b5b600061147586828701611363565b935050602061148686828701611363565b925050604061149786828701611399565b9150509250925092565b600060ff82169050919050565b6114b7816114a1565b82525050565b60006020820190506114d260008301846114ae565b92915050565b60006114e38261133a565b9050919050565b6114f3816114d8565b81146114fe57600080fd5b50565b600081359050611510816114ea565b92915050565b600080fd5b600080fd5b600080fd5b60008083601f84011261153b5761153a611516565b5b8235905067ffffffffffffffff8111156115585761155761151b565b5b60208301915083600182028301111561157457611573611520565b5b9250929050565b60008060008060006080868803121561159757611596611310565b5b60006115a588828901611501565b95505060206115b688828901611363565b94505060406115c788828901611399565b935050606086013567ffffffffffffffff8111156115e8576115e7611315565b5b6115f488828901611525565b92509250509295509295909350565b60006020828403121561161957611618611310565b5b600061162784828501611363565b91505092915050565b6000806040838503121561164757611646611310565b5b600061165585828601611363565b925050602061166685828601611363565b9150509250929050565b7f4e487b7100000000000000000000000000000000000000000000000000000000600052602260045260246000fd5b600060028204905060018216806116b757607f821691505b602082108114156116cb576116ca611670565b5b50919050565b7f4e487b7100000000000000000000000000000000000000000000000000000000600052601160045260246000fd5b600061170b82611378565b915061171683611378565b9250827fffffffffffffffffffffffffffffffffffffffffffffffffffffffffffffffff0382111561174b5761174a6116d1565b5b828201905092915050565b7f4552433230466c6173684d696e743a20616d6f756e742065786365656473206d60008201527f6178466c6173684c6f616e000000000000000000000000000000000000000000602082015250565b60006117b2602b83611260565b91506117bd82611756565b604082019050919050565b600060208201905081810360008301526117e1816117a5565b9050919050565b6117f18161133a565b82525050565b600082825260208201905092915050565b82818337600083830152505050565b600061182383856117f7565b9350611830838584611808565b611839836112a4565b840190509392505050565b600060a08201905061185960008301896117e8565b61186660208301886117e8565b6118736040830187611424565b6118806060830186611424565b8181036080830152611893818486611817565b9050979650505050505050565b6000819050919050565b6118b3816118a0565b81146118be57600080fd5b50565b6000815190506118d0816118aa565b92915050565b6000602082840312156118ec576118eb611310565b5b60006118fa848285016118c1565b91505092915050565b7f4552433230466c6173684d696e743a20696e76616c69642072657475726e207660008201527f616c756500000000000000000000000000000000000000000000000000000000602082015250565b600061195f602483611260565b915061196a82611903565b604082019050919050565b6000602082019050818103600083015261198e81611952565b9050919050565b7f4552433230466c6173684d696e743a20616c6c6f77616e636520646f6573206e60008201527f6f7420616c6c6f7720726566756e640000000000000000000000000000000000602082015250565b60006119f1602f83611260565b91506119fc82611995565b604082019050919050565b60006020820190508181036000830152611a20816119e4565b9050919050565b6000611a3282611378565b9150611a3d83611378565b925082821015611a5057611a4f6116d1565b5b828203905092915050565b7f45524332303a2064656372656173656420616c6c6f77616e63652062656c6f7760008201527f207a65726f000000000000000000000000000000000000000000000000000000602082015250565b6000611ab7602583611260565b9150611ac282611a5b565b604082019050919050565b60006020820190508181036000830152611ae681611aaa565b9050919050565b7f4552433230466c6173684d696e743a2077726f6e6720746f6b656e0000000000600082015250565b6000611b23601b83611260565b9150611b2e82611aed565b602082019050919050565b60006020820190508181036000830152611b5281611b16565b9050919050565b7f45524332303a20617070726f76652066726f6d20746865207a65726f2061646460008201527f7265737300000000000000000000000000000000000000000000000000000000602082015250565b6000611bb5602483611260565b9150611bc082611b59565b604082019050919050565b60006020820190508181036000830152611be481611ba8565b9050919050565b7f45524332303a20617070726f766520746f20746865207a65726f20616464726560008201527f7373000000000000000000000000000000000000000000000000000000000000602082015250565b6000611c47602283611260565b9150611c5282611beb565b604082019050919050565b60006020820190508181036000830152611c7681611c3a565b9050919050565b7f45524332303a20696e73756666696369656e7420616c6c6f77616e6365000000600082015250565b6000611cb3601d83611260565b9150611cbe82611c7d565b602082019050919050565b60006020820190508181036000830152611ce281611ca6565b9050919050565b7f45524332303a207472616e736665722066726f6d20746865207a65726f20616460008201527f6472657373000000000000000000000000000000000000000000000000000000602082015250565b6000611d45602583611260565b9150611d5082611ce9565b604082019050919050565b60006020820190508181036000830152611d7481611d38565b9050919050565b7f45524332303a207472616e7366657220746f20746865207a65726f206164647260008201527f6573730000000000000000000000000000000000000000000000000000000000602082015250565b6000611dd7602383611260565b9150611de282611d7b565b604082019050919050565b60006020820190508181036000830152611e0681611dca565b9050919050565b7f45524332303a207472616e7366657220616d6f756e742065786365656473206260008201527f616c616e63650000000000000000000000000000000000000000000000000000602082015250565b6000611e69602683611260565b9150611e7482611e0d565b604082019050919050565b60006020820190508181036000830152611e9881611e5c565b9050919050565b7f45524332303a206d696e7420746f20746865207a65726f206164647265737300600082015250565b6000611ed5601f83611260565b9150611ee082611e9f565b602082019050919050565b60006020820190508181036000830152611f0481611ec8565b9050919050565b7f45524332303a206275726e2066726f6d20746865207a65726f2061646472657360008201527f7300000000000000000000000000000000000000000000000000000000000000602082015250565b6000611f67602183611260565b9150611f7282611f0b565b604082019050919050565b60006020820190508181036000830152611f9681611f5a565b9050919050565b7f45524332303a206275726e20616d6f756e7420657863656564732062616c616e60008201527f6365000000000000000000000000000000000000000000000000000000000000602082015250565b6000611ff9602283611260565b915061200482611f9d565b604082019050919050565b6000602082019050818103600083015261202881611fec565b905091905056fea2646970667358221220e2bc091d9872033820083dec6a55c071506a9af3d2a95109c0ed2d6c510d75ee64736f6c634300080b0033",
  "immutableReferences": {},
  "source": "// SPDX-License-Identifier: MIT\n\npragma solidity ^0.8.0;\n\nimport \"../token/ERC20/extensions/ERC20FlashMint.sol\";\n\ncontract ERC20FlashMintMock is ERC20FlashMint {\n    constructor(\n        string memory name,\n        string memory symbol,\n        address initialAccount,\n        uint256 initialBalance\n    ) ERC20(name, symbol) {\n        _mint(initialAccount, initialBalance);\n    }\n}\n",
  "sourcePath": "D:\\03.block-chain\\01.miquelTC__nft-marketplace\\test-proj\\nft-marketplace-master\\src\\contracts\\ERC721\\mocks\\ERC20FlashMintMock.sol",
  "compiler": {
    "name": "solc",
    "version": "0.8.11+commit.d7f03943.Emscripten.clang"
  },
  "schemaVersion": "3.4.4",
  "updatedAt": "2022-02-14T12:43:13.855Z",
  "devdoc": {
    "kind": "dev",
    "methods": {
      "allowance(address,address)": {
        "details": "See {IERC20-allowance}."
      },
      "approve(address,uint256)": {
        "details": "See {IERC20-approve}. NOTE: If `amount` is the maximum `uint256`, the allowance is not updated on `transferFrom`. This is semantically equivalent to an infinite approval. Requirements: - `spender` cannot be the zero address."
      },
      "balanceOf(address)": {
        "details": "See {IERC20-balanceOf}."
      },
      "decimals()": {
        "details": "Returns the number of decimals used to get its user representation. For example, if `decimals` equals `2`, a balance of `505` tokens should be displayed to a user as `5.05` (`505 / 10 ** 2`). Tokens usually opt for a value of 18, imitating the relationship between Ether and Wei. This is the value {ERC20} uses, unless this function is overridden; NOTE: This information is only used for _display_ purposes: it in no way affects any of the arithmetic of the contract, including {IERC20-balanceOf} and {IERC20-transfer}."
      },
      "decreaseAllowance(address,uint256)": {
        "details": "Atomically decreases the allowance granted to `spender` by the caller. This is an alternative to {approve} that can be used as a mitigation for problems described in {IERC20-approve}. Emits an {Approval} event indicating the updated allowance. Requirements: - `spender` cannot be the zero address. - `spender` must have allowance for the caller of at least `subtractedValue`."
      },
      "flashFee(address,uint256)": {
        "details": "Returns the fee applied when doing flash loans. By default this implementation has 0 fees. This function can be overloaded to make the flash loan mechanism deflationary.",
        "params": {
          "amount": "The amount of tokens to be loaned.",
          "token": "The token to be flash loaned."
        },
        "returns": {
          "_0": "The fees applied to the corresponding flash loan."
        }
      },
      "flashLoan(address,address,uint256,bytes)": {
        "details": "Performs a flash loan. New tokens are minted and sent to the `receiver`, who is required to implement the {IERC3156FlashBorrower} interface. By the end of the flash loan, the receiver is expected to own amount + fee tokens and have them approved back to the token contract itself so they can be burned.",
        "params": {
          "amount": "The amount of tokens to be loaned.",
          "data": "An arbitrary datafield that is passed to the receiver.",
          "receiver": "The receiver of the flash loan. Should implement the {IERC3156FlashBorrower.onFlashLoan} interface.",
          "token": "The token to be flash loaned. Only `address(this)` is supported."
        },
        "returns": {
          "_0": "`true` is the flash loan was successful."
        }
      },
      "increaseAllowance(address,uint256)": {
        "details": "Atomically increases the allowance granted to `spender` by the caller. This is an alternative to {approve} that can be used as a mitigation for problems described in {IERC20-approve}. Emits an {Approval} event indicating the updated allowance. Requirements: - `spender` cannot be the zero address."
      },
      "maxFlashLoan(address)": {
        "details": "Returns the maximum amount of tokens available for loan.",
        "params": {
          "token": "The address of the token that is requested."
        },
        "returns": {
          "_0": "The amont of token that can be loaned."
        }
      },
      "name()": {
        "details": "Returns the name of the token."
      },
      "symbol()": {
        "details": "Returns the symbol of the token, usually a shorter version of the name."
      },
      "totalSupply()": {
        "details": "See {IERC20-totalSupply}."
      },
      "transfer(address,uint256)": {
        "details": "See {IERC20-transfer}. Requirements: - `to` cannot be the zero address. - the caller must have a balance of at least `amount`."
      },
      "transferFrom(address,address,uint256)": {
        "details": "See {IERC20-transferFrom}. Emits an {Approval} event indicating the updated allowance. This is not required by the EIP. See the note at the beginning of {ERC20}. NOTE: Does not update the allowance if the current allowance is the maximum `uint256`. Requirements: - `from` and `to` cannot be the zero address. - `from` must have a balance of at least `amount`. - the caller must have allowance for ``from``'s tokens of at least `amount`."
      }
    },
    "version": 1
  },
  "userdoc": {
    "kind": "user",
    "methods": {},
    "version": 1
  }
}