{
  "contractName": "ERC721Lending",
  "abi": [
    {
      "anonymous": false,
      "inputs": [
        {
          "indexed": false,
          "internalType": "address",
          "name": "tokenAddress",
          "type": "address"
        },
        {
          "indexed": false,
          "internalType": "uint256",
          "name": "tokenId",
          "type": "uint256"
        }
      ],
      "name": "ERC721ForLendRemoved",
      "type": "event"
    },
    {
      "anonymous": false,
      "inputs": [
        {
          "indexed": false,
          "internalType": "address",
          "name": "lenderAddress",
          "type": "address"
        },
        {
          "indexed": false,
          "internalType": "address",
          "name": "tokenAddress",
          "type": "address"
        },
        {
          "indexed": false,
          "internalType": "uint256",
          "name": "tokenId",
          "type": "uint256"
        }
      ],
      "name": "ERC721ForLendRemovedV2",
      "type": "event"
    },
    {
      "anonymous": false,
      "inputs": [
        {
          "indexed": false,
          "internalType": "address",
          "name": "tokenAddress",
          "type": "address"
        },
        {
          "indexed": false,
          "internalType": "uint256",
          "name": "tokenId",
          "type": "uint256"
        }
      ],
      "name": "ERC721ForLendUpdated",
      "type": "event"
    },
    {
      "anonymous": false,
      "inputs": [
        {
          "indexed": false,
          "internalType": "address",
          "name": "lenderAddress",
          "type": "address"
        },
        {
          "indexed": false,
          "internalType": "address",
          "name": "tokenAddress",
          "type": "address"
        },
        {
          "indexed": false,
          "internalType": "uint256",
          "name": "tokenId",
          "type": "uint256"
        }
      ],
      "name": "ERC721ForLendUpdatedV2",
      "type": "event"
    },
    {
      "inputs": [],
      "name": "acceptedPayTokenAddress",
      "outputs": [
        {
          "internalType": "address",
          "name": "",
          "type": "address"
        }
      ],
      "stateMutability": "view",
      "type": "function"
    },
    {
      "inputs": [],
      "name": "feesContractAddress",
      "outputs": [
        {
          "internalType": "address",
          "name": "",
          "type": "address"
        }
      ],
      "stateMutability": "view",
      "type": "function"
    },
    {
      "inputs": [
        {
          "internalType": "uint256",
          "name": "",
          "type": "uint256"
        }
      ],
      "name": "lendersWithTokens",
      "outputs": [
        {
          "internalType": "address",
          "name": "lenderAddress",
          "type": "address"
        },
        {
          "internalType": "address",
          "name": "tokenAddress",
          "type": "address"
        },
        {
          "internalType": "uint256",
          "name": "tokenId",
          "type": "uint256"
        }
      ],
      "stateMutability": "view",
      "type": "function"
    },
    {
      "inputs": [
        {
          "internalType": "address",
          "name": "",
          "type": "address"
        },
        {
          "internalType": "uint256",
          "name": "",
          "type": "uint256"
        },
        {
          "internalType": "address",
          "name": "",
          "type": "address"
        }
      ],
      "name": "lendingPool",
      "outputs": [
        {
          "internalType": "uint256",
          "name": "durationHours",
          "type": "uint256"
        },
        {
          "internalType": "uint256",
          "name": "initialWorth",
          "type": "uint256"
        },
        {
          "internalType": "uint256",
          "name": "earningGoal",
          "type": "uint256"
        },
        {
          "internalType": "uint256",
          "name": "borrowedAtTimestamp",
          "type": "uint256"
        },
        {
          "internalType": "address",
          "name": "lender",
          "type": "address"
        },
        {
          "internalType": "address",
          "name": "borrower",
          "type": "address"
        },
        {
          "internalType": "bool",
          "name": "lenderClaimedCollateral",
          "type": "bool"
        },
        {
          "internalType": "uint256",
          "name": "sablierSalaryId",
          "type": "uint256"
        },
        {
          "internalType": "uint256",
          "name": "platformFeesPercent",
          "type": "uint256"
        }
      ],
      "stateMutability": "view",
      "type": "function"
    },
    {
      "inputs": [
        {
          "internalType": "address",
          "name": "",
          "type": "address"
        },
        {
          "internalType": "uint256",
          "name": "",
          "type": "uint256"
        }
      ],
      "name": "lentERC721List",
      "outputs": [
        {
          "internalType": "uint256",
          "name": "durationHours",
          "type": "uint256"
        },
        {
          "internalType": "uint256",
          "name": "initialWorth",
          "type": "uint256"
        },
        {
          "internalType": "uint256",
          "name": "earningGoal",
          "type": "uint256"
        },
        {
          "internalType": "uint256",
          "name": "borrowedAtTimestamp",
          "type": "uint256"
        },
        {
          "internalType": "address",
          "name": "lender",
          "type": "address"
        },
        {
          "internalType": "address",
          "name": "borrower",
          "type": "address"
        },
        {
          "internalType": "bool",
          "name": "lenderClaimedCollateral",
          "type": "bool"
        },
        {
          "internalType": "uint256",
          "name": "sablierSalaryId",
          "type": "uint256"
        },
        {
          "internalType": "uint256",
          "name": "platformFeesPercent",
          "type": "uint256"
        }
      ],
      "stateMutability": "view",
      "type": "function"
    },
    {
      "inputs": [],
      "name": "sablierContractAddress",
      "outputs": [
        {
          "internalType": "address",
          "name": "",
          "type": "address"
        }
      ],
      "stateMutability": "view",
      "type": "function"
    },
    {
      "inputs": [
        {
          "internalType": "address",
          "name": "tokenAddress",
          "type": "address"
        }
      ],
      "name": "initialize",
      "outputs": [],
      "stateMutability": "nonpayable",
      "type": "function"
    },
    {
      "inputs": [
        {
          "internalType": "address",
          "name": "contractAddress",
          "type": "address"
        }
      ],
      "name": "setSablierContractAddress",
      "outputs": [],
      "stateMutability": "nonpayable",
      "type": "function"
    },
    {
      "inputs": [
        {
          "internalType": "address",
          "name": "contractAddress",
          "type": "address"
        }
      ],
      "name": "setFeesContractAddress",
      "outputs": [],
      "stateMutability": "nonpayable",
      "type": "function"
    },
    {
      "inputs": [
        {
          "internalType": "address",
          "name": "tokenAddress",
          "type": "address"
        },
        {
          "internalType": "uint256",
          "name": "tokenId",
          "type": "uint256"
        },
        {
          "internalType": "uint256",
          "name": "durationHours",
          "type": "uint256"
        },
        {
          "internalType": "uint256",
          "name": "initialWorth",
          "type": "uint256"
        },
        {
          "internalType": "uint256",
          "name": "earningGoal",
          "type": "uint256"
        }
      ],
      "name": "setLendSettings",
      "outputs": [],
      "stateMutability": "nonpayable",
      "type": "function"
    },
    {
      "inputs": [
        {
          "internalType": "address",
          "name": "tokenAddress",
          "type": "address"
        },
        {
          "internalType": "uint256",
          "name": "tokenId",
          "type": "uint256"
        }
      ],
      "name": "startBorrowing",
      "outputs": [],
      "stateMutability": "nonpayable",
      "type": "function"
    },
    {
      "inputs": [
        {
          "internalType": "address",
          "name": "tokenAddress",
          "type": "address"
        },
        {
          "internalType": "uint256",
          "name": "tokenId",
          "type": "uint256"
        }
      ],
      "name": "stopBorrowing",
      "outputs": [],
      "stateMutability": "nonpayable",
      "type": "function"
    },
    {
      "inputs": [
        {
          "internalType": "address",
          "name": "tokenAddress",
          "type": "address"
        },
        {
          "internalType": "uint256",
          "name": "tokenId",
          "type": "uint256"
        }
      ],
      "name": "calculateLendSum",
      "outputs": [
        {
          "internalType": "uint256",
          "name": "",
          "type": "uint256"
        }
      ],
      "stateMutability": "view",
      "type": "function"
    },
    {
      "inputs": [
        {
          "internalType": "uint256",
          "name": "borrowedAtTimestamp",
          "type": "uint256"
        },
        {
          "internalType": "uint256",
          "name": "durationHours",
          "type": "uint256"
        }
      ],
      "name": "isDurationExpired",
      "outputs": [
        {
          "internalType": "bool",
          "name": "",
          "type": "bool"
        }
      ],
      "stateMutability": "view",
      "type": "function"
    },
    {
      "inputs": [
        {
          "internalType": "address",
          "name": "tokenAddress",
          "type": "address"
        },
        {
          "internalType": "uint256",
          "name": "tokenId",
          "type": "uint256"
        }
      ],
      "name": "removeFromLending",
      "outputs": [],
      "stateMutability": "nonpayable",
      "type": "function"
    },
    {
      "inputs": [
        {
          "internalType": "address",
          "name": "tokenAddress",
          "type": "address"
        },
        {
          "internalType": "uint256",
          "name": "tokenId",
          "type": "uint256"
        }
      ],
      "name": "claimBorrowerCollateral",
      "outputs": [],
      "stateMutability": "nonpayable",
      "type": "function"
    },
    {
      "inputs": [
        {
          "internalType": "address",
          "name": "tokenAddress",
          "type": "address"
        },
        {
          "internalType": "uint256",
          "name": "tokenId",
          "type": "uint256"
        }
      ],
      "name": "isValidNFT",
      "outputs": [
        {
          "internalType": "bool",
          "name": "",
          "type": "bool"
        }
      ],
      "stateMutability": "view",
      "type": "function"
    }
  ],
  "bytecode": "0x608060405234801561001057600080fd5b50614de3806100206000396000f3fe608060405234801561001057600080fd5b506004361061010b5760003560e01c80637eca3870116100a2578063a36d2bee11610071578063a36d2bee146102aa578063afe89ab5146102c6578063c4d66de8146102f8578063c80d922214610314578063ca6ddbae146103445761010b565b80637eca38701461021e57806394f583f01461023a578063973e071f146102565780639baa7211146102725761010b565b80634dbbfd89116100de5780634dbbfd8914610196578063537aa868146101b25780635e2afd96146101e257806360aecb41146102005761010b565b80631e9f57a514610110578063227893f2146101405780633b1a33711461015e5780634c806ffc1461017a575b600080fd5b61012a60048036038101906101259190613b0b565b61037c565b6040516101379190613b5a565b60405180910390f35b610148610443565b6040516101559190613b84565b60405180910390f35b61017860048036038101906101739190613b0b565b610469565b005b610194600480360381019061018f9190613b0b565b610aaf565b005b6101b060048036038101906101ab9190613b9f565b611736565b005b6101cc60048036038101906101c79190613b0b565b61180b565b6040516101d99190613be7565b60405180910390f35b6101ea6118be565b6040516101f79190613b84565b60405180910390f35b6102086118e4565b6040516102159190613b84565b60405180910390f35b61023860048036038101906102339190613b0b565b61190a565b005b610254600480360381019061024f9190613b9f565b612268565b005b610270600480360381019061026b9190613b0b565b61233d565b005b61028c60048036038101906102879190613b0b565b6129f9565b6040516102a199989796959493929190613c02565b60405180910390f35b6102c460048036038101906102bf9190613c8f565b612aa1565b005b6102e060048036038101906102db9190613d0a565b61305f565b6040516102ef93929190613d37565b60405180910390f35b610312600480360381019061030d9190613b9f565b6130d9565b005b61032e60048036038101906103299190613d6e565b6131ff565b60405161033b9190613be7565b60405180910390f35b61035e60048036038101906103599190613dae565b613239565b60405161037399989796959493929190613c02565b60405180910390f35b600080600160008573ffffffffffffffffffffffffffffffffffffffff1673ffffffffffffffffffffffffffffffffffffffff16815260200190815260200160002060008481526020019081526020016000206002015490506000600160008673ffffffffffffffffffffffffffffffffffffffff1673ffffffffffffffffffffffffffffffffffffffff168152602001908152602001600020600085815260200190815260200160002060010154905081816104399190613e30565b9250505092915050565b600360009054906101000a900473ffffffffffffffffffffffffffffffffffffffff1681565b3373ffffffffffffffffffffffffffffffffffffffff16600160008473ffffffffffffffffffffffffffffffffffffffff1673ffffffffffffffffffffffffffffffffffffffff168152602001908152602001600020600083815260200190815260200160002060040160009054906101000a900473ffffffffffffffffffffffffffffffffffffffff1673ffffffffffffffffffffffffffffffffffffffff161461054a576040517f08c379a000000000000000000000000000000000000000000000000000000000815260040161054190613f09565b60405180910390fd5b600073ffffffffffffffffffffffffffffffffffffffff16600160008473ffffffffffffffffffffffffffffffffffffffff1673ffffffffffffffffffffffffffffffffffffffff168152602001908152602001600020600083815260200190815260200160002060050160009054906101000a900473ffffffffffffffffffffffffffffffffffffffff1673ffffffffffffffffffffffffffffffffffffffff161461062c576040517f08c379a000000000000000000000000000000000000000000000000000000000815260040161062390613f75565b60405180910390fd5b60001515600160008473ffffffffffffffffffffffffffffffffffffffff1673ffffffffffffffffffffffffffffffffffffffff168152602001908152602001600020600083815260200190815260200160002060050160149054906101000a900460ff161515146106d3576040517f08c379a00000000000000000000000000000000000000000000000000000000081526004016106ca90613fe1565b60405180910390fd5b60008273ffffffffffffffffffffffffffffffffffffffff1630836040516024016106ff929190614001565b6040516020818303038152906040527f095ea7b3000000000000000000000000000000000000000000000000000000007bffffffffffffffffffffffffffffffffffffffffffffffffffffffff19166020820180517bffffffffffffffffffffffffffffffffffffffffffffffffffffffff838183161783525050505060405161078991906140a4565b6000604051808303816000865af19150503d80600081146107c6576040519150601f19603f3d011682016040523d82523d6000602084013e6107cb565b606091505b505090508015610843578273ffffffffffffffffffffffffffffffffffffffff1663095ea7b330846040518363ffffffff1660e01b8152600401610810929190614001565b600060405180830381600087803b15801561082a57600080fd5b505af115801561083e573d6000803e3d6000fd5b505050505b8273ffffffffffffffffffffffffffffffffffffffff166323b872dd3033856040518463ffffffff1660e01b815260040161088093929190613d37565b600060405180830381600087803b15801561089a57600080fd5b505af11580156108ae573d6000803e3d6000fd5b5050505060405180610120016040528060008152602001600081526020016000815260200160008152602001600073ffffffffffffffffffffffffffffffffffffffff168152602001600073ffffffffffffffffffffffffffffffffffffffff168152602001600015158152602001600081526020016000815250600160008573ffffffffffffffffffffffffffffffffffffffff1673ffffffffffffffffffffffffffffffffffffffff16815260200190815260200160002060008481526020019081526020016000206000820151816000015560208201518160010155604082015181600201556060820151816003015560808201518160040160006101000a81548173ffffffffffffffffffffffffffffffffffffffff021916908373ffffffffffffffffffffffffffffffffffffffff16021790555060a08201518160050160006101000a81548173ffffffffffffffffffffffffffffffffffffffff021916908373ffffffffffffffffffffffffffffffffffffffff16021790555060c08201518160050160146101000a81548160ff02191690831515021790555060e082015181600601556101008201518160070155905050610a7183836132ee565b7f948592af2167a41ba05b6478e8646bf065736f7ccea16c304ffec4b6b441b22a8383604051610aa2929190614001565b60405180910390a1505050565b6000600160008473ffffffffffffffffffffffffffffffffffffffff1673ffffffffffffffffffffffffffffffffffffffff168152602001908152602001600020600083815260200190815260200160002060050160009054906101000a900473ffffffffffffffffffffffffffffffffffffffff1690503373ffffffffffffffffffffffffffffffffffffffff168173ffffffffffffffffffffffffffffffffffffffff1614610b95576040517f08c379a0000000000000000000000000000000000000000000000000000000008152600401610b8c9061412d565b60405180910390fd5b60001515600160008573ffffffffffffffffffffffffffffffffffffffff1673ffffffffffffffffffffffffffffffffffffffff168152602001908152602001600020600084815260200190815260200160002060050160149054906101000a900460ff1615151415611542578273ffffffffffffffffffffffffffffffffffffffff166323b872dd3330856040518463ffffffff1660e01b8152600401610c3f93929190613d37565b600060405180830381600087803b158015610c5957600080fd5b505af1158015610c6d573d6000803e3d6000fd5b505050506000600160008573ffffffffffffffffffffffffffffffffffffffff1673ffffffffffffffffffffffffffffffffffffffff1681526020019081526020016000206000848152602001908152602001600020600101549050600060029054906101000a900473ffffffffffffffffffffffffffffffffffffffff1673ffffffffffffffffffffffffffffffffffffffff1663a9059cbb83836040518363ffffffff1660e01b8152600401610d26929190614001565b6020604051808303816000875af1158015610d45573d6000803e3d6000fd5b505050506040513d601f19601f82011682018060405250810190610d699190614179565b506000600160008673ffffffffffffffffffffffffffffffffffffffff1673ffffffffffffffffffffffffffffffffffffffff168152602001908152602001600020600085815260200190815260200160002060050160006101000a81548173ffffffffffffffffffffffffffffffffffffffff021916908373ffffffffffffffffffffffffffffffffffffffff1602179055506000600160008673ffffffffffffffffffffffffffffffffffffffff1673ffffffffffffffffffffffffffffffffffffffff1681526020019081526020016000206000858152602001908152602001600020600301819055506000600160008673ffffffffffffffffffffffffffffffffffffffff1673ffffffffffffffffffffffffffffffffffffffff168152602001908152602001600020600085815260200190815260200160002060040160009054906101000a900473ffffffffffffffffffffffffffffffffffffffff1690506000600160008773ffffffffffffffffffffffffffffffffffffffff1673ffffffffffffffffffffffffffffffffffffffff16815260200190815260200160002060008681526020019081526020016000206006015490506000811461143f57600080600080600360009054906101000a900473ffffffffffffffffffffffffffffffffffffffff1673ffffffffffffffffffffffffffffffffffffffff166380bfacc2866040518263ffffffff1660e01b8152600401610f8f9190613b5a565b61010060405180830381865afa158015610fad573d6000803e3d6000fd5b505050506040513d601f19601f82011682018060405250810190610fd191906141d0565b97505096509650509550505060008242101561100a57610ffc8442610ff69190614286565b8361363d565b8561100791906142c4565b90505b600360009054906101000a900473ffffffffffffffffffffffffffffffffffffffff1673ffffffffffffffffffffffffffffffffffffffff1663c5a66ff9876040518263ffffffff1660e01b81526004016110659190613b5a565b6020604051808303816000875af1158015611084573d6000803e3d6000fd5b505050506040513d601f19601f820116820180604052508101906110a89190614179565b506000600160008d73ffffffffffffffffffffffffffffffffffffffff1673ffffffffffffffffffffffffffffffffffffffff16815260200190815260200160002060008c815260200190815260200160002060060181905550600080600160008e73ffffffffffffffffffffffffffffffffffffffff1673ffffffffffffffffffffffffffffffffffffffff16815260200190815260200160002060008d8152602001908152602001600020600701549050600081111561117b57611178611172886064613653565b8261363d565b91505b600083131561130b5760008211156112695760006111998885613669565b905060006111b16111ab836064613653565b8461363d565b905060006111bf8583613669565b9050819450600060029054906101000a900473ffffffffffffffffffffffffffffffffffffffff1673ffffffffffffffffffffffffffffffffffffffff1663a9059cbb8d836040518363ffffffff1660e01b8152600401611221929190614001565b6020604051808303816000875af1158015611240573d6000803e3d6000fd5b505050506040513d601f19601f820116820180604052508101906112649190614179565b505050505b600060029054906101000a900473ffffffffffffffffffffffffffffffffffffffff1673ffffffffffffffffffffffffffffffffffffffff1663a9059cbb8c856040518363ffffffff1660e01b81526004016112c6929190614001565b6020604051808303816000875af11580156112e5573d6000803e3d6000fd5b505050506040513d601f19601f820116820180604052508101906113099190614179565b505b600073ffffffffffffffffffffffffffffffffffffffff16600660009054906101000a900473ffffffffffffffffffffffffffffffffffffffff1673ffffffffffffffffffffffffffffffffffffffff161415801561136a5750600082115b1561143357600060029054906101000a900473ffffffffffffffffffffffffffffffffffffffff1673ffffffffffffffffffffffffffffffffffffffff1663a9059cbb600660009054906101000a900473ffffffffffffffffffffffffffffffffffffffff16846040518363ffffffff1660e01b81526004016113ee929190614001565b6020604051808303816000875af115801561140d573d6000803e3d6000fd5b505050506040513d601f19601f820116820180604052508101906114319190614179565b505b5050505050505061153a565b6000600160008873ffffffffffffffffffffffffffffffffffffffff1673ffffffffffffffffffffffffffffffffffffffff1681526020019081526020016000206000878152602001908152602001600020600201549050600060029054906101000a900473ffffffffffffffffffffffffffffffffffffffff1673ffffffffffffffffffffffffffffffffffffffff1663a9059cbb84836040518363ffffffff1660e01b81526004016114f4929190614001565b6020604051808303816000875af1158015611513573d6000803e3d6000fd5b505050506040513d601f19601f820116820180604052508101906115379190614179565b50505b5050506116f8565b60405180610120016040528060008152602001600081526020016000815260200160008152602001600073ffffffffffffffffffffffffffffffffffffffff168152602001600073ffffffffffffffffffffffffffffffffffffffff168152602001600015158152602001600081526020016000815250600160008573ffffffffffffffffffffffffffffffffffffffff1673ffffffffffffffffffffffffffffffffffffffff16815260200190815260200160002060008481526020019081526020016000206000820151816000015560208201518160010155604082015181600201556060820151816003015560808201518160040160006101000a81548173ffffffffffffffffffffffffffffffffffffffff021916908373ffffffffffffffffffffffffffffffffffffffff16021790555060a08201518160050160006101000a81548173ffffffffffffffffffffffffffffffffffffffff021916908373ffffffffffffffffffffffffffffffffffffffff16021790555060c08201518160050160146101000a81548160ff02191690831515021790555060e0820151816006015561010082015181600701559050505b7fff57598c219d5cf768267ac0800789e8a5705c0651c6a1f2c5f0caa47d9712138383604051611729929190614001565b60405180910390a1505050565b600073ffffffffffffffffffffffffffffffffffffffff16600660009054906101000a900473ffffffffffffffffffffffffffffffffffffffff1673ffffffffffffffffffffffffffffffffffffffff16146117c7576040517f08c379a00000000000000000000000000000000000000000000000000000000081526004016117be906143ca565b60405180910390fd5b80600660006101000a81548173ffffffffffffffffffffffffffffffffffffffff021916908373ffffffffffffffffffffffffffffffffffffffff16021790555050565b60008073ffffffffffffffffffffffffffffffffffffffff168373ffffffffffffffffffffffffffffffffffffffff16636352211e846040518263ffffffff1660e01b815260040161185d9190613b5a565b602060405180830381865afa15801561187a573d6000803e3d6000fd5b505050506040513d601f19601f8201168201806040525081019061189e91906143ea565b73ffffffffffffffffffffffffffffffffffffffff161415905092915050565b600060029054906101000a900473ffffffffffffffffffffffffffffffffffffffff1681565b600660009054906101000a900473ffffffffffffffffffffffffffffffffffffffff1681565b600073ffffffffffffffffffffffffffffffffffffffff16600160008473ffffffffffffffffffffffffffffffffffffffff1673ffffffffffffffffffffffffffffffffffffffff168152602001908152602001600020600083815260200190815260200160002060050160009054906101000a900473ffffffffffffffffffffffffffffffffffffffff1673ffffffffffffffffffffffffffffffffffffffff1614156119ed576040517f08c379a00000000000000000000000000000000000000000000000000000000081526004016119e490614463565b60405180910390fd5b3373ffffffffffffffffffffffffffffffffffffffff16600160008473ffffffffffffffffffffffffffffffffffffffff1673ffffffffffffffffffffffffffffffffffffffff168152602001908152602001600020600083815260200190815260200160002060040160009054906101000a900473ffffffffffffffffffffffffffffffffffffffff1673ffffffffffffffffffffffffffffffffffffffff1614611ace576040517f08c379a0000000000000000000000000000000000000000000000000000000008152600401611ac590613f09565b60405180910390fd5b6000600160008473ffffffffffffffffffffffffffffffffffffffff1673ffffffffffffffffffffffffffffffffffffffff16815260200190815260200160002060008381526020019081526020016000206003015490506000600160008573ffffffffffffffffffffffffffffffffffffffff1673ffffffffffffffffffffffffffffffffffffffff1681526020019081526020016000206000848152602001908152602001600020600001549050611b8882826131ff565b611bc7576040517f08c379a0000000000000000000000000000000000000000000000000000000008152600401611bbe906144f5565b60405180910390fd5b60001515600160008673ffffffffffffffffffffffffffffffffffffffff1673ffffffffffffffffffffffffffffffffffffffff168152602001908152602001600020600085815260200190815260200160002060050160149054906101000a900460ff16151514611c6e576040517f08c379a0000000000000000000000000000000000000000000000000000000008152600401611c6590614561565b60405180910390fd5b60018060008673ffffffffffffffffffffffffffffffffffffffff1673ffffffffffffffffffffffffffffffffffffffff168152602001908152602001600020600085815260200190815260200160002060050160146101000a81548160ff0219169083151502179055506000600160008673ffffffffffffffffffffffffffffffffffffffff1673ffffffffffffffffffffffffffffffffffffffff16815260200190815260200160002060008581526020019081526020016000206006015490506000811461216d576000600360009054906101000a900473ffffffffffffffffffffffffffffffffffffffff1673ffffffffffffffffffffffffffffffffffffffff166380bfacc2836040518263ffffffff1660e01b8152600401611d969190613b5a565b61010060405180830381865afa158015611db4573d6000803e3d6000fd5b505050506040513d601f19601f82011682018060405250810190611dd891906141d0565b505050505092505050600060029054906101000a900473ffffffffffffffffffffffffffffffffffffffff1673ffffffffffffffffffffffffffffffffffffffff1663a9059cbb33600160008a73ffffffffffffffffffffffffffffffffffffffff1673ffffffffffffffffffffffffffffffffffffffff1681526020019081526020016000206000898152602001908152602001600020600101546040518363ffffffff1660e01b8152600401611e91929190614001565b6020604051808303816000875af1158015611eb0573d6000803e3d6000fd5b505050506040513d601f19601f82011682018060405250810190611ed49190614179565b50600360009054906101000a900473ffffffffffffffffffffffffffffffffffffffff1673ffffffffffffffffffffffffffffffffffffffff1663c5a66ff9836040518263ffffffff1660e01b8152600401611f309190613b5a565b6020604051808303816000875af1158015611f4f573d6000803e3d6000fd5b505050506040513d601f19601f82011682018060405250810190611f739190614179565b506000600160008873ffffffffffffffffffffffffffffffffffffffff1673ffffffffffffffffffffffffffffffffffffffff1681526020019081526020016000206000878152602001908152602001600020600601819055506000600160008873ffffffffffffffffffffffffffffffffffffffff1673ffffffffffffffffffffffffffffffffffffffff1681526020019081526020016000206000878152602001908152602001600020600701549050600073ffffffffffffffffffffffffffffffffffffffff16600660009054906101000a900473ffffffffffffffffffffffffffffffffffffffff1673ffffffffffffffffffffffffffffffffffffffff16141580156120845750600081115b1561216657600061209f612099846064613653565b8361363d565b9050600060029054906101000a900473ffffffffffffffffffffffffffffffffffffffff1673ffffffffffffffffffffffffffffffffffffffff1663a9059cbb600660009054906101000a900473ffffffffffffffffffffffffffffffffffffffff16836040518363ffffffff1660e01b8152600401612120929190614001565b6020604051808303816000875af115801561213f573d6000803e3d6000fd5b505050506040513d601f19601f820116820180604052508101906121639190614179565b50505b505061221e565b6000612179868661037c565b9050600060029054906101000a900473ffffffffffffffffffffffffffffffffffffffff1673ffffffffffffffffffffffffffffffffffffffff1663a9059cbb33836040518363ffffffff1660e01b81526004016121d8929190614001565b6020604051808303816000875af11580156121f7573d6000803e3d6000fd5b505050506040513d601f19601f8201168201806040525081019061221b9190614179565b50505b61222885856132ee565b7fff57598c219d5cf768267ac0800789e8a5705c0651c6a1f2c5f0caa47d9712138585604051612259929190614001565b60405180910390a15050505050565b600073ffffffffffffffffffffffffffffffffffffffff16600360009054906101000a900473ffffffffffffffffffffffffffffffffffffffff1673ffffffffffffffffffffffffffffffffffffffff16146122f9576040517f08c379a00000000000000000000000000000000000000000000000000000000081526004016122f0906145f3565b60405180910390fd5b80600360006101000a81548173ffffffffffffffffffffffffffffffffffffffff021916908373ffffffffffffffffffffffffffffffffffffffff16021790555050565b600073ffffffffffffffffffffffffffffffffffffffff16600160008473ffffffffffffffffffffffffffffffffffffffff1673ffffffffffffffffffffffffffffffffffffffff168152602001908152602001600020600083815260200190815260200160002060050160009054906101000a900473ffffffffffffffffffffffffffffffffffffffff1673ffffffffffffffffffffffffffffffffffffffff161461241f576040517f08c379a00000000000000000000000000000000000000000000000000000000081526004016124169061465f565b60405180910390fd5b6000600160008473ffffffffffffffffffffffffffffffffffffffff1673ffffffffffffffffffffffffffffffffffffffff168152602001908152602001600020600083815260200190815260200160002060020154116124b5576040517f08c379a00000000000000000000000000000000000000000000000000000000081526004016124ac906146f1565b60405180910390fd5b6000600160008473ffffffffffffffffffffffffffffffffffffffff1673ffffffffffffffffffffffffffffffffffffffff1681526020019081526020016000206000838152602001908152602001600020600101541161254b576040517f08c379a000000000000000000000000000000000000000000000000000000000815260040161254290614783565b60405180910390fd5b60008060029054906101000a900473ffffffffffffffffffffffffffffffffffffffff169050600061257d848461037c565b905060008273ffffffffffffffffffffffffffffffffffffffff1663dd62ed3e33306040518363ffffffff1660e01b81526004016125bc9291906147a3565b602060405180830381865afa1580156125d9573d6000803e3d6000fd5b505050506040513d601f19601f820116820180604052508101906125fd91906147cc565b905081811015612642576040517f08c379a00000000000000000000000000000000000000000000000000000000081526004016126399061486b565b60405180910390fd5b600060029054906101000a900473ffffffffffffffffffffffffffffffffffffffff1673ffffffffffffffffffffffffffffffffffffffff166323b872dd3330856040518463ffffffff1660e01b81526004016126a193929190613d37565b6020604051808303816000875af11580156126c0573d6000803e3d6000fd5b505050506040513d601f19601f820116820180604052508101906126e49190614179565b5060008573ffffffffffffffffffffffffffffffffffffffff163086604051602401612711929190614001565b6040516020818303038152906040527f095ea7b3000000000000000000000000000000000000000000000000000000007bffffffffffffffffffffffffffffffffffffffffffffffffffffffff19166020820180517bffffffffffffffffffffffffffffffffffffffffffffffffffffffff838183161783525050505060405161279b91906140a4565b6000604051808303816000865af19150503d80600081146127d8576040519150601f19603f3d011682016040523d82523d6000602084013e6127dd565b606091505b505090508015612855578573ffffffffffffffffffffffffffffffffffffffff1663095ea7b330876040518363ffffffff1660e01b8152600401612822929190614001565b600060405180830381600087803b15801561283c57600080fd5b505af1158015612850573d6000803e3d6000fd5b505050505b8573ffffffffffffffffffffffffffffffffffffffff166323b872dd3033886040518463ffffffff1660e01b815260040161289293929190613d37565b600060405180830381600087803b1580156128ac57600080fd5b505af11580156128c0573d6000803e3d6000fd5b5050505033600160008873ffffffffffffffffffffffffffffffffffffffff1673ffffffffffffffffffffffffffffffffffffffff168152602001908152602001600020600087815260200190815260200160002060050160006101000a81548173ffffffffffffffffffffffffffffffffffffffff021916908373ffffffffffffffffffffffffffffffffffffffff16021790555042600160008873ffffffffffffffffffffffffffffffffffffffff1673ffffffffffffffffffffffffffffffffffffffff1681526020019081526020016000206000878152602001908152602001600020600301819055506129b8868661367f565b7fff57598c219d5cf768267ac0800789e8a5705c0651c6a1f2c5f0caa47d97121386866040516129e9929190614001565b60405180910390a1505050505050565b6001602052816000526040600020602052806000526040600020600091509150508060000154908060010154908060020154908060030154908060040160009054906101000a900473ffffffffffffffffffffffffffffffffffffffff16908060050160009054906101000a900473ffffffffffffffffffffffffffffffffffffffff16908060050160149054906101000a900460ff16908060060154908060070154905089565b60008211612ae4576040517f08c379a0000000000000000000000000000000000000000000000000000000008152600401612adb906148fd565b60405180910390fd5b60008111612b27576040517f08c379a0000000000000000000000000000000000000000000000000000000008152600401612b1e9061498f565b60405180910390fd5b60008311612b6a576040517f08c379a0000000000000000000000000000000000000000000000000000000008152600401612b6190614a21565b60405180910390fd5b600073ffffffffffffffffffffffffffffffffffffffff16600160008773ffffffffffffffffffffffffffffffffffffffff1673ffffffffffffffffffffffffffffffffffffffff168152602001908152602001600020600086815260200190815260200160002060050160009054906101000a900473ffffffffffffffffffffffffffffffffffffffff1673ffffffffffffffffffffffffffffffffffffffff1614612c4c576040517f08c379a0000000000000000000000000000000000000000000000000000000008152600401612c4390614ab3565b60405180910390fd5b60001515600160008773ffffffffffffffffffffffffffffffffffffffff1673ffffffffffffffffffffffffffffffffffffffff168152602001908152602001600020600086815260200190815260200160002060050160149054906101000a900460ff16151514612cf3576040517f08c379a0000000000000000000000000000000000000000000000000000000008152600401612cea90614b45565b60405180910390fd5b8473ffffffffffffffffffffffffffffffffffffffff166323b872dd3330876040518463ffffffff1660e01b8152600401612d3093929190613d37565b600060405180830381600087803b158015612d4a57600080fd5b505af1158015612d5e573d6000803e3d6000fd5b50505050604051806101200160405280848152602001838152602001828152602001600081526020013373ffffffffffffffffffffffffffffffffffffffff168152602001600073ffffffffffffffffffffffffffffffffffffffff168152602001600015158152602001600081526020016000815250600160008773ffffffffffffffffffffffffffffffffffffffff1673ffffffffffffffffffffffffffffffffffffffff16815260200190815260200160002060008681526020019081526020016000206000820151816000015560208201518160010155604082015181600201556060820151816003015560808201518160040160006101000a81548173ffffffffffffffffffffffffffffffffffffffff021916908373ffffffffffffffffffffffffffffffffffffffff16021790555060a08201518160050160006101000a81548173ffffffffffffffffffffffffffffffffffffffff021916908373ffffffffffffffffffffffffffffffffffffffff16021790555060c08201518160050160146101000a81548160ff02191690831515021790555060e082015181600601556101008201518160070155905050600260405180606001604052803373ffffffffffffffffffffffffffffffffffffffff1681526020018773ffffffffffffffffffffffffffffffffffffffff16815260200186815250908060018154018082558091505060019003906000526020600020906003020160009091909190915060008201518160000160006101000a81548173ffffffffffffffffffffffffffffffffffffffff021916908373ffffffffffffffffffffffffffffffffffffffff16021790555060208201518160010160006101000a81548173ffffffffffffffffffffffffffffffffffffffff021916908373ffffffffffffffffffffffffffffffffffffffff1602179055506040820151816002015550507fff57598c219d5cf768267ac0800789e8a5705c0651c6a1f2c5f0caa47d9712138585604051613050929190614001565b60405180910390a15050505050565b6002818154811061306f57600080fd5b90600052602060002090600302016000915090508060000160009054906101000a900473ffffffffffffffffffffffffffffffffffffffff16908060010160009054906101000a900473ffffffffffffffffffffffffffffffffffffffff16908060020154905083565b600060019054906101000a900460ff166131015760008054906101000a900460ff161561310a565b613109613a3e565b5b613149576040517f08c379a000000000000000000000000000000000000000000000000000000000815260040161314090614bd7565b60405180910390fd5b60008060019054906101000a900460ff161590508015613199576001600060016101000a81548160ff02191690831515021790555060016000806101000a81548160ff0219169083151502179055505b81600060026101000a81548173ffffffffffffffffffffffffffffffffffffffff021916908373ffffffffffffffffffffffffffffffffffffffff16021790555080156131fb5760008060016101000a81548160ff0219169083151502179055505b5050565b600080834261320e9190614286565b90506000603c80836132209190614bf7565b61322a9190614bf7565b90508381119250505092915050565b600460205282600052604060002060205281600052604060002060205280600052604060002060009250925050508060000154908060010154908060020154908060030154908060040160009054906101000a900473ffffffffffffffffffffffffffffffffffffffff16908060050160009054906101000a900473ffffffffffffffffffffffffffffffffffffffff16908060050160149054906101000a900460ff16908060060154908060070154905089565b6000600280549050905060018111156135bb5760005b818110156135b55760006002828154811061332257613321614c51565b5b90600052602060002090600302016040518060600160405290816000820160009054906101000a900473ffffffffffffffffffffffffffffffffffffffff1673ffffffffffffffffffffffffffffffffffffffff1673ffffffffffffffffffffffffffffffffffffffff1681526020016001820160009054906101000a900473ffffffffffffffffffffffffffffffffffffffff1673ffffffffffffffffffffffffffffffffffffffff1673ffffffffffffffffffffffffffffffffffffffff16815260200160028201548152505090503373ffffffffffffffffffffffffffffffffffffffff16816000015173ffffffffffffffffffffffffffffffffffffffff1614801561346157508473ffffffffffffffffffffffffffffffffffffffff16816020015173ffffffffffffffffffffffffffffffffffffffff16145b80156134705750838160400151145b156135a15760026001846134849190614286565b8154811061349557613494614c51565b5b9060005260206000209060030201600283815481106134b7576134b6614c51565b5b90600052602060002090600302016000820160009054906101000a900473ffffffffffffffffffffffffffffffffffffffff168160000160006101000a81548173ffffffffffffffffffffffffffffffffffffffff021916908373ffffffffffffffffffffffffffffffffffffffff1602179055506001820160009054906101000a900473ffffffffffffffffffffffffffffffffffffffff168160010160006101000a81548173ffffffffffffffffffffffffffffffffffffffff021916908373ffffffffffffffffffffffffffffffffffffffff160217905550600282015481600201559050505b5080806135ad90614c80565b915050613304565b50613638565b60026000815481106135d0576135cf614c51565b5b9060005260206000209060030201600080820160006101000a81549073ffffffffffffffffffffffffffffffffffffffff02191690556001820160006101000a81549073ffffffffffffffffffffffffffffffffffffffff0219169055600282016000905550505b505050565b6000818361364b9190614bf7565b905092915050565b600081836136619190614cf8565b905092915050565b600081836136779190614286565b905092915050565b600073ffffffffffffffffffffffffffffffffffffffff16600360009054906101000a900473ffffffffffffffffffffffffffffffffffffffff1673ffffffffffffffffffffffffffffffffffffffff1614613a3a576000603c426136e49190613e30565b90506000610e10600160008673ffffffffffffffffffffffffffffffffffffffff1673ffffffffffffffffffffffffffffffffffffffff1681526020019081526020016000206000858152602001908152602001600020600001546137499190614bf7565b826137549190613e30565b90506000600160008673ffffffffffffffffffffffffffffffffffffffff1673ffffffffffffffffffffffffffffffffffffffff1681526020019081526020016000206000858152602001908152602001600020600201549050600083836137bc9190614286565b9050600081836137cc9190614d29565b836137d79190614286565b9050600060029054906101000a900473ffffffffffffffffffffffffffffffffffffffff1673ffffffffffffffffffffffffffffffffffffffff1663095ea7b3600360009054906101000a900473ffffffffffffffffffffffffffffffffffffffff16836040518363ffffffff1660e01b8152600401613858929190614001565b6020604051808303816000875af1158015613877573d6000803e3d6000fd5b505050506040513d601f19601f8201168201806040525081019061389b9190614179565b506000600360009054906101000a900473ffffffffffffffffffffffffffffffffffffffff1673ffffffffffffffffffffffffffffffffffffffff1663dc7d9369600160008b73ffffffffffffffffffffffffffffffffffffffff1673ffffffffffffffffffffffffffffffffffffffff16815260200190815260200160002060008a815260200190815260200160002060040160009054906101000a900473ffffffffffffffffffffffffffffffffffffffff1684600060029054906101000a900473ffffffffffffffffffffffffffffffffffffffff168a8a6040518663ffffffff1660e01b8152600401613996959493929190614d5a565b6020604051808303816000875af11580156139b5573d6000803e3d6000fd5b505050506040513d601f19601f820116820180604052508101906139d991906147cc565b905080600160008a73ffffffffffffffffffffffffffffffffffffffff1673ffffffffffffffffffffffffffffffffffffffff1681526020019081526020016000206000898152602001908152602001600020600601819055505050505050505b5050565b6000613a4930613a4f565b15905090565b6000808273ffffffffffffffffffffffffffffffffffffffff163b119050919050565b600080fd5b600073ffffffffffffffffffffffffffffffffffffffff82169050919050565b6000613aa282613a77565b9050919050565b613ab281613a97565b8114613abd57600080fd5b50565b600081359050613acf81613aa9565b92915050565b6000819050919050565b613ae881613ad5565b8114613af357600080fd5b50565b600081359050613b0581613adf565b92915050565b60008060408385031215613b2257613b21613a72565b5b6000613b3085828601613ac0565b9250506020613b4185828601613af6565b9150509250929050565b613b5481613ad5565b82525050565b6000602082019050613b6f6000830184613b4b565b92915050565b613b7e81613a97565b82525050565b6000602082019050613b996000830184613b75565b92915050565b600060208284031215613bb557613bb4613a72565b5b6000613bc384828501613ac0565b91505092915050565b60008115159050919050565b613be181613bcc565b82525050565b6000602082019050613bfc6000830184613bd8565b92915050565b600061012082019050613c18600083018c613b4b565b613c25602083018b613b4b565b613c32604083018a613b4b565b613c3f6060830189613b4b565b613c4c6080830188613b75565b613c5960a0830187613b75565b613c6660c0830186613bd8565b613c7360e0830185613b4b565b613c81610100830184613b4b565b9a9950505050505050505050565b600080600080600060a08688031215613cab57613caa613a72565b5b6000613cb988828901613ac0565b9550506020613cca88828901613af6565b9450506040613cdb88828901613af6565b9350506060613cec88828901613af6565b9250506080613cfd88828901613af6565b9150509295509295909350565b600060208284031215613d2057613d1f613a72565b5b6000613d2e84828501613af6565b91505092915050565b6000606082019050613d4c6000830186613b75565b613d596020830185613b75565b613d666040830184613b4b565b949350505050565b60008060408385031215613d8557613d84613a72565b5b6000613d9385828601613af6565b9250506020613da485828601613af6565b9150509250929050565b600080600060608486031215613dc757613dc6613a72565b5b6000613dd586828701613ac0565b9350506020613de686828701613af6565b9250506040613df786828701613ac0565b9150509250925092565b7f4e487b7100000000000000000000000000000000000000000000000000000000600052601160045260246000fd5b6000613e3b82613ad5565b9150613e4683613ad5565b9250827fffffffffffffffffffffffffffffffffffffffffffffffffffffffffffffffff03821115613e7b57613e7a613e01565b5b828201905092915050565b600082825260208201905092915050565b7f436c61696d3a2043616e6e6f7420636c61696d206e6f74206f776e6564206c6560008201527f6e64000000000000000000000000000000000000000000000000000000000000602082015250565b6000613ef3602283613e86565b9150613efe82613e97565b604082019050919050565b60006020820190508181036000830152613f2281613ee6565b9050919050565b7f4c656e64696e673a2043616e6e6f742063616e63656c206966206c656e740000600082015250565b6000613f5f601e83613e86565b9150613f6a82613f29565b602082019050919050565b60006020820190508181036000830152613f8e81613f52565b9050919050565b7f4c656e64696e673a20436f6c6c61746572616c20636c61696d65640000000000600082015250565b6000613fcb601b83613e86565b9150613fd682613f95565b602082019050919050565b60006020820190508181036000830152613ffa81613fbe565b9050919050565b60006040820190506140166000830185613b75565b6140236020830184613b4b565b9392505050565b600081519050919050565b600081905092915050565b60005b8381101561405e578082015181840152602081019050614043565b8381111561406d576000848401525b50505050565b600061407e8261402a565b6140888185614035565b9350614098818560208601614040565b80840191505092915050565b60006140b08284614073565b915081905092915050565b7f426f72726f77696e673a2043616e2062652073746f70706564206f6e6c79206260008201527f792061637469766520626f72726f776572000000000000000000000000000000602082015250565b6000614117603183613e86565b9150614122826140bb565b604082019050919050565b600060208201905081810360008301526141468161410a565b9050919050565b61415681613bcc565b811461416157600080fd5b50565b6000815190506141738161414d565b92915050565b60006020828403121561418f5761418e613a72565b5b600061419d84828501614164565b91505092915050565b6000815190506141b581613aa9565b92915050565b6000815190506141ca81613adf565b92915050565b600080600080600080600080610100898b0312156141f1576141f0613a72565b5b60006141ff8b828c016141a6565b98505060206142108b828c016141a6565b97505060406142218b828c016141bb565b96505060606142328b828c016141a6565b95505060806142438b828c016141bb565b94505060a06142548b828c016141bb565b93505060c06142658b828c016141bb565b92505060e06142768b828c016141bb565b9150509295985092959890939650565b600061429182613ad5565b915061429c83613ad5565b9250828210156142af576142ae613e01565b5b828203905092915050565b6000819050919050565b60006142cf826142ba565b91506142da836142ba565b9250827f80000000000000000000000000000000000000000000000000000000000000000182126000841215161561431557614314613e01565b5b827f7fffffffffffffffffffffffffffffffffffffffffffffffffffffffffffffff01821360008412161561434d5761434c613e01565b5b828203905092915050565b7f4665657320636f6e7472616374206164647265737320616c726561647920736560008201527f7400000000000000000000000000000000000000000000000000000000000000602082015250565b60006143b4602183613e86565b91506143bf82614358565b604082019050919050565b600060208201905081810360008301526143e3816143a7565b9050919050565b600060208284031215614400576143ff613a72565b5b600061440e848285016141a6565b91505092915050565b7f436c61696d3a2043616e6e6f7420636c61696d2069662073746f707065640000600082015250565b600061444d601e83613e86565b915061445882614417565b602082019050919050565b6000602082019050818103600083015261447c81614440565b9050919050565b7f436c61696d3a2043616e6e6f7420636c61696d206265666f7265206c656e646960008201527f6e67206578706972656400000000000000000000000000000000000000000000602082015250565b60006144df602a83613e86565b91506144ea82614483565b604082019050919050565b6000602082019050818103600083015261450e816144d2565b9050919050565b7f436c61696d3a20416c726561647920636c61696d656400000000000000000000600082015250565b600061454b601683613e86565b915061455682614515565b602082019050919050565b6000602082019050818103600083015261457a8161453e565b9050919050565b7f5361626c69657220636f6e7472616374206164647265737320616c726561647960008201527f2073657400000000000000000000000000000000000000000000000000000000602082015250565b60006145dd602483613e86565b91506145e882614581565b604082019050919050565b6000602082019050818103600083015261460c816145d0565b9050919050565b7f426f72726f77696e673a20416c7265616479206c656e74000000000000000000600082015250565b6000614649601783613e86565b915061465482614613565b602082019050919050565b600060208201905081810360008301526146788161463c565b9050919050565b7f426f72726f77696e673a204c656e64657220646964206e6f742073657420656160008201527f726e696e6720676f616c20796574000000000000000000000000000000000000602082015250565b60006146db602e83613e86565b91506146e68261467f565b604082019050919050565b6000602082019050818103600083015261470a816146ce565b9050919050565b7f426f72726f77696e673a204c656e64657220646964206e6f742073657420696e60008201527f697469616c20776f727468207965740000000000000000000000000000000000602082015250565b600061476d602f83613e86565b915061477882614711565b604082019050919050565b6000602082019050818103600083015261479c81614760565b9050919050565b60006040820190506147b86000830185613b75565b6147c56020830184613b75565b9392505050565b6000602082840312156147e2576147e1613a72565b5b60006147f0848285016141bb565b91505092915050565b7f426f72726f77696e673a204e6f7420656e6f75676820636f6c6c61746572616c60008201527f2072656365697665640000000000000000000000000000000000000000000000602082015250565b6000614855602983613e86565b9150614860826147f9565b604082019050919050565b6000602082019050818103600083015261488481614848565b9050919050565b7f4c656e64696e673a20496e697469616c20746f6b656e20776f727468206d757360008201527f742062652061626f766520300000000000000000000000000000000000000000602082015250565b60006148e7602c83613e86565b91506148f28261488b565b604082019050919050565b60006020820190508181036000830152614916816148da565b9050919050565b7f4c656e64696e673a204561726e696e6720676f616c206d75737420626520616260008201527f6f76652030000000000000000000000000000000000000000000000000000000602082015250565b6000614979602583613e86565b91506149848261491d565b604082019050919050565b600060208201905081810360008301526149a88161496c565b9050919050565b7f4c656e64696e673a204c656e64696e67206475726174696f6e206d757374206260008201527f652061626f766520300000000000000000000000000000000000000000000000602082015250565b6000614a0b602983613e86565b9150614a16826149af565b604082019050919050565b60006020820190508181036000830152614a3a816149fe565b9050919050565b7f4c656e64696e673a2043616e6e6f74206368616e67652073657474696e67732c60008201527f20746f6b656e20616c7265616479206c656e7400000000000000000000000000602082015250565b6000614a9d603383613e86565b9150614aa882614a41565b604082019050919050565b60006020820190508181036000830152614acc81614a90565b9050919050565b7f4c656e64696e673a20436f6c6c61746572616c20616c726561647920636c616960008201527f6d65640000000000000000000000000000000000000000000000000000000000602082015250565b6000614b2f602383613e86565b9150614b3a82614ad3565b604082019050919050565b60006020820190508181036000830152614b5e81614b22565b9050919050565b7f496e697469616c697a61626c653a20636f6e747261637420697320616c72656160008201527f647920696e697469616c697a6564000000000000000000000000000000000000602082015250565b6000614bc1602e83613e86565b9150614bcc82614b65565b604082019050919050565b60006020820190508181036000830152614bf081614bb4565b9050919050565b6000614c0282613ad5565b9150614c0d83613ad5565b9250817fffffffffffffffffffffffffffffffffffffffffffffffffffffffffffffffff0483118215151615614c4657614c45613e01565b5b828202905092915050565b7f4e487b7100000000000000000000000000000000000000000000000000000000600052603260045260246000fd5b6000614c8b82613ad5565b91507fffffffffffffffffffffffffffffffffffffffffffffffffffffffffffffffff821415614cbe57614cbd613e01565b5b600182019050919050565b7f4e487b7100000000000000000000000000000000000000000000000000000000600052601260045260246000fd5b6000614d0382613ad5565b9150614d0e83613ad5565b925082614d1e57614d1d614cc9565b5b828204905092915050565b6000614d3482613ad5565b9150614d3f83613ad5565b925082614d4f57614d4e614cc9565b5b828206905092915050565b600060a082019050614d6f6000830188613b75565b614d7c6020830187613b4b565b614d896040830186613b75565b614d966060830185613b4b565b614da36080830184613b4b565b969550505050505056fea2646970667358221220be80bc53ce2c7121a5215abf822df72ac296ab56f9de3c04bdc0e27354cc0c6564736f6c634300080b0033",
  "immutableReferences": {},
  "source": "pragma solidity ^0.8.0;\n\nimport \"@openzeppelin/contracts-upgradeable/proxy/utils/Initializable.sol\";\nimport \"./ERC721/token/ERC20/IERC20.sol\";\nimport \"./ERC721/token/ERC721/IERC721.sol\";\nimport \"./ERC721/utils/Address.sol\";\nimport \"./ERC721/utils/math/SafeMath.sol\";\n\n// Sablier is abstract class originally\n// contract Sablier {\n//   function createSalary(address recipient, uint256 deposit, address tokenAddress, uint256 startTime, uint256 stopTime) public returns(uint256);\n//   function cancelSalary(uint256 salaryId) public returns (bool);\n//   function getSalary(uint256 salaryId) public view returns (\n//     address company,\n//     address employee,\n//     uint256 salary,\n//     address tokenAddress,\n//     uint256 startTime,\n//     uint256 stopTime,\n//     uint256 remainingBalance,\n//     uint256 rate\n//   );\n// }\ncontract Sablier {\n  function createSalary(address recipient, uint256 deposit, address tokenAddress, uint256 startTime, uint256 stopTime) public returns(uint256) {}\n  function cancelSalary(uint256 salaryId) public returns (bool) {}\n  function getSalary(uint256 salaryId) public view returns (\n    address company,\n    address employee,\n    uint256 salary,\n    address tokenAddress,\n    uint256 startTime,\n    uint256 stopTime,\n    uint256 remainingBalance,\n    uint256 rate\n  ) {}\n}\n\ncontract ERC721Lending is Initializable {\n  address public acceptedPayTokenAddress;\n\n  struct ERC721ForLend {\n    uint256 durationHours;\n    uint256 initialWorth;\n    uint256 earningGoal;\n    uint256 borrowedAtTimestamp;\n    address lender;\n    address borrower;\n    bool lenderClaimedCollateral;\n    uint256 sablierSalaryId;\n    uint256 platformFeesPercent;\n  }\n\n  // V1 mapping\n  mapping(address => mapping(uint256 => ERC721ForLend)) public lentERC721List;\n\n  struct ERC721TokenEntry {\n    address lenderAddress;\n    address tokenAddress;\n    uint256 tokenId;\n  }\n\n  ERC721TokenEntry[] public lendersWithTokens;\n\n  event ERC721ForLendUpdated(address tokenAddress, uint256 tokenId);\n  event ERC721ForLendRemoved(address tokenAddress, uint256 tokenId);\n\n  address public sablierContractAddress;\n\n  // V2, token address -> token id -> owner (lender) address -> lending details\n  mapping(address => mapping(uint256 => mapping(address => ERC721ForLend))) public lendingPool;\n\n  // Note: version helper for migrations\n  uint256 migrateVersion;\n\n  address public feesContractAddress;\n\n  event ERC721ForLendUpdatedV2(address lenderAddress, address tokenAddress, uint256 tokenId);\n  event ERC721ForLendRemovedV2(address lenderAddress, address tokenAddress, uint256 tokenId);\n\n  function initialize(address tokenAddress) public initializer {\n    acceptedPayTokenAddress = tokenAddress;\n  }\n\n  function setSablierContractAddress(address contractAddress) public {\n    require(sablierContractAddress == address(0), 'Sablier contract address already set');\n    sablierContractAddress = contractAddress;\n  }\n\n  function setFeesContractAddress(address contractAddress) public {\n    require(feesContractAddress == address(0), 'Fees contract address already set');\n    feesContractAddress = contractAddress;\n  }\n\n  function setLendSettings(address tokenAddress, uint256 tokenId, uint256 durationHours, uint256 initialWorth, uint256 earningGoal) public {\n    require(initialWorth > 0, 'Lending: Initial token worth must be above 0');\n    require(earningGoal > 0, 'Lending: Earning goal must be above 0');\n    require(durationHours > 0, 'Lending: Lending duration must be above 0');\n    require(lentERC721List[tokenAddress][tokenId].borrower == address(0), 'Lending: Cannot change settings, token already lent');\n    require(lentERC721List[tokenAddress][tokenId].lenderClaimedCollateral == false, 'Lending: Collateral already claimed');\n\n    // assuming token transfer is approved\n    IERC721(tokenAddress).transferFrom(msg.sender, address(this), tokenId);\n\n    lentERC721List[tokenAddress][tokenId] = ERC721ForLend(durationHours, initialWorth, earningGoal, 0, msg.sender, address(0), false, 0, 0);\n\n    lendersWithTokens.push(ERC721TokenEntry(msg.sender, tokenAddress, tokenId));\n\n    emit ERC721ForLendUpdated(tokenAddress, tokenId);\n  }\n\n  function startBorrowing(address tokenAddress, uint256 tokenId) public {\n    require(lentERC721List[tokenAddress][tokenId].borrower == address(0), 'Borrowing: Already lent');\n    require(lentERC721List[tokenAddress][tokenId].earningGoal > 0, 'Borrowing: Lender did not set earning goal yet');\n    require(lentERC721List[tokenAddress][tokenId].initialWorth > 0, 'Borrowing: Lender did not set initial worth yet');\n\n    IERC20 _payToken = IERC20(acceptedPayTokenAddress);\n    uint256 _requiredSum = calculateLendSum(tokenAddress, tokenId);\n    uint256 _allowedCollateral = _payToken.allowance(msg.sender, address(this));\n    require(_allowedCollateral >= _requiredSum, 'Borrowing: Not enough collateral received');\n\n    IERC20(acceptedPayTokenAddress).transferFrom(msg.sender, address(this), _requiredSum);\n\n    // check if needs approval as some tokens fail due this\n    (bool success,) = tokenAddress.call(abi.encodeWithSignature(\n        \"approve(address,uint256)\",\n        address(this),\n        tokenId\n      ));\n    if (success) {\n      IERC721(tokenAddress).approve(address(this), tokenId);\n    }\n    IERC721(tokenAddress).transferFrom(address(this), msg.sender, tokenId);\n\n    lentERC721List[tokenAddress][tokenId].borrower = msg.sender;\n    lentERC721List[tokenAddress][tokenId].borrowedAtTimestamp = block.timestamp;\n\n    // check if sablier address set and setup salary\n    createSalaryIfPossible(tokenAddress, tokenId);\n\n    emit ERC721ForLendUpdated(tokenAddress, tokenId);\n  }\n\n  function stopBorrowing(address tokenAddress, uint256 tokenId) public {\n    address _borrower = lentERC721List[tokenAddress][tokenId].borrower;\n    require(_borrower == msg.sender, 'Borrowing: Can be stopped only by active borrower');\n\n    if (lentERC721List[tokenAddress][tokenId].lenderClaimedCollateral == false) {\n      // assuming token transfer is approved\n      IERC721(tokenAddress).transferFrom(msg.sender, address(this), tokenId);\n\n      uint256 _initialWorth = lentERC721List[tokenAddress][tokenId].initialWorth;\n\n      IERC20(acceptedPayTokenAddress).transfer(_borrower, _initialWorth);\n\n      lentERC721List[tokenAddress][tokenId].borrower = address(0);\n      lentERC721List[tokenAddress][tokenId].borrowedAtTimestamp = 0;\n\n      address lenderAddress = lentERC721List[tokenAddress][tokenId].lender;\n\n      uint256 _sablierSalaryId = lentERC721List[tokenAddress][tokenId].sablierSalaryId;\n      if (_sablierSalaryId != 0) {\n        // get balance that is not streamed during period, it will be returned to borrower\n        (\n        ,\n        ,\n        uint256 _streamSalaryAmount,\n        ,\n        uint256 _streamStartTime,\n        uint256 _streamStopTime,\n        ,\n        uint256 _streamRatePerSecond\n        ) = Sablier(sablierContractAddress).getSalary(_sablierSalaryId);\n\n        int256 _balanceNotStreamed = 0;\n        // now = block.timestamp\n        if (block.timestamp < _streamStopTime) {\n          _balanceNotStreamed = int256(_streamSalaryAmount) - int256(SafeMath.mul(block.timestamp - _streamStartTime, _streamRatePerSecond));\n        }\n\n        // cancel salary to lender if sablier salary exists\n        Sablier(sablierContractAddress).cancelSalary(_sablierSalaryId);\n        lentERC721List[tokenAddress][tokenId].sablierSalaryId = 0;\n\n        // check if lending entry has fees\n        uint256 _platformFeeToCollect = 0;\n        uint256 _feesPercent = lentERC721List[tokenAddress][tokenId].platformFeesPercent;\n        if (_feesPercent > 0) {\n          _platformFeeToCollect = SafeMath.mul(SafeMath.div(_streamSalaryAmount, 100), _feesPercent);\n        }\n\n        if (_balanceNotStreamed > 0) {\n          // check if lending has fees\n          if (_platformFeeToCollect > 0) {\n            // lending did not go through full period, fees percent will be lower, lets refund to lender\n            uint256 _actualSalaryLenderReceives = SafeMath.sub(_streamSalaryAmount, uint256(_balanceNotStreamed));\n            uint256 _platformFeeToCollectUpdated = SafeMath.mul(SafeMath.div(_actualSalaryLenderReceives, 100), _feesPercent);\n            uint256 _platformFeeToRefund = SafeMath.sub(_platformFeeToCollect, _platformFeeToCollectUpdated);\n            _platformFeeToCollect =_platformFeeToCollectUpdated;\n            IERC20(acceptedPayTokenAddress).transfer(lenderAddress, uint256(_platformFeeToRefund));\n          }\n\n          // return unstreamed balance to borrower\n          IERC20(acceptedPayTokenAddress).transfer(_borrower, uint256(_balanceNotStreamed));\n        }\n\n        // check if fees collecting address set and lending has fees\n        if (feesContractAddress != address(0) && _platformFeeToCollect > 0) {\n          IERC20(acceptedPayTokenAddress).transfer(feesContractAddress, _platformFeeToCollect);\n        }\n      } else {\n        // legacy: send lender his interest\n        uint256 _earningGoal = lentERC721List[tokenAddress][tokenId].earningGoal;\n        IERC20(acceptedPayTokenAddress).transfer(lenderAddress, _earningGoal);\n      }\n    } else {\n      // lender claimed collateral, this is borrower's last call, let's reset everything\n      lentERC721List[tokenAddress][tokenId] = ERC721ForLend(0, 0, 0, 0, address(0), address(0), false, 0, 0); // reset details\n    }\n\n    emit ERC721ForLendUpdated(tokenAddress, tokenId);\n  }\n\n  function calculateLendSum(address tokenAddress, uint256 tokenId) public view returns(uint256) {\n    uint256 _earningGoal = lentERC721List[tokenAddress][tokenId].earningGoal;\n    uint256 _initialWorth = lentERC721List[tokenAddress][tokenId].initialWorth;\n    return _initialWorth + _earningGoal;\n  }\n\n  function isDurationExpired(uint256 borrowedAtTimestamp, uint256 durationHours) public view returns(bool) {\n    uint256 secondsPassed = block.timestamp - borrowedAtTimestamp;\n    uint256 hoursPassed = secondsPassed * 60 * 60;\n    return hoursPassed > durationHours;\n  }\n\n  function removeFromLendersWithTokens(address tokenAddress, uint256 tokenId) internal {\n    // reset lenders to sent token mapping, swap with last element to fill the gap\n    uint totalCount = lendersWithTokens.length;\n    if (totalCount > 1) {\n      for (uint i = 0; i<totalCount; i++) {\n        ERC721TokenEntry memory tokenEntry = lendersWithTokens[i];\n        if (tokenEntry.lenderAddress == msg.sender && tokenEntry.tokenAddress == tokenAddress && tokenEntry.tokenId == tokenId) {\n          lendersWithTokens[i] = lendersWithTokens[totalCount-1]; // insert last from array\n        }\n      }\n      // lendersWithTokens.length--; deleted josh\n    } else {\n      delete lendersWithTokens[0];\n    }\n  }\n\n  function createSalaryIfPossible(address tokenAddress, uint256 tokenId) internal {\n    if (sablierContractAddress != address(0)) {\n      uint256 _salaryStartTime = block.timestamp + 60;\n      uint256 _salaryStopTime = _salaryStartTime + (lentERC721List[tokenAddress][tokenId].durationHours * 3600);\n      uint256 _actualSalaryAmount = lentERC721List[tokenAddress][tokenId].earningGoal;\n\n      // set platform fees percent for borrowed entry\n      // v1.1\n//      uint256 _feesPercent = 5;\n//      lentERC721List[tokenAddress][tokenId].platformFeesPercent = _feesPercent;\n\n      // reserve fees percent from salary\n//      uint256 _actualSalaryAmountAfterPlatformFees = SafeMath.sub(\n//        _actualSalaryAmount,\n//        SafeMath.mul(SafeMath.div(_actualSalaryAmount, 100), _feesPercent)\n//      );\n\n      // per Sablier docs  deposit amount must be divided by the time delta\n      // and then the remainder subtracted from the initial deposit number\n      uint256 _timeDelta = _salaryStopTime - _salaryStartTime;\n      uint256 _salaryAmount = _actualSalaryAmount - (_actualSalaryAmount % _timeDelta);\n\n      // approve amount for Sablier contract usage\n      IERC20(acceptedPayTokenAddress).approve(sablierContractAddress, _salaryAmount);\n\n      // the salary id is needed later to withdraw from or cancel the salary\n      uint256 _sablierSalaryId = Sablier(sablierContractAddress).createSalary(\n        lentERC721List[tokenAddress][tokenId].lender,\n        _salaryAmount,\n        acceptedPayTokenAddress,\n        _salaryStartTime,\n        _salaryStopTime\n      );\n\n      lentERC721List[tokenAddress][tokenId].sablierSalaryId = _sablierSalaryId;\n    }\n  }\n\n  function removeFromLending(address tokenAddress, uint256 tokenId) public {\n    require(lentERC721List[tokenAddress][tokenId].lender == msg.sender, 'Claim: Cannot claim not owned lend');\n\n    require(lentERC721List[tokenAddress][tokenId].borrower == address(0), 'Lending: Cannot cancel if lent');\n    require(lentERC721List[tokenAddress][tokenId].lenderClaimedCollateral == false, 'Lending: Collateral claimed');\n\n    // check if needs approval as some tokens fail due this\n    (bool success,) = tokenAddress.call(abi.encodeWithSignature(\n        \"approve(address,uint256)\",\n        address(this),\n        tokenId\n      ));\n    if (success) {\n      IERC721(tokenAddress).approve(address(this), tokenId);\n    }\n    IERC721(tokenAddress).transferFrom(address(this), msg.sender, tokenId);\n\n    lentERC721List[tokenAddress][tokenId] = ERC721ForLend(0, 0, 0, 0, address(0), address(0), false, 0, 0); // reset details\n\n    // reset lenders to sent token mapping, swap with last element to fill the gap\n    removeFromLendersWithTokens(tokenAddress, tokenId);\n\n    emit ERC721ForLendRemoved(tokenAddress, tokenId);\n  }\n\n  function claimBorrowerCollateral(address tokenAddress, uint256 tokenId) public {\n    require(lentERC721List[tokenAddress][tokenId].borrower != address(0), 'Claim: Cannot claim if stopped');\n    require(lentERC721List[tokenAddress][tokenId].lender == msg.sender, 'Claim: Cannot claim not owned lend');\n\n    uint256 _borrowedAtTimestamp = lentERC721List[tokenAddress][tokenId].borrowedAtTimestamp;\n    uint256 _durationHours = lentERC721List[tokenAddress][tokenId].durationHours;\n    require(isDurationExpired(_borrowedAtTimestamp, _durationHours), 'Claim: Cannot claim before lending expired');\n\n    require(lentERC721List[tokenAddress][tokenId].lenderClaimedCollateral == false, 'Claim: Already claimed');\n\n    lentERC721List[tokenAddress][tokenId].lenderClaimedCollateral = true;\n\n    uint256 _sablierSalaryId = lentERC721List[tokenAddress][tokenId].sablierSalaryId;\n    if (_sablierSalaryId != 0) {\n      // get salary amount to send to fees collector address\n      (,, uint256 _streamSalaryAmount,,,,,) = Sablier(sablierContractAddress).getSalary(_sablierSalaryId);\n\n      // if salary exists cancel salary and send only initial worth collateral amount\n      IERC20(acceptedPayTokenAddress).transfer(msg.sender, lentERC721List[tokenAddress][tokenId].initialWorth);\n      Sablier(sablierContractAddress).cancelSalary(_sablierSalaryId);\n      lentERC721List[tokenAddress][tokenId].sablierSalaryId = 0;\n\n      // check if lending entry has fees\n      uint256 _feesPercent = lentERC721List[tokenAddress][tokenId].platformFeesPercent;\n      if (feesContractAddress != address(0) && _feesPercent > 0) {\n        // send collected fees to collecting contract address\n        uint256 _platformFeeToCollect = SafeMath.mul(SafeMath.div(_streamSalaryAmount, 100), _feesPercent);\n        IERC20(acceptedPayTokenAddress).transfer(feesContractAddress, _platformFeeToCollect);\n      }\n    } else {\n      // legacy: send interest and collateral sum amount\n      uint256 _collateralSum = calculateLendSum(tokenAddress, tokenId);\n      IERC20(acceptedPayTokenAddress).transfer(msg.sender, _collateralSum);\n    }\n\n    // reset lenders to sent token mapping, swap with last element to fill the gap\n    removeFromLendersWithTokens(tokenAddress, tokenId);\n\n    emit ERC721ForLendUpdated(tokenAddress, tokenId);\n  }\n\n  function isValidNFT(address tokenAddress, uint256 tokenId) public view returns(bool) {\n    // no owner is most likely burnt NFT\n    return IERC721(tokenAddress).ownerOf(tokenId) != address(0);\n  }\n}\n",
  "sourcePath": "D:\\03.block-chain\\01.miquelTC__nft-marketplace\\test-proj\\nft-marketplace-master\\src\\contracts\\ERC721Lending.sol",
  "compiler": {
    "name": "solc",
    "version": "0.8.11+commit.d7f03943.Emscripten.clang"
  },
  "schemaVersion": "3.4.4",
  "updatedAt": "2022-02-14T12:43:15.326Z",
  "devdoc": {
    "kind": "dev",
    "methods": {},
    "version": 1
  },
  "userdoc": {
    "kind": "user",
    "methods": {},
    "version": 1
  }
}