{
  "contractName": "NFTCrator",
  "abi": [
    {
      "inputs": [
        {
          "internalType": "address",
          "name": "_nftCollection",
          "type": "address"
        }
      ],
      "stateMutability": "nonpayable",
      "type": "constructor"
    },
    {
      "anonymous": false,
      "inputs": [
        {
          "indexed": true,
          "internalType": "uint256",
          "name": "itemId",
          "type": "uint256"
        },
        {
          "indexed": true,
          "internalType": "uint256",
          "name": "tokenId",
          "type": "uint256"
        },
        {
          "indexed": false,
          "internalType": "address",
          "name": "seller",
          "type": "address"
        },
        {
          "indexed": false,
          "internalType": "address",
          "name": "owner",
          "type": "address"
        },
        {
          "indexed": false,
          "internalType": "uint256",
          "name": "price",
          "type": "uint256"
        },
        {
          "indexed": false,
          "internalType": "bool",
          "name": "sold",
          "type": "bool"
        }
      ],
      "name": "CratorItemCreated",
      "type": "event"
    },
    {
      "inputs": [],
      "name": "cratorCount",
      "outputs": [
        {
          "internalType": "uint256",
          "name": "",
          "type": "uint256"
        }
      ],
      "stateMutability": "view",
      "type": "function"
    },
    {
      "inputs": [
        {
          "internalType": "uint256",
          "name": "tokenId",
          "type": "uint256"
        },
        {
          "internalType": "uint256",
          "name": "price",
          "type": "uint256"
        }
      ],
      "name": "createCratorItem",
      "outputs": [],
      "stateMutability": "payable",
      "type": "function"
    },
    {
      "inputs": [
        {
          "internalType": "uint256",
          "name": "itemId",
          "type": "uint256"
        }
      ],
      "name": "createCratorSale",
      "outputs": [],
      "stateMutability": "payable",
      "type": "function"
    },
    {
      "inputs": [],
      "name": "fetchCratorItems",
      "outputs": [
        {
          "components": [
            {
              "internalType": "uint256",
              "name": "itemId",
              "type": "uint256"
            },
            {
              "internalType": "uint256",
              "name": "tokenId",
              "type": "uint256"
            },
            {
              "internalType": "address payable",
              "name": "seller",
              "type": "address"
            },
            {
              "internalType": "address payable",
              "name": "owner",
              "type": "address"
            },
            {
              "internalType": "uint256",
              "name": "price",
              "type": "uint256"
            },
            {
              "internalType": "bool",
              "name": "sold",
              "type": "bool"
            }
          ],
          "internalType": "struct NFTCrator.CratorItem[]",
          "name": "",
          "type": "tuple[]"
        }
      ],
      "stateMutability": "view",
      "type": "function"
    },
    {
      "inputs": [],
      "name": "fetchMyNFTs",
      "outputs": [
        {
          "components": [
            {
              "internalType": "uint256",
              "name": "itemId",
              "type": "uint256"
            },
            {
              "internalType": "uint256",
              "name": "tokenId",
              "type": "uint256"
            },
            {
              "internalType": "address payable",
              "name": "seller",
              "type": "address"
            },
            {
              "internalType": "address payable",
              "name": "owner",
              "type": "address"
            },
            {
              "internalType": "uint256",
              "name": "price",
              "type": "uint256"
            },
            {
              "internalType": "bool",
              "name": "sold",
              "type": "bool"
            }
          ],
          "internalType": "struct NFTCrator.CratorItem[]",
          "name": "",
          "type": "tuple[]"
        }
      ],
      "stateMutability": "view",
      "type": "function"
    },
    {
      "inputs": [],
      "name": "fetchItemsCreated",
      "outputs": [
        {
          "components": [
            {
              "internalType": "uint256",
              "name": "itemId",
              "type": "uint256"
            },
            {
              "internalType": "uint256",
              "name": "tokenId",
              "type": "uint256"
            },
            {
              "internalType": "address payable",
              "name": "seller",
              "type": "address"
            },
            {
              "internalType": "address payable",
              "name": "owner",
              "type": "address"
            },
            {
              "internalType": "uint256",
              "name": "price",
              "type": "uint256"
            },
            {
              "internalType": "bool",
              "name": "sold",
              "type": "bool"
            }
          ],
          "internalType": "struct NFTCrator.CratorItem[]",
          "name": "",
          "type": "tuple[]"
        }
      ],
      "stateMutability": "view",
      "type": "function"
    }
  ],
  "bytecode": "0x60806040526658d15e176280006033553480156200001c57600080fd5b5060405162001821380380620018218339818101604052810190620000429190620000f4565b80603460006101000a81548173ffffffffffffffffffffffffffffffffffffffff021916908373ffffffffffffffffffffffffffffffffffffffff1602179055505062000126565b600080fd5b600073ffffffffffffffffffffffffffffffffffffffff82169050919050565b6000620000bc826200008f565b9050919050565b620000ce81620000af565b8114620000da57600080fd5b50565b600081519050620000ee81620000c3565b92915050565b6000602082840312156200010d576200010c6200008a565b5b60006200011d84828501620000dd565b91505092915050565b6116eb80620001366000396000f3fe6080604052600436106100555760003560e01c8063202e37401461005a578063576a06cd14610085578063840a5912146100a1578063a2bf6d1f146100bd578063e0aaead7146100e8578063f064c32e14610113575b600080fd5b34801561006657600080fd5b5061006f61013e565b60405161007c91906111b2565b60405180910390f35b61009f600480360381019061009a9190611205565b610436565b005b6100bb60048036038101906100b69190611232565b61070f565b005b3480156100c957600080fd5b506100d2610a19565b6040516100df91906111b2565b60405180910390f35b3480156100f457600080fd5b506100fd610c8d565b60405161010a9190611281565b60405180910390f35b34801561011f57600080fd5b50610128610c93565b60405161013591906111b2565b60405180910390f35b6060600061014c6035610f8b565b905060008060005b838110156101f5573373ffffffffffffffffffffffffffffffffffffffff166039600060018461018491906112cb565b815260200190815260200160002060030160009054906101000a900473ffffffffffffffffffffffffffffffffffffffff1673ffffffffffffffffffffffffffffffffffffffff1614156101e2576001836101df91906112cb565b92505b80806101ed90611321565b915050610154565b5060008267ffffffffffffffff8111156102125761021161136a565b5b60405190808252806020026020018201604052801561024b57816020015b610238610faf565b8152602001906001900390816102305790505b50905060005b8481101561042b573373ffffffffffffffffffffffffffffffffffffffff166039600060018461028191906112cb565b815260200190815260200160002060030160009054906101000a900473ffffffffffffffffffffffffffffffffffffffff1673ffffffffffffffffffffffffffffffffffffffff1614156104185760006001826102de91906112cb565b90506000603960008381526020019081526020016000209050806040518060c001604052908160008201548152602001600182015481526020016002820160009054906101000a900473ffffffffffffffffffffffffffffffffffffffff1673ffffffffffffffffffffffffffffffffffffffff1673ffffffffffffffffffffffffffffffffffffffff1681526020016003820160009054906101000a900473ffffffffffffffffffffffffffffffffffffffff1673ffffffffffffffffffffffffffffffffffffffff1673ffffffffffffffffffffffffffffffffffffffff168152602001600482015481526020016005820160009054906101000a900460ff1615151515815250508486815181106103fb576103fa611399565b5b602002602001018190525060018561041391906112cb565b945050505b808061042390611321565b915050610251565b508094505050505090565b6002600154141561047c576040517f08c379a000000000000000000000000000000000000000000000000000000000815260040161047390611425565b60405180910390fd5b60026001819055506000603960008381526020019081526020016000206004015490506000603960008481526020019081526020016000206001015490508134146104fc576040517f08c379a00000000000000000000000000000000000000000000000000000000081526004016104f3906114b7565b60405180910390fd5b6039600084815260200190815260200160002060020160009054906101000a900473ffffffffffffffffffffffffffffffffffffffff1673ffffffffffffffffffffffffffffffffffffffff166108fc349081150290604051600060405180830381858888f19350505050158015610578573d6000803e3d6000fd5b50603460009054906101000a900473ffffffffffffffffffffffffffffffffffffffff1673ffffffffffffffffffffffffffffffffffffffff166323b872dd3033846040518463ffffffff1660e01b81526004016105d8939291906114f8565b600060405180830381600087803b1580156105f257600080fd5b505af1158015610606573d6000803e3d6000fd5b50505050336039600085815260200190815260200160002060030160006101000a81548173ffffffffffffffffffffffffffffffffffffffff021916908373ffffffffffffffffffffffffffffffffffffffff16021790555060016039600085815260200190815260200160002060050160006101000a81548160ff0219169083151502179055506106986036610f99565b603860009054906101000a900473ffffffffffffffffffffffffffffffffffffffff1673ffffffffffffffffffffffffffffffffffffffff166108fc6033549081150290604051600060405180830381858888f19350505050158015610702573d6000803e3d6000fd5b5050506001808190555050565b60026001541415610755576040517f08c379a000000000000000000000000000000000000000000000000000000000815260040161074c90611425565b60405180910390fd5b6002600181905550600081116107a0576040517f08c379a00000000000000000000000000000000000000000000000000000000081526004016107979061157b565b60405180910390fd5b60335434146107e4576040517f08c379a00000000000000000000000000000000000000000000000000000000081526004016107db9061160d565b60405180910390fd5b6107ee6035610f99565b60006107fa6035610f8b565b90506040518060c001604052808281526020018481526020013373ffffffffffffffffffffffffffffffffffffffff168152602001600073ffffffffffffffffffffffffffffffffffffffff1681526020018381526020016000151581525060396000838152602001908152602001600020600082015181600001556020820151816001015560408201518160020160006101000a81548173ffffffffffffffffffffffffffffffffffffffff021916908373ffffffffffffffffffffffffffffffffffffffff16021790555060608201518160030160006101000a81548173ffffffffffffffffffffffffffffffffffffffff021916908373ffffffffffffffffffffffffffffffffffffffff1602179055506080820151816004015560a08201518160050160006101000a81548160ff021916908315150217905550905050603460009054906101000a900473ffffffffffffffffffffffffffffffffffffffff1673ffffffffffffffffffffffffffffffffffffffff166323b872dd3330866040518463ffffffff1660e01b815260040161099a939291906114f8565b600060405180830381600087803b1580156109b457600080fd5b505af11580156109c8573d6000803e3d6000fd5b5050505082817f173d8d5476762e50de40b4aa8f5752e6eb232253ee213be830462bb1d6c293c5336000866000604051610a05949392919061163c565b60405180910390a350600180819055505050565b60606000610a276035610f8b565b90506000610a356036610f8b565b610a3f6035610f8b565b610a499190611681565b90506000808267ffffffffffffffff811115610a6857610a6761136a565b5b604051908082528060200260200182016040528015610aa157816020015b610a8e610faf565b815260200190600190039081610a865790505b50905060005b84811015610c8257600073ffffffffffffffffffffffffffffffffffffffff1660396000600184610ad891906112cb565b815260200190815260200160002060030160009054906101000a900473ffffffffffffffffffffffffffffffffffffffff1673ffffffffffffffffffffffffffffffffffffffff161415610c6f576000600182610b3591906112cb565b90506000603960008381526020019081526020016000209050806040518060c001604052908160008201548152602001600182015481526020016002820160009054906101000a900473ffffffffffffffffffffffffffffffffffffffff1673ffffffffffffffffffffffffffffffffffffffff1673ffffffffffffffffffffffffffffffffffffffff1681526020016003820160009054906101000a900473ffffffffffffffffffffffffffffffffffffffff1673ffffffffffffffffffffffffffffffffffffffff1673ffffffffffffffffffffffffffffffffffffffff168152602001600482015481526020016005820160009054906101000a900460ff161515151581525050848681518110610c5257610c51611399565b5b6020026020010181905250600185610c6a91906112cb565b945050505b8080610c7a90611321565b915050610aa7565b508094505050505090565b60375481565b60606000610ca16035610f8b565b905060008060005b83811015610d4a573373ffffffffffffffffffffffffffffffffffffffff1660396000600184610cd991906112cb565b815260200190815260200160002060020160009054906101000a900473ffffffffffffffffffffffffffffffffffffffff1673ffffffffffffffffffffffffffffffffffffffff161415610d3757600183610d3491906112cb565b92505b8080610d4290611321565b915050610ca9565b5060008267ffffffffffffffff811115610d6757610d6661136a565b5b604051908082528060200260200182016040528015610da057816020015b610d8d610faf565b815260200190600190039081610d855790505b50905060005b84811015610f80573373ffffffffffffffffffffffffffffffffffffffff1660396000600184610dd691906112cb565b815260200190815260200160002060020160009054906101000a900473ffffffffffffffffffffffffffffffffffffffff1673ffffffffffffffffffffffffffffffffffffffff161415610f6d576000600182610e3391906112cb565b90506000603960008381526020019081526020016000209050806040518060c001604052908160008201548152602001600182015481526020016002820160009054906101000a900473ffffffffffffffffffffffffffffffffffffffff1673ffffffffffffffffffffffffffffffffffffffff1673ffffffffffffffffffffffffffffffffffffffff1681526020016003820160009054906101000a900473ffffffffffffffffffffffffffffffffffffffff1673ffffffffffffffffffffffffffffffffffffffff1673ffffffffffffffffffffffffffffffffffffffff168152602001600482015481526020016005820160009054906101000a900460ff161515151581525050848681518110610f5057610f4f611399565b5b6020026020010181905250600185610f6891906112cb565b945050505b8080610f7890611321565b915050610da6565b508094505050505090565b600081600001549050919050565b6001816000016000828254019250508190555050565b6040518060c001604052806000815260200160008152602001600073ffffffffffffffffffffffffffffffffffffffff168152602001600073ffffffffffffffffffffffffffffffffffffffff168152602001600081526020016000151581525090565b600081519050919050565b600082825260208201905092915050565b6000819050602082019050919050565b6000819050919050565b6110528161103f565b82525050565b600073ffffffffffffffffffffffffffffffffffffffff82169050919050565b600061108382611058565b9050919050565b61109381611078565b82525050565b60008115159050919050565b6110ae81611099565b82525050565b60c0820160008201516110ca6000850182611049565b5060208201516110dd6020850182611049565b5060408201516110f0604085018261108a565b506060820151611103606085018261108a565b5060808201516111166080850182611049565b5060a082015161112960a08501826110a5565b50505050565b600061113b83836110b4565b60c08301905092915050565b6000602082019050919050565b600061115f82611013565b611169818561101e565b93506111748361102f565b8060005b838110156111a557815161118c888261112f565b975061119783611147565b925050600181019050611178565b5085935050505092915050565b600060208201905081810360008301526111cc8184611154565b905092915050565b600080fd5b6111e28161103f565b81146111ed57600080fd5b50565b6000813590506111ff816111d9565b92915050565b60006020828403121561121b5761121a6111d4565b5b6000611229848285016111f0565b91505092915050565b60008060408385031215611249576112486111d4565b5b6000611257858286016111f0565b9250506020611268858286016111f0565b9150509250929050565b61127b8161103f565b82525050565b60006020820190506112966000830184611272565b92915050565b7f4e487b7100000000000000000000000000000000000000000000000000000000600052601160045260246000fd5b60006112d68261103f565b91506112e18361103f565b9250827fffffffffffffffffffffffffffffffffffffffffffffffffffffffffffffffff038211156113165761131561129c565b5b828201905092915050565b600061132c8261103f565b91507fffffffffffffffffffffffffffffffffffffffffffffffffffffffffffffffff82141561135f5761135e61129c565b5b600182019050919050565b7f4e487b7100000000000000000000000000000000000000000000000000000000600052604160045260246000fd5b7f4e487b7100000000000000000000000000000000000000000000000000000000600052603260045260246000fd5b600082825260208201905092915050565b7f5265656e7472616e637947756172643a207265656e7472616e742063616c6c00600082015250565b600061140f601f836113c8565b915061141a826113d9565b602082019050919050565b6000602082019050818103600083015261143e81611402565b9050919050565b7f506c65617365207375626d6974207468652061736b696e67207072696365206960008201527f6e206f7264657220746f20636f6d706c65746520746865207075726368617365602082015250565b60006114a16040836113c8565b91506114ac82611445565b604082019050919050565b600060208201905081810360008301526114d081611494565b9050919050565b60006114e282611058565b9050919050565b6114f2816114d7565b82525050565b600060608201905061150d60008301866114e9565b61151a60208301856114e9565b6115276040830184611272565b949350505050565b7f5072696365206d757374206265206174206c6561737420312077656900000000600082015250565b6000611565601c836113c8565b91506115708261152f565b602082019050919050565b6000602082019050818103600083015261159481611558565b9050919050565b7f5072696365206d75737420626520657175616c20746f206c697374696e67207060008201527f7269636500000000000000000000000000000000000000000000000000000000602082015250565b60006115f76024836113c8565b91506116028261159b565b604082019050919050565b60006020820190508181036000830152611626816115ea565b9050919050565b61163681611099565b82525050565b600060808201905061165160008301876114e9565b61165e60208301866114e9565b61166b6040830185611272565b611678606083018461162d565b95945050505050565b600061168c8261103f565b91506116978361103f565b9250828210156116aa576116a961129c565b5b82820390509291505056fea2646970667358221220fa53a2c23dc3e9891c8474cc4c38bf8b49930339d9fc8c3284984a714ffec67b64736f6c634300080b0033",
  "immutableReferences": {},
  "source": "// SPDX-License-Identifier: MIT\r\npragma solidity ^0.8.0;\r\n\r\nimport \"./NFTCollection.sol\";\r\nimport \"@openzeppelin/contracts/utils/Counters.sol\";\r\nimport \"@openzeppelin/contracts-upgradeable/security/ReentrancyGuardUpgradeable.sol\";\r\n\r\ncontract NFTCrator is ReentrancyGuardUpgradeable {\r\n  uint256 listingPrice = 0.025 ether; // minimum price, change for what you want\r\n  NFTCollection nftContract;\r\n\r\n  using Counters for Counters.Counter;\r\n  Counters.Counter private _items;\r\n  Counters.Counter private _soldItems;\r\n\r\n\r\n  uint      public cratorCount;\r\n  address   payable owner;\r\n\r\n  // interface to marketplace item\r\n    struct CratorItem {\r\n        uint256 itemId;\r\n        // address nftContract;\r\n        uint256 tokenId;\r\n        address payable seller;\r\n        address payable owner;\r\n        uint256 price;\r\n        bool sold;\r\n    }\r\n    mapping(uint256 => CratorItem) private idToCratorItem;\r\n\r\n    // declare a event for when a item is created on marketplace\r\n    event CratorItemCreated(\r\n        uint256 indexed itemId,\r\n        // /* address indexed nftContract, */\r\n        uint256 indexed tokenId,\r\n        address seller,\r\n        address owner,\r\n        uint256 price,\r\n        bool sold\r\n    );\r\n\r\n    constructor(address _nftCollection) {\r\n        // owner = payable(msg.sender);\r\n        nftContract = NFTCollection(_nftCollection);\r\n    }\r\n\r\n\r\n    // places an item for sale on the marketplace\r\n    function createCratorItem(\r\n        // address nftContract,\r\n        uint256 tokenId,\r\n        uint256 price\r\n    ) public payable nonReentrant {\r\n        require(price > 0, \"Price must be at least 1 wei\");\r\n        require(\r\n            msg.value == listingPrice,\r\n            \"Price must be equal to listing price\"\r\n        );\r\n\r\n        _items.increment();\r\n        uint256 itemId = _items.current();\r\n\r\n        idToCratorItem[itemId] = CratorItem(\r\n            itemId,                     //item registerd id\r\n            // nftContract,                //nftContract       -- \r\n            tokenId,                    //nft item token    --\r\n            payable(msg.sender),        //seller\r\n            payable(address(0)),        //owner\r\n            price,                      //                  --\r\n            false\r\n        );\r\n\r\n        //IERC721(nftContract).transferFrom(msg.sender, address(this), tokenId);\r\n        nftContract.transferFrom(msg.sender, address(this), tokenId);\r\n\r\n        emit CratorItemCreated(\r\n            itemId,\r\n            // nftContract,\r\n            tokenId,\r\n            msg.sender,\r\n            address(0),\r\n            price,\r\n            false\r\n        );\r\n    }\r\n  \r\n    // creates the sale of a marketplace item\r\n    // transfers ownership of the item, as well as funds between parties\r\n    function createCratorSale(\r\n            //address nftContract, \r\n            uint256 itemId)\r\n        public\r\n        payable\r\n        nonReentrant\r\n    {\r\n        uint256 price = idToCratorItem[itemId].price;\r\n        uint256 tokenId = idToCratorItem[itemId].tokenId;\r\n\r\n        require(\r\n            msg.value == price,\r\n            \"Please submit the asking price in order to complete the purchase\"\r\n        );\r\n\r\n        idToCratorItem[itemId].seller.transfer(msg.value);\r\n        //IERC721(nftContract).transferFrom(address(this), msg.sender, tokenId);\r\n        nftContract.transferFrom(address(this), msg.sender, tokenId);\r\n        idToCratorItem[itemId].owner = payable(msg.sender);\r\n        idToCratorItem[itemId].sold = true;\r\n\r\n        _soldItems.increment();\r\n\r\n        payable(owner).transfer(listingPrice);\r\n    }\r\n\r\n    // returns all unsold marketplace items\r\n    function fetchCratorItems()\r\n        public\r\n        view\r\n        returns (CratorItem[] memory)\r\n    {\r\n        uint256 itemCount = _items.current();\r\n        uint256 unsoldItemCount = _items.current() - _soldItems.current();\r\n        uint256 currentIndex = 0;\r\n\r\n        CratorItem[] memory items = new CratorItem[](unsoldItemCount);\r\n        for (uint256 i = 0; i < itemCount; i++) {\r\n            if (idToCratorItem[i + 1].owner == address(0)) {\r\n                uint256 currentId = i + 1;\r\n                CratorItem storage currentItem = idToCratorItem[\r\n                    currentId\r\n                ];\r\n                items[currentIndex] = currentItem;\r\n                currentIndex += 1;\r\n            }\r\n        }\r\n        return items;\r\n    }\r\n\r\n    // returns only items that a user has purchased\r\n    function fetchMyNFTs() public view returns (CratorItem[] memory) {\r\n        uint256 totalItemCount = _items.current();\r\n        uint256 itemCount = 0;\r\n        uint256 currentIndex = 0;\r\n\r\n        for (uint256 i = 0; i < totalItemCount; i++) {\r\n            if (idToCratorItem[i + 1].owner == msg.sender) {\r\n                itemCount += 1;\r\n            }\r\n        }\r\n\r\n        CratorItem[] memory items = new CratorItem[](itemCount);\r\n        for (uint256 i = 0; i < totalItemCount; i++) {\r\n            if (idToCratorItem[i + 1].owner == msg.sender) {\r\n                uint256 currentId = i + 1;\r\n                CratorItem storage currentItem = idToCratorItem[\r\n                    currentId\r\n                ];\r\n                items[currentIndex] = currentItem;\r\n                currentIndex += 1;\r\n            }\r\n        }\r\n        return items;\r\n    }\r\n\r\n    // returns only items a user has created\r\n    function fetchItemsCreated()\r\n        public\r\n        view\r\n        returns (CratorItem[] memory)\r\n    {\r\n        uint256 totalItemCount = _items.current();\r\n        uint256 itemCount = 0;\r\n        uint256 currentIndex = 0;\r\n\r\n        for (uint256 i = 0; i < totalItemCount; i++) {\r\n            if (idToCratorItem[i + 1].seller == msg.sender) {\r\n                itemCount += 1;\r\n            }\r\n        }\r\n\r\n        CratorItem[] memory items = new CratorItem[](itemCount);\r\n\r\n        for (uint256 i = 0; i < totalItemCount; i++) {\r\n            if (idToCratorItem[i + 1].seller == msg.sender) {\r\n                uint256 currentId = i + 1;\r\n                CratorItem storage currentItem = idToCratorItem[\r\n                    currentId\r\n                ];\r\n                items[currentIndex] = currentItem;\r\n                currentIndex += 1;\r\n            }\r\n        }\r\n\r\n        return items;\r\n    }\r\n}",
  "sourcePath": "D:\\03.block-chain\\01.miquelTC__nft-marketplace\\test-proj\\nft-marketplace-master\\src\\contracts\\NFTCrator.sol",
  "compiler": {
    "name": "solc",
    "version": "0.8.11+commit.d7f03943.Emscripten.clang"
  },
  "schemaVersion": "3.4.4",
  "updatedAt": "2022-02-16T08:50:19.462Z",
  "devdoc": {
    "kind": "dev",
    "methods": {},
    "version": 1
  },
  "userdoc": {
    "kind": "user",
    "methods": {},
    "version": 1
  }
}