{
  "contractName": "NFTCreator",
  "abi": [
    {
      "inputs": [],
      "stateMutability": "nonpayable",
      "type": "constructor"
    },
    {
      "anonymous": false,
      "inputs": [
        {
          "indexed": true,
          "internalType": "uint256",
          "name": "itemId",
          "type": "uint256"
        },
        {
          "indexed": true,
          "internalType": "address",
          "name": "nftContract",
          "type": "address"
        },
        {
          "indexed": true,
          "internalType": "uint256",
          "name": "tokenId",
          "type": "uint256"
        },
        {
          "indexed": false,
          "internalType": "address",
          "name": "seller",
          "type": "address"
        },
        {
          "indexed": false,
          "internalType": "address",
          "name": "owner",
          "type": "address"
        },
        {
          "indexed": false,
          "internalType": "uint256",
          "name": "price",
          "type": "uint256"
        },
        {
          "indexed": false,
          "internalType": "bool",
          "name": "sold",
          "type": "bool"
        }
      ],
      "name": "MarketplaceItemCreated",
      "type": "event"
    },
    {
      "inputs": [],
      "name": "offerCount",
      "outputs": [
        {
          "internalType": "uint256",
          "name": "",
          "type": "uint256"
        }
      ],
      "stateMutability": "view",
      "type": "function"
    },
    {
      "inputs": [
        {
          "internalType": "address",
          "name": "nftContract",
          "type": "address"
        },
        {
          "internalType": "uint256",
          "name": "tokenId",
          "type": "uint256"
        },
        {
          "internalType": "uint256",
          "name": "price",
          "type": "uint256"
        }
      ],
      "name": "createMarketplaceItem",
      "outputs": [],
      "stateMutability": "payable",
      "type": "function"
    },
    {
      "inputs": [
        {
          "internalType": "address",
          "name": "nftContract",
          "type": "address"
        },
        {
          "internalType": "uint256",
          "name": "itemId",
          "type": "uint256"
        }
      ],
      "name": "createMarketplaceSale",
      "outputs": [],
      "stateMutability": "payable",
      "type": "function"
    },
    {
      "inputs": [],
      "name": "fetchMarketplaceItems",
      "outputs": [
        {
          "components": [
            {
              "internalType": "uint256",
              "name": "itemId",
              "type": "uint256"
            },
            {
              "internalType": "address",
              "name": "nftContract",
              "type": "address"
            },
            {
              "internalType": "uint256",
              "name": "tokenId",
              "type": "uint256"
            },
            {
              "internalType": "address payable",
              "name": "seller",
              "type": "address"
            },
            {
              "internalType": "address payable",
              "name": "owner",
              "type": "address"
            },
            {
              "internalType": "uint256",
              "name": "price",
              "type": "uint256"
            },
            {
              "internalType": "bool",
              "name": "sold",
              "type": "bool"
            }
          ],
          "internalType": "struct NFTCreator.MarketplaceItem[]",
          "name": "",
          "type": "tuple[]"
        }
      ],
      "stateMutability": "view",
      "type": "function"
    },
    {
      "inputs": [],
      "name": "fetchMyNFTs",
      "outputs": [
        {
          "components": [
            {
              "internalType": "uint256",
              "name": "itemId",
              "type": "uint256"
            },
            {
              "internalType": "address",
              "name": "nftContract",
              "type": "address"
            },
            {
              "internalType": "uint256",
              "name": "tokenId",
              "type": "uint256"
            },
            {
              "internalType": "address payable",
              "name": "seller",
              "type": "address"
            },
            {
              "internalType": "address payable",
              "name": "owner",
              "type": "address"
            },
            {
              "internalType": "uint256",
              "name": "price",
              "type": "uint256"
            },
            {
              "internalType": "bool",
              "name": "sold",
              "type": "bool"
            }
          ],
          "internalType": "struct NFTCreator.MarketplaceItem[]",
          "name": "",
          "type": "tuple[]"
        }
      ],
      "stateMutability": "view",
      "type": "function"
    },
    {
      "inputs": [],
      "name": "fetchItemsCreated",
      "outputs": [
        {
          "components": [
            {
              "internalType": "uint256",
              "name": "itemId",
              "type": "uint256"
            },
            {
              "internalType": "address",
              "name": "nftContract",
              "type": "address"
            },
            {
              "internalType": "uint256",
              "name": "tokenId",
              "type": "uint256"
            },
            {
              "internalType": "address payable",
              "name": "seller",
              "type": "address"
            },
            {
              "internalType": "address payable",
              "name": "owner",
              "type": "address"
            },
            {
              "internalType": "uint256",
              "name": "price",
              "type": "uint256"
            },
            {
              "internalType": "bool",
              "name": "sold",
              "type": "bool"
            }
          ],
          "internalType": "struct NFTCreator.MarketplaceItem[]",
          "name": "",
          "type": "tuple[]"
        }
      ],
      "stateMutability": "view",
      "type": "function"
    }
  ],
  "bytecode": "0x60806040526658d15e1762800060375534801561001b57600080fd5b5033603660006101000a81548173ffffffffffffffffffffffffffffffffffffffff021916908373ffffffffffffffffffffffffffffffffffffffff1602179055506118b68061006c6000396000f3fe6080604052600436106100555760003560e01c806301ae591a1461005a57806305ae31e4146100855780631115c24d146100a1578063202e3740146100cc578063bf4892bb146100f7578063f064c32e14610113575b600080fd5b34801561006657600080fd5b5061006f61013e565b60405161007c919061133d565b60405180910390f35b61009f600480360381019061009a91906113bc565b610408565b005b3480156100ad57600080fd5b506100b661076b565b6040516100c3919061141e565b60405180910390f35b3480156100d857600080fd5b506100e1610771565b6040516100ee919061133d565b60405180910390f35b610111600480360381019061010c9190611439565b610abf565b005b34801561011f57600080fd5b50610128610d77565b604051610135919061133d565b60405180910390f35b6060600061014c60346110c5565b9050600061015a60356110c5565b61016460346110c5565b61016e91906114a8565b90506000808267ffffffffffffffff81111561018d5761018c6114dc565b5b6040519080825280602002602001820160405280156101c657816020015b6101b36110e9565b8152602001906001900390816101ab5790505b50905060005b848110156103fd57600073ffffffffffffffffffffffffffffffffffffffff16603860006001846101fd919061150b565b815260200190815260200160002060040160009054906101000a900473ffffffffffffffffffffffffffffffffffffffff1673ffffffffffffffffffffffffffffffffffffffff1614156103ea57600060018261025a919061150b565b90506000603860008381526020019081526020016000209050806040518060e0016040529081600082015481526020016001820160009054906101000a900473ffffffffffffffffffffffffffffffffffffffff1673ffffffffffffffffffffffffffffffffffffffff1673ffffffffffffffffffffffffffffffffffffffff168152602001600282015481526020016003820160009054906101000a900473ffffffffffffffffffffffffffffffffffffffff1673ffffffffffffffffffffffffffffffffffffffff1673ffffffffffffffffffffffffffffffffffffffff1681526020016004820160009054906101000a900473ffffffffffffffffffffffffffffffffffffffff1673ffffffffffffffffffffffffffffffffffffffff1673ffffffffffffffffffffffffffffffffffffffff168152602001600582015481526020016006820160009054906101000a900460ff1615151515815250508486815181106103cd576103cc611561565b5b60200260200101819052506001856103e5919061150b565b945050505b80806103f590611590565b9150506101cc565b508094505050505090565b6002600154141561044e576040517f08c379a000000000000000000000000000000000000000000000000000000000815260040161044590611636565b60405180910390fd5b600260018190555060008111610499576040517f08c379a0000000000000000000000000000000000000000000000000000000008152600401610490906116a2565b60405180910390fd5b60375434146104dd576040517f08c379a00000000000000000000000000000000000000000000000000000000081526004016104d490611734565b60405180910390fd5b6104e760346110d3565b60006104f360346110c5565b90506040518060e001604052808281526020018573ffffffffffffffffffffffffffffffffffffffff1681526020018481526020013373ffffffffffffffffffffffffffffffffffffffff168152602001600073ffffffffffffffffffffffffffffffffffffffff16815260200183815260200160001515815250603860008381526020019081526020016000206000820151816000015560208201518160010160006101000a81548173ffffffffffffffffffffffffffffffffffffffff021916908373ffffffffffffffffffffffffffffffffffffffff1602179055506040820151816002015560608201518160030160006101000a81548173ffffffffffffffffffffffffffffffffffffffff021916908373ffffffffffffffffffffffffffffffffffffffff16021790555060808201518160040160006101000a81548173ffffffffffffffffffffffffffffffffffffffff021916908373ffffffffffffffffffffffffffffffffffffffff16021790555060a0820151816005015560c08201518160060160006101000a81548160ff0219169083151502179055509050508373ffffffffffffffffffffffffffffffffffffffff166323b872dd3330866040518463ffffffff1660e01b81526004016106d493929190611763565b600060405180830381600087803b1580156106ee57600080fd5b505af1158015610702573d6000803e3d6000fd5b50505050828473ffffffffffffffffffffffffffffffffffffffff16827f77c313154b797ac3eb630bba7605410c9aed6942c3f1860d362056bb90fcd74e33600087600060405161075694939291906117a9565b60405180910390a45060018081905550505050565b60335481565b6060600061077f60346110c5565b905060008060005b83811015610828573373ffffffffffffffffffffffffffffffffffffffff16603860006001846107b7919061150b565b815260200190815260200160002060040160009054906101000a900473ffffffffffffffffffffffffffffffffffffffff1673ffffffffffffffffffffffffffffffffffffffff16141561081557600183610812919061150b565b92505b808061082090611590565b915050610787565b5060008267ffffffffffffffff811115610845576108446114dc565b5b60405190808252806020026020018201604052801561087e57816020015b61086b6110e9565b8152602001906001900390816108635790505b50905060005b84811015610ab4573373ffffffffffffffffffffffffffffffffffffffff16603860006001846108b4919061150b565b815260200190815260200160002060040160009054906101000a900473ffffffffffffffffffffffffffffffffffffffff1673ffffffffffffffffffffffffffffffffffffffff161415610aa1576000600182610911919061150b565b90506000603860008381526020019081526020016000209050806040518060e0016040529081600082015481526020016001820160009054906101000a900473ffffffffffffffffffffffffffffffffffffffff1673ffffffffffffffffffffffffffffffffffffffff1673ffffffffffffffffffffffffffffffffffffffff168152602001600282015481526020016003820160009054906101000a900473ffffffffffffffffffffffffffffffffffffffff1673ffffffffffffffffffffffffffffffffffffffff1673ffffffffffffffffffffffffffffffffffffffff1681526020016004820160009054906101000a900473ffffffffffffffffffffffffffffffffffffffff1673ffffffffffffffffffffffffffffffffffffffff1673ffffffffffffffffffffffffffffffffffffffff168152602001600582015481526020016006820160009054906101000a900460ff161515151581525050848681518110610a8457610a83611561565b5b6020026020010181905250600185610a9c919061150b565b945050505b8080610aac90611590565b915050610884565b508094505050505090565b60026001541415610b05576040517f08c379a0000000000000000000000000000000000000000000000000000000008152600401610afc90611636565b60405180910390fd5b6002600181905550600060386000838152602001908152602001600020600501549050600060386000848152602001908152602001600020600201549050813414610b85576040517f08c379a0000000000000000000000000000000000000000000000000000000008152600401610b7c90611860565b60405180910390fd5b6038600084815260200190815260200160002060030160009054906101000a900473ffffffffffffffffffffffffffffffffffffffff1673ffffffffffffffffffffffffffffffffffffffff166108fc349081150290604051600060405180830381858888f19350505050158015610c01573d6000803e3d6000fd5b508373ffffffffffffffffffffffffffffffffffffffff166323b872dd3033846040518463ffffffff1660e01b8152600401610c3f93929190611763565b600060405180830381600087803b158015610c5957600080fd5b505af1158015610c6d573d6000803e3d6000fd5b50505050336038600085815260200190815260200160002060040160006101000a81548173ffffffffffffffffffffffffffffffffffffffff021916908373ffffffffffffffffffffffffffffffffffffffff16021790555060016038600085815260200190815260200160002060060160006101000a81548160ff021916908315150217905550610cff60356110d3565b603660009054906101000a900473ffffffffffffffffffffffffffffffffffffffff1673ffffffffffffffffffffffffffffffffffffffff166108fc6037549081150290604051600060405180830381858888f19350505050158015610d69573d6000803e3d6000fd5b505050600180819055505050565b60606000610d8560346110c5565b905060008060005b83811015610e2e573373ffffffffffffffffffffffffffffffffffffffff1660386000600184610dbd919061150b565b815260200190815260200160002060030160009054906101000a900473ffffffffffffffffffffffffffffffffffffffff1673ffffffffffffffffffffffffffffffffffffffff161415610e1b57600183610e18919061150b565b92505b8080610e2690611590565b915050610d8d565b5060008267ffffffffffffffff811115610e4b57610e4a6114dc565b5b604051908082528060200260200182016040528015610e8457816020015b610e716110e9565b815260200190600190039081610e695790505b50905060005b848110156110ba573373ffffffffffffffffffffffffffffffffffffffff1660386000600184610eba919061150b565b815260200190815260200160002060030160009054906101000a900473ffffffffffffffffffffffffffffffffffffffff1673ffffffffffffffffffffffffffffffffffffffff1614156110a7576000600182610f17919061150b565b90506000603860008381526020019081526020016000209050806040518060e0016040529081600082015481526020016001820160009054906101000a900473ffffffffffffffffffffffffffffffffffffffff1673ffffffffffffffffffffffffffffffffffffffff1673ffffffffffffffffffffffffffffffffffffffff168152602001600282015481526020016003820160009054906101000a900473ffffffffffffffffffffffffffffffffffffffff1673ffffffffffffffffffffffffffffffffffffffff1673ffffffffffffffffffffffffffffffffffffffff1681526020016004820160009054906101000a900473ffffffffffffffffffffffffffffffffffffffff1673ffffffffffffffffffffffffffffffffffffffff1673ffffffffffffffffffffffffffffffffffffffff168152602001600582015481526020016006820160009054906101000a900460ff16151515158152505084868151811061108a57611089611561565b5b60200260200101819052506001856110a2919061150b565b945050505b80806110b290611590565b915050610e8a565b508094505050505090565b600081600001549050919050565b6001816000016000828254019250508190555050565b6040518060e0016040528060008152602001600073ffffffffffffffffffffffffffffffffffffffff16815260200160008152602001600073ffffffffffffffffffffffffffffffffffffffff168152602001600073ffffffffffffffffffffffffffffffffffffffff168152602001600081526020016000151581525090565b600081519050919050565b600082825260208201905092915050565b6000819050602082019050919050565b6000819050919050565b6111a981611196565b82525050565b600073ffffffffffffffffffffffffffffffffffffffff82169050919050565b60006111da826111af565b9050919050565b6111ea816111cf565b82525050565b60006111fb826111af565b9050919050565b61120b816111f0565b82525050565b60008115159050919050565b61122681611211565b82525050565b60e08201600082015161124260008501826111a0565b50602082015161125560208501826111e1565b50604082015161126860408501826111a0565b50606082015161127b6060850182611202565b50608082015161128e6080850182611202565b5060a08201516112a160a08501826111a0565b5060c08201516112b460c085018261121d565b50505050565b60006112c6838361122c565b60e08301905092915050565b6000602082019050919050565b60006112ea8261116a565b6112f48185611175565b93506112ff83611186565b8060005b8381101561133057815161131788826112ba565b9750611322836112d2565b925050600181019050611303565b5085935050505092915050565b6000602082019050818103600083015261135781846112df565b905092915050565b600080fd5b61136d816111cf565b811461137857600080fd5b50565b60008135905061138a81611364565b92915050565b61139981611196565b81146113a457600080fd5b50565b6000813590506113b681611390565b92915050565b6000806000606084860312156113d5576113d461135f565b5b60006113e38682870161137b565b93505060206113f4868287016113a7565b9250506040611405868287016113a7565b9150509250925092565b61141881611196565b82525050565b6000602082019050611433600083018461140f565b92915050565b600080604083850312156114505761144f61135f565b5b600061145e8582860161137b565b925050602061146f858286016113a7565b9150509250929050565b7f4e487b7100000000000000000000000000000000000000000000000000000000600052601160045260246000fd5b60006114b382611196565b91506114be83611196565b9250828210156114d1576114d0611479565b5b828203905092915050565b7f4e487b7100000000000000000000000000000000000000000000000000000000600052604160045260246000fd5b600061151682611196565b915061152183611196565b9250827fffffffffffffffffffffffffffffffffffffffffffffffffffffffffffffffff0382111561155657611555611479565b5b828201905092915050565b7f4e487b7100000000000000000000000000000000000000000000000000000000600052603260045260246000fd5b600061159b82611196565b91507fffffffffffffffffffffffffffffffffffffffffffffffffffffffffffffffff8214156115ce576115cd611479565b5b600182019050919050565b600082825260208201905092915050565b7f5265656e7472616e637947756172643a207265656e7472616e742063616c6c00600082015250565b6000611620601f836115d9565b915061162b826115ea565b602082019050919050565b6000602082019050818103600083015261164f81611613565b9050919050565b7f5072696365206d757374206265206174206c6561737420312077656900000000600082015250565b600061168c601c836115d9565b915061169782611656565b602082019050919050565b600060208201905081810360008301526116bb8161167f565b9050919050565b7f5072696365206d75737420626520657175616c20746f206c697374696e67207060008201527f7269636500000000000000000000000000000000000000000000000000000000602082015250565b600061171e6024836115d9565b9150611729826116c2565b604082019050919050565b6000602082019050818103600083015261174d81611711565b9050919050565b61175d816111cf565b82525050565b60006060820190506117786000830186611754565b6117856020830185611754565b611792604083018461140f565b949350505050565b6117a381611211565b82525050565b60006080820190506117be6000830187611754565b6117cb6020830186611754565b6117d8604083018561140f565b6117e5606083018461179a565b95945050505050565b7f506c65617365207375626d6974207468652061736b696e67207072696365206960008201527f6e206f7264657220746f20636f6d706c65746520746865207075726368617365602082015250565b600061184a6040836115d9565b9150611855826117ee565b604082019050919050565b600060208201905081810360008301526118798161183d565b905091905056fea2646970667358221220c0d88057c8412e17a8473b565ad0819000134c5e4959bdcac0b0286567080b1e64736f6c634300080b0033",
  "immutableReferences": {},
  "source": "// SPDX-License-Identifier: MIT\r\npragma solidity ^0.8.0;\r\n\r\nimport \"./NFTCollection.sol\";\r\nimport \"@openzeppelin/contracts/utils/Counters.sol\";\r\nimport \"@openzeppelin/contracts-upgradeable/security/ReentrancyGuardUpgradeable.sol\";\r\n\r\ncontract NFTCreator is ReentrancyGuardUpgradeable {\r\n  uint public offerCount;\r\n\r\n  using Counters for Counters.Counter;\r\n  Counters.Counter private _items;\r\n  Counters.Counter private _soldItems;\r\n\r\n  address payable owner;\r\n  uint256 listingPrice = 0.025 ether; // minimum price, change for what you want\r\n\r\n  // interface to marketplace item\r\n    struct MarketplaceItem {\r\n        uint256 itemId;\r\n        address nftContract;\r\n        uint256 tokenId;\r\n        address payable seller;\r\n        address payable owner;\r\n        uint256 price;\r\n        bool sold;\r\n    }\r\n    mapping(uint256 => MarketplaceItem) private idToMarketplaceItem;\r\n\r\n    // declare a event for when a item is created on marketplace\r\n    event MarketplaceItemCreated(\r\n        uint256 indexed itemId,\r\n        address indexed nftContract,\r\n        uint256 indexed tokenId,\r\n        address seller,\r\n        address owner,\r\n        uint256 price,\r\n        bool sold\r\n    );\r\n\r\n    constructor() {\r\n        owner = payable(msg.sender);\r\n    }\r\n  // places an item for sale on the marketplace\r\n  function createMarketplaceItem(\r\n        address nftContract,\r\n        uint256 tokenId,\r\n        uint256 price\r\n    ) public payable nonReentrant {\r\n        require(price > 0, \"Price must be at least 1 wei\");\r\n        require(\r\n            msg.value == listingPrice,\r\n            \"Price must be equal to listing price\"\r\n        );\r\n\r\n        _items.increment();\r\n        uint256 itemId = _items.current();\r\n\r\n        idToMarketplaceItem[itemId] = MarketplaceItem(\r\n            itemId,                     //item registerd id\r\n            nftContract,                //nftContract       -- \r\n            tokenId,                    //nft item token    --\r\n            payable(msg.sender),        //seller\r\n            payable(address(0)),        //owner\r\n            price,                      //                  --\r\n            false\r\n        );\r\n\r\n        IERC721(nftContract).transferFrom(msg.sender, address(this), tokenId);\r\n\r\n        emit MarketplaceItemCreated(\r\n            itemId,\r\n            nftContract,\r\n            tokenId,\r\n            msg.sender,\r\n            address(0),\r\n            price,\r\n            false\r\n        );\r\n    }\r\n  \r\n    // creates the sale of a marketplace item\r\n    // transfers ownership of the item, as well as funds between parties\r\n    function createMarketplaceSale(address nftContract, uint256 itemId)\r\n        public\r\n        payable\r\n        nonReentrant\r\n    {\r\n        uint256 price = idToMarketplaceItem[itemId].price;\r\n        uint256 tokenId = idToMarketplaceItem[itemId].tokenId;\r\n\r\n        require(\r\n            msg.value == price,\r\n            \"Please submit the asking price in order to complete the purchase\"\r\n        );\r\n\r\n        idToMarketplaceItem[itemId].seller.transfer(msg.value);\r\n        IERC721(nftContract).transferFrom(address(this), msg.sender, tokenId);\r\n        idToMarketplaceItem[itemId].owner = payable(msg.sender);\r\n        idToMarketplaceItem[itemId].sold = true;\r\n\r\n        _soldItems.increment();\r\n\r\n        payable(owner).transfer(listingPrice);\r\n    }\r\n\r\n    // returns all unsold marketplace items\r\n    function fetchMarketplaceItems()\r\n        public\r\n        view\r\n        returns (MarketplaceItem[] memory)\r\n    {\r\n        uint256 itemCount = _items.current();\r\n        uint256 unsoldItemCount = _items.current() - _soldItems.current();\r\n        uint256 currentIndex = 0;\r\n\r\n        MarketplaceItem[] memory items = new MarketplaceItem[](unsoldItemCount);\r\n        for (uint256 i = 0; i < itemCount; i++) {\r\n            if (idToMarketplaceItem[i + 1].owner == address(0)) {\r\n                uint256 currentId = i + 1;\r\n                MarketplaceItem storage currentItem = idToMarketplaceItem[\r\n                    currentId\r\n                ];\r\n                items[currentIndex] = currentItem;\r\n                currentIndex += 1;\r\n            }\r\n        }\r\n        return items;\r\n    }\r\n\r\n    // returns only items that a user has purchased\r\n    function fetchMyNFTs() public view returns (MarketplaceItem[] memory) {\r\n        uint256 totalItemCount = _items.current();\r\n        uint256 itemCount = 0;\r\n        uint256 currentIndex = 0;\r\n\r\n        for (uint256 i = 0; i < totalItemCount; i++) {\r\n            if (idToMarketplaceItem[i + 1].owner == msg.sender) {\r\n                itemCount += 1;\r\n            }\r\n        }\r\n\r\n        MarketplaceItem[] memory items = new MarketplaceItem[](itemCount);\r\n        for (uint256 i = 0; i < totalItemCount; i++) {\r\n            if (idToMarketplaceItem[i + 1].owner == msg.sender) {\r\n                uint256 currentId = i + 1;\r\n                MarketplaceItem storage currentItem = idToMarketplaceItem[\r\n                    currentId\r\n                ];\r\n                items[currentIndex] = currentItem;\r\n                currentIndex += 1;\r\n            }\r\n        }\r\n        return items;\r\n    }\r\n\r\n    // returns only items a user has created\r\n    function fetchItemsCreated()\r\n        public\r\n        view\r\n        returns (MarketplaceItem[] memory)\r\n    {\r\n        uint256 totalItemCount = _items.current();\r\n        uint256 itemCount = 0;\r\n        uint256 currentIndex = 0;\r\n\r\n        for (uint256 i = 0; i < totalItemCount; i++) {\r\n            if (idToMarketplaceItem[i + 1].seller == msg.sender) {\r\n                itemCount += 1;\r\n            }\r\n        }\r\n\r\n        MarketplaceItem[] memory items = new MarketplaceItem[](itemCount);\r\n\r\n        for (uint256 i = 0; i < totalItemCount; i++) {\r\n            if (idToMarketplaceItem[i + 1].seller == msg.sender) {\r\n                uint256 currentId = i + 1;\r\n                MarketplaceItem storage currentItem = idToMarketplaceItem[\r\n                    currentId\r\n                ];\r\n                items[currentIndex] = currentItem;\r\n                currentIndex += 1;\r\n            }\r\n        }\r\n\r\n        return items;\r\n    }\r\n}",
  "sourcePath": "D:\\03.block-chain\\01.miquelTC__nft-marketplace\\test-proj\\nft-marketplace-master\\src\\contracts\\NFTCreator.sol",
  "compiler": {
    "name": "solc",
    "version": "0.8.11+commit.d7f03943.Emscripten.clang"
  },
  "schemaVersion": "3.4.4",
  "updatedAt": "2022-02-14T12:43:15.407Z",
  "devdoc": {
    "kind": "dev",
    "methods": {},
    "version": 1
  },
  "userdoc": {
    "kind": "user",
    "methods": {},
    "version": 1
  }
}