{
  "contractName": "NFTMarketplace",
  "abi": [
    {
      "inputs": [
        {
          "internalType": "address",
          "name": "_nftCollection",
          "type": "address"
        }
      ],
      "stateMutability": "nonpayable",
      "type": "constructor"
    },
    {
      "anonymous": false,
      "inputs": [
        {
          "indexed": false,
          "internalType": "address",
          "name": "user",
          "type": "address"
        },
        {
          "indexed": false,
          "internalType": "uint256",
          "name": "amount",
          "type": "uint256"
        }
      ],
      "name": "ClaimFunds",
      "type": "event"
    },
    {
      "anonymous": false,
      "inputs": [
        {
          "indexed": false,
          "internalType": "uint256",
          "name": "offerId",
          "type": "uint256"
        },
        {
          "indexed": false,
          "internalType": "uint256",
          "name": "id",
          "type": "uint256"
        },
        {
          "indexed": false,
          "internalType": "address",
          "name": "user",
          "type": "address"
        },
        {
          "indexed": false,
          "internalType": "uint256",
          "name": "price",
          "type": "uint256"
        },
        {
          "indexed": false,
          "internalType": "bool",
          "name": "fulfilled",
          "type": "bool"
        },
        {
          "indexed": false,
          "internalType": "bool",
          "name": "cancelled",
          "type": "bool"
        }
      ],
      "name": "Offer",
      "type": "event"
    },
    {
      "anonymous": false,
      "inputs": [
        {
          "indexed": false,
          "internalType": "uint256",
          "name": "offerId",
          "type": "uint256"
        },
        {
          "indexed": false,
          "internalType": "uint256",
          "name": "id",
          "type": "uint256"
        },
        {
          "indexed": false,
          "internalType": "address",
          "name": "owner",
          "type": "address"
        }
      ],
      "name": "OfferCancelled",
      "type": "event"
    },
    {
      "anonymous": false,
      "inputs": [
        {
          "indexed": false,
          "internalType": "uint256",
          "name": "offerId",
          "type": "uint256"
        },
        {
          "indexed": false,
          "internalType": "uint256",
          "name": "id",
          "type": "uint256"
        },
        {
          "indexed": false,
          "internalType": "address",
          "name": "newOwner",
          "type": "address"
        }
      ],
      "name": "OfferFilled",
      "type": "event"
    },
    {
      "stateMutability": "nonpayable",
      "type": "fallback"
    },
    {
      "inputs": [],
      "name": "offerCount",
      "outputs": [
        {
          "internalType": "uint256",
          "name": "",
          "type": "uint256"
        }
      ],
      "stateMutability": "view",
      "type": "function"
    },
    {
      "inputs": [
        {
          "internalType": "uint256",
          "name": "",
          "type": "uint256"
        }
      ],
      "name": "offers",
      "outputs": [
        {
          "internalType": "uint256",
          "name": "offerId",
          "type": "uint256"
        },
        {
          "internalType": "uint256",
          "name": "id",
          "type": "uint256"
        },
        {
          "internalType": "address",
          "name": "user",
          "type": "address"
        },
        {
          "internalType": "uint256",
          "name": "price",
          "type": "uint256"
        },
        {
          "internalType": "bool",
          "name": "fulfilled",
          "type": "bool"
        },
        {
          "internalType": "bool",
          "name": "cancelled",
          "type": "bool"
        }
      ],
      "stateMutability": "view",
      "type": "function"
    },
    {
      "inputs": [
        {
          "internalType": "address",
          "name": "",
          "type": "address"
        }
      ],
      "name": "userFunds",
      "outputs": [
        {
          "internalType": "uint256",
          "name": "",
          "type": "uint256"
        }
      ],
      "stateMutability": "view",
      "type": "function"
    },
    {
      "inputs": [
        {
          "internalType": "uint256",
          "name": "_id",
          "type": "uint256"
        },
        {
          "internalType": "uint256",
          "name": "_price",
          "type": "uint256"
        }
      ],
      "name": "makeOffer",
      "outputs": [],
      "stateMutability": "nonpayable",
      "type": "function"
    },
    {
      "inputs": [
        {
          "internalType": "uint256",
          "name": "totalLoanAmountETH",
          "type": "uint256"
        }
      ],
      "name": "fundLoan",
      "outputs": [],
      "stateMutability": "nonpayable",
      "type": "function"
    },
    {
      "inputs": [
        {
          "internalType": "uint256",
          "name": "_offerId",
          "type": "uint256"
        }
      ],
      "name": "fillOffer",
      "outputs": [],
      "stateMutability": "payable",
      "type": "function"
    },
    {
      "inputs": [
        {
          "internalType": "uint256",
          "name": "_offerId",
          "type": "uint256"
        }
      ],
      "name": "cancelOffer",
      "outputs": [],
      "stateMutability": "nonpayable",
      "type": "function"
    },
    {
      "inputs": [],
      "name": "claimFunds",
      "outputs": [],
      "stateMutability": "nonpayable",
      "type": "function"
    }
  ],
  "bytecode": "0x60806040523480156200001157600080fd5b506040516200418f3803806200418f8339818101604052810190620000379190620000e9565b80600360006101000a81548173ffffffffffffffffffffffffffffffffffffffff021916908373ffffffffffffffffffffffffffffffffffffffff160217905550506200011b565b600080fd5b600073ffffffffffffffffffffffffffffffffffffffff82169050919050565b6000620000b18262000084565b9050919050565b620000c381620000a4565b8114620000cf57600080fd5b50565b600081519050620000e381620000b8565b92915050565b6000602082840312156200010257620001016200007f565b5b60006200011284828501620000d2565b91505092915050565b614064806200012b6000396000f3fe6080604052600436106200008b5760003560e01c806385dba861116200005557806385dba861146200016f5780638a72ea6a146200018f578063ac30777314620001d8578063ef706adf14620001f2576200008c565b806305b7cdd3146200009f5780631115c24d14620000cd5780638387c6e114620000fd578063846b909a1462000141576200008c565b5b3480156200009957600080fd5b50600080fd5b348015620000ac57600080fd5b50620000cb6004803603810190620000c5919062000dd4565b62000220565b005b348015620000da57600080fd5b50620000e56200041f565b604051620000f4919062000e2c565b60405180910390f35b3480156200010a57600080fd5b5062000129600480360381019062000123919062000eae565b62000425565b60405162000138919062000e2c565b60405180910390f35b3480156200014e57600080fd5b506200016d600480360381019062000167919062000ee0565b6200043d565b005b6200018d600480360381019062000187919062000ee0565b6200053d565b005b3480156200019c57600080fd5b50620001bb6004803603810190620001b5919062000ee0565b6200089d565b604051620001cf9695949392919062000f40565b60405180910390f35b348015620001e557600080fd5b50620001f062000913565b005b348015620001ff57600080fd5b506200021e600480360381019062000218919062000ee0565b62000ae0565b005b600360009054906101000a900473ffffffffffffffffffffffffffffffffffffffff1673ffffffffffffffffffffffffffffffffffffffff166323b872dd3330856040518463ffffffff1660e01b8152600401620002819392919062000fad565b600060405180830381600087803b1580156200029c57600080fd5b505af1158015620002b1573d6000803e3d6000fd5b50505050600080815480929190620002c99062001019565b91905055506040518060c0016040528060005481526020018381526020013373ffffffffffffffffffffffffffffffffffffffff168152602001828152602001600015158152602001600015158152506001600080548152602001908152602001600020600082015181600001556020820151816001015560408201518160020160006101000a81548173ffffffffffffffffffffffffffffffffffffffff021916908373ffffffffffffffffffffffffffffffffffffffff1602179055506060820151816003015560808201518160040160006101000a81548160ff02191690831515021790555060a08201518160040160016101000a81548160ff0219169083151502179055509050507f93e711896d4ef527d199d7e101922e20f918cbb248a0fb0977c52fda24aa1f1d600054833384600080604051620004139695949392919062000f40565b60405180910390a15050565b60005481565b60026020528060005260406000206000915090505481565b806040516200044c9062000d86565b62000458919062000e2c565b604051809103906000f08015801562000475573d6000803e3d6000fd5b50600460006101000a81548173ffffffffffffffffffffffffffffffffffffffff021916908373ffffffffffffffffffffffffffffffffffffffff160217905550600460009054906101000a900473ffffffffffffffffffffffffffffffffffffffff1673ffffffffffffffffffffffffffffffffffffffff16638db579946040518163ffffffff1660e01b8152600401600060405180830381600087803b1580156200052157600080fd5b505af115801562000536573d6000803e3d6000fd5b5050505050565b6000600160008381526020019081526020016000209050818160000154146200059d576040517f08c379a00000000000000000000000000000000000000000000000000000000081526004016200059490620010c8565b60405180910390fd5b3373ffffffffffffffffffffffffffffffffffffffff168160020160009054906101000a900473ffffffffffffffffffffffffffffffffffffffff1673ffffffffffffffffffffffffffffffffffffffff16141562000633576040517f08c379a00000000000000000000000000000000000000000000000000000000081526004016200062a9062001160565b60405180910390fd5b8060040160009054906101000a900460ff161562000688576040517f08c379a00000000000000000000000000000000000000000000000000000000081526004016200067f90620011f8565b60405180910390fd5b8060040160019054906101000a900460ff1615620006dd576040517f08c379a0000000000000000000000000000000000000000000000000000000008152600401620006d49062001290565b60405180910390fd5b8060030154341462000726576040517f08c379a00000000000000000000000000000000000000000000000000000000081526004016200071d9062001328565b60405180910390fd5b600360009054906101000a900473ffffffffffffffffffffffffffffffffffffffff1673ffffffffffffffffffffffffffffffffffffffff166323b872dd303384600101546040518463ffffffff1660e01b81526004016200078b9392919062000fad565b600060405180830381600087803b158015620007a657600080fd5b505af1158015620007bb573d6000803e3d6000fd5b5050505060018160040160006101000a81548160ff02191690831515021790555034600260008360020160009054906101000a900473ffffffffffffffffffffffffffffffffffffffff1673ffffffffffffffffffffffffffffffffffffffff1673ffffffffffffffffffffffffffffffffffffffff16815260200190815260200160002060008282546200085191906200134a565b925050819055507fd9157c065213ada613694e84b1e27fe2efd62d85c6b82bd6c842a4999491e72a828260010154336040516200089193929190620013a7565b60405180910390a15050565b60016020528060005260406000206000915090508060000154908060010154908060020160009054906101000a900473ffffffffffffffffffffffffffffffffffffffff16908060030154908060040160009054906101000a900460ff16908060040160019054906101000a900460ff16905086565b6000600260003373ffffffffffffffffffffffffffffffffffffffff1673ffffffffffffffffffffffffffffffffffffffff168152602001908152602001600020541162000998576040517f08c379a00000000000000000000000000000000000000000000000000000000081526004016200098f906200145a565b60405180910390fd5b3373ffffffffffffffffffffffffffffffffffffffff166108fc600260003373ffffffffffffffffffffffffffffffffffffffff1673ffffffffffffffffffffffffffffffffffffffff168152602001908152602001600020549081150290604051600060405180830381858888f1935050505015801562000a1e573d6000803e3d6000fd5b507f4f0554190111f93f8c2ccef2cc41473f187d7f29ff5a5c308ca41f9dfe4e989a33600260003373ffffffffffffffffffffffffffffffffffffffff1673ffffffffffffffffffffffffffffffffffffffff1681526020019081526020016000205460405162000a919291906200147c565b60405180910390a16000600260003373ffffffffffffffffffffffffffffffffffffffff1673ffffffffffffffffffffffffffffffffffffffff16815260200190815260200160002081905550565b60006001600083815260200190815260200160002090508181600001541462000b40576040517f08c379a000000000000000000000000000000000000000000000000000000000815260040162000b3790620010c8565b60405180910390fd5b3373ffffffffffffffffffffffffffffffffffffffff168160020160009054906101000a900473ffffffffffffffffffffffffffffffffffffffff1673ffffffffffffffffffffffffffffffffffffffff161462000bd5576040517f08c379a000000000000000000000000000000000000000000000000000000000815260040162000bcc906200151f565b60405180910390fd5b600015158160040160009054906101000a900460ff1615151462000c30576040517f08c379a000000000000000000000000000000000000000000000000000000000815260040162000c2790620015b7565b60405180910390fd5b600015158160040160019054906101000a900460ff1615151462000c8b576040517f08c379a000000000000000000000000000000000000000000000000000000000815260040162000c82906200164f565b60405180910390fd5b600360009054906101000a900473ffffffffffffffffffffffffffffffffffffffff1673ffffffffffffffffffffffffffffffffffffffff166323b872dd303384600101546040518463ffffffff1660e01b815260040162000cf09392919062000fad565b600060405180830381600087803b15801562000d0b57600080fd5b505af115801562000d20573d6000803e3d6000fd5b5050505060018160040160016101000a81548160ff0219169083151502179055507f5b166b4d0498ff8c4719999cb6154c5d197e6f020f9fbfcf9d347f84576cfab78282600101543360405162000d7a93929190620013a7565b60405180910390a15050565b6129bd806200167283390190565b600080fd5b6000819050919050565b62000dae8162000d99565b811462000dba57600080fd5b50565b60008135905062000dce8162000da3565b92915050565b6000806040838503121562000dee5762000ded62000d94565b5b600062000dfe8582860162000dbd565b925050602062000e118582860162000dbd565b9150509250929050565b62000e268162000d99565b82525050565b600060208201905062000e43600083018462000e1b565b92915050565b600073ffffffffffffffffffffffffffffffffffffffff82169050919050565b600062000e768262000e49565b9050919050565b62000e888162000e69565b811462000e9457600080fd5b50565b60008135905062000ea88162000e7d565b92915050565b60006020828403121562000ec75762000ec662000d94565b5b600062000ed78482850162000e97565b91505092915050565b60006020828403121562000ef95762000ef862000d94565b5b600062000f098482850162000dbd565b91505092915050565b62000f1d8162000e69565b82525050565b60008115159050919050565b62000f3a8162000f23565b82525050565b600060c08201905062000f57600083018962000e1b565b62000f66602083018862000e1b565b62000f75604083018762000f12565b62000f84606083018662000e1b565b62000f93608083018562000f2f565b62000fa260a083018462000f2f565b979650505050505050565b600060608201905062000fc4600083018662000f12565b62000fd3602083018562000f12565b62000fe2604083018462000e1b565b949350505050565b7f4e487b7100000000000000000000000000000000000000000000000000000000600052601160045260246000fd5b6000620010268262000d99565b91507fffffffffffffffffffffffffffffffffffffffffffffffffffffffffffffffff8214156200105c576200105b62000fea565b5b600182019050919050565b600082825260208201905092915050565b7f546865206f66666572206d757374206578697374000000000000000000000000600082015250565b6000620010b060148362001067565b9150620010bd8262001078565b602082019050919050565b60006020820190508181036000830152620010e381620010a1565b9050919050565b7f546865206f776e6572206f6620746865206f666665722063616e6e6f7420666960008201527f6c6c206974000000000000000000000000000000000000000000000000000000602082015250565b60006200114860258362001067565b91506200115582620010ea565b604082019050919050565b600060208201905081810360008301526200117b8162001139565b9050919050565b7f416e206f666665722063616e6e6f742062652066756c66696c6c65642074776960008201527f6365000000000000000000000000000000000000000000000000000000000000602082015250565b6000620011e060228362001067565b9150620011ed8262001182565b604082019050919050565b600060208201905081810360008301526200121381620011d1565b9050919050565b7f412063616e63656c6c6564206f666665722063616e6e6f742062652066756c6660008201527f696c6c6564000000000000000000000000000000000000000000000000000000602082015250565b60006200127860258362001067565b915062001285826200121a565b604082019050919050565b60006020820190508181036000830152620012ab8162001269565b9050919050565b7f5468652045544820616d6f756e742073686f756c64206d61746368207769746860008201527f20746865204e4654205072696365000000000000000000000000000000000000602082015250565b600062001310602e8362001067565b91506200131d82620012b2565b604082019050919050565b60006020820190508181036000830152620013438162001301565b9050919050565b6000620013578262000d99565b9150620013648362000d99565b9250827fffffffffffffffffffffffffffffffffffffffffffffffffffffffffffffffff038211156200139c576200139b62000fea565b5b828201905092915050565b6000606082019050620013be600083018662000e1b565b620013cd602083018562000e1b565b620013dc604083018462000f12565b949350505050565b7f54686973207573657220686173206e6f2066756e647320746f20626520636c6160008201527f696d656400000000000000000000000000000000000000000000000000000000602082015250565b60006200144260248362001067565b91506200144f82620013e4565b604082019050919050565b60006020820190508181036000830152620014758162001433565b9050919050565b600060408201905062001493600083018562000f12565b620014a2602083018462000e1b565b9392505050565b7f546865206f666665722063616e206f6e6c792062652063616e63656c6564206260008201527f7920746865206f776e6572000000000000000000000000000000000000000000602082015250565b600062001507602b8362001067565b91506200151482620014a9565b604082019050919050565b600060208201905081810360008301526200153a81620014f8565b9050919050565b7f412066756c66696c6c6564206f666665722063616e6e6f742062652063616e6360008201527f656c6c6564000000000000000000000000000000000000000000000000000000602082015250565b60006200159f60258362001067565b9150620015ac8262001541565b604082019050919050565b60006020820190508181036000830152620015d28162001590565b9050919050565b7f416e206f666665722063616e6e6f742062652063616e63656c6c65642074776960008201527f6365000000000000000000000000000000000000000000000000000000000000602082015250565b60006200163760228362001067565b91506200164482620015d9565b604082019050919050565b600060208201905081810360008301526200166a8162001628565b905091905056fe608060405266071afd498d00006005553480156200001c57600080fd5b50604051620029bd380380620029bd83398181016040528101906200004291906200046e565b6040518060400160405280600481526020017f6e616d65000000000000000000000000000000000000000000000000000000008152506040518060400160405280600681526020017f73796d626f6c00000000000000000000000000000000000000000000000000008152508160039080519060200190620000c69291906200037e565b508060049080519060200190620000df9291906200037e565b505050620000f43382620001fb60201b60201c565b604051806080016040528082815260200160055481526020014281526020018281525060096000820151816000015560208201518160010155604082015181600201556060820151816003015590505030600860006101000a81548173ffffffffffffffffffffffffffffffffffffffff021916908373ffffffffffffffffffffffffffffffffffffffff16021790555033600660006101000a81548173ffffffffffffffffffffffffffffffffffffffff021916908373ffffffffffffffffffffffffffffffffffffffff1602179055506000600d60006101000a81548160ff02191690836002811115620001ef57620001ee620004a0565b5b02179055505062000671565b600073ffffffffffffffffffffffffffffffffffffffff168273ffffffffffffffffffffffffffffffffffffffff1614156200026e576040517f08c379a0000000000000000000000000000000000000000000000000000000008152600401620002659062000530565b60405180910390fd5b62000282600083836200037460201b60201c565b806002600082825462000296919062000581565b92505081905550806000808473ffffffffffffffffffffffffffffffffffffffff1673ffffffffffffffffffffffffffffffffffffffff1681526020019081526020016000206000828254620002ed919062000581565b925050819055508173ffffffffffffffffffffffffffffffffffffffff16600073ffffffffffffffffffffffffffffffffffffffff167fddf252ad1be2c89b69c2b068fc378daa952ba7f163c4a11628f55a4df523b3ef83604051620003549190620005ef565b60405180910390a362000370600083836200037960201b60201c565b5050565b505050565b505050565b8280546200038c906200063b565b90600052602060002090601f016020900481019282620003b05760008555620003fc565b82601f10620003cb57805160ff1916838001178555620003fc565b82800160010185558215620003fc579182015b82811115620003fb578251825591602001919060010190620003de565b5b5090506200040b91906200040f565b5090565b5b808211156200042a57600081600090555060010162000410565b5090565b600080fd5b6000819050919050565b620004488162000433565b81146200045457600080fd5b50565b60008151905062000468816200043d565b92915050565b6000602082840312156200048757620004866200042e565b5b6000620004978482850162000457565b91505092915050565b7f4e487b7100000000000000000000000000000000000000000000000000000000600052602160045260246000fd5b600082825260208201905092915050565b7f45524332303a206d696e7420746f20746865207a65726f206164647265737300600082015250565b600062000518601f83620004cf565b91506200052582620004e0565b602082019050919050565b600060208201905081810360008301526200054b8162000509565b9050919050565b7f4e487b7100000000000000000000000000000000000000000000000000000000600052601160045260246000fd5b60006200058e8262000433565b91506200059b8362000433565b9250827fffffffffffffffffffffffffffffffffffffffffffffffffffffffffffffffff03821115620005d357620005d262000552565b5b828201905092915050565b620005e98162000433565b82525050565b6000602082019050620006066000830184620005de565b92915050565b7f4e487b7100000000000000000000000000000000000000000000000000000000600052602260045260246000fd5b600060028204905060018216806200065457607f821691505b602082108114156200066b576200066a6200060c565b5b50919050565b61233c80620006816000396000f3fe60806040526004361061011f5760003560e01c80638db57994116100a0578063d502562511610064578063d5025625146103ed578063dd62ed3e1461041b578063f6b4dfb414610458578063f966ade714610483578063feb554b81461049a5761011f565b80638db579941461030657806395d89b411461031d578063a457c2d714610348578063a9059cbb14610385578063c19d93fb146103c25761011f565b806339509351116100e7578063395093511461021f57806366581e061461025c57806369d812551461027357806370a082311461029e5780637ba61ea5146102db5761011f565b806306fdde0314610124578063095ea7b31461014f57806318160ddd1461018c57806323b872dd146101b7578063313ce567146101f4575b600080fd5b34801561013057600080fd5b506101396104a4565b60405161014691906115d2565b60405180910390f35b34801561015b57600080fd5b506101766004803603810190610171919061168d565b610536565b60405161018391906116e8565b60405180910390f35b34801561019857600080fd5b506101a1610559565b6040516101ae9190611712565b60405180910390f35b3480156101c357600080fd5b506101de60048036038101906101d9919061172d565b610563565b6040516101eb91906116e8565b60405180910390f35b34801561020057600080fd5b50610209610592565b604051610216919061179c565b60405180910390f35b34801561022b57600080fd5b506102466004803603810190610241919061168d565b61059b565b60405161025391906116e8565b60405180910390f35b34801561026857600080fd5b50610271610645565b005b34801561027f57600080fd5b506102886107ce565b60405161029591906117d8565b60405180910390f35b3480156102aa57600080fd5b506102c560048036038101906102c091906117f3565b6107f4565b6040516102d29190611712565b60405180910390f35b3480156102e757600080fd5b506102f061083c565b6040516102fd91906117d8565b60405180910390f35b34801561031257600080fd5b5061031b610862565b005b34801561032957600080fd5b506103326109af565b60405161033f91906115d2565b60405180910390f35b34801561035457600080fd5b5061036f600480360381019061036a919061168d565b610a41565b60405161037c91906116e8565b60405180910390f35b34801561039157600080fd5b506103ac60048036038101906103a7919061168d565b610b2b565b6040516103b991906116e8565b60405180910390f35b3480156103ce57600080fd5b506103d7610b4e565b6040516103e49190611897565b60405180910390f35b3480156103f957600080fd5b50610402610b61565b60405161041294939291906118b2565b60405180910390f35b34801561042757600080fd5b50610442600480360381019061043d91906118f7565b610b7f565b60405161044f9190611712565b60405180910390f35b34801561046457600080fd5b5061046d610c06565b60405161047a9190611946565b60405180910390f35b34801561048f57600080fd5b50610498610c2c565b005b6104a2610e5a565b005b6060600380546104b390611990565b80601f01602080910402602001604051908101604052809291908181526020018280546104df90611990565b801561052c5780601f106105015761010080835404028352916020019161052c565b820191906000526020600020905b81548152906001019060200180831161050f57829003601f168201915b5050505050905090565b60008061054161104f565b905061054e818585611057565b600191505092915050565b6000600254905090565b60008061056e61104f565b905061057b858285611222565b6105868585856112ae565b60019150509392505050565b60006012905090565b6000806105a661104f565b905061063a818585600160008673ffffffffffffffffffffffffffffffffffffffff1673ffffffffffffffffffffffffffffffffffffffff16815260200190815260200160002060008973ffffffffffffffffffffffffffffffffffffffff1673ffffffffffffffffffffffffffffffffffffffff1681526020019081526020016000205461063591906119f1565b611057565b600191505092915050565b600280600281111561065a57610659611820565b5b600d60009054906101000a900460ff16600281111561067c5761067b611820565b5b146106bc576040517f08c379a00000000000000000000000000000000000000000000000000000000081526004016106b390611adf565b60405180910390fd5b600660009054906101000a900473ffffffffffffffffffffffffffffffffffffffff1673ffffffffffffffffffffffffffffffffffffffff163373ffffffffffffffffffffffffffffffffffffffff161461074c576040517f08c379a000000000000000000000000000000000000000000000000000000000815260040161074390611b97565b60405180910390fd5b6009600201544211610793576040517f08c379a000000000000000000000000000000000000000000000000000000000815260040161078a90611c4f565b60405180910390fd5b600660009054906101000a900473ffffffffffffffffffffffffffffffffffffffff1673ffffffffffffffffffffffffffffffffffffffff16ff5b600660009054906101000a900473ffffffffffffffffffffffffffffffffffffffff1681565b60008060008373ffffffffffffffffffffffffffffffffffffffff1673ffffffffffffffffffffffffffffffffffffffff168152602001908152602001600020549050919050565b600760009054906101000a900473ffffffffffffffffffffffffffffffffffffffff1681565b600080600281111561087757610876611820565b5b600d60009054906101000a900460ff16600281111561089957610898611820565b5b146108d9576040517f08c379a00000000000000000000000000000000000000000000000000000000081526004016108d090611adf565b60405180910390fd5b6001600d60006101000a81548160ff021916908360028111156108ff576108fe611820565b5b0217905550600860009054906101000a900473ffffffffffffffffffffffffffffffffffffffff1673ffffffffffffffffffffffffffffffffffffffff166323b872dd33306009600001546040518463ffffffff1660e01b815260040161096893929190611cce565b6020604051808303816000875af1158015610987573d6000803e3d6000fd5b505050506040513d601f19601f820116820180604052508101906109ab9190611d31565b5050565b6060600480546109be90611990565b80601f01602080910402602001604051908101604052809291908181526020018280546109ea90611990565b8015610a375780601f10610a0c57610100808354040283529160200191610a37565b820191906000526020600020905b815481529060010190602001808311610a1a57829003601f168201915b5050505050905090565b600080610a4c61104f565b90506000600160008373ffffffffffffffffffffffffffffffffffffffff1673ffffffffffffffffffffffffffffffffffffffff16815260200190815260200160002060008673ffffffffffffffffffffffffffffffffffffffff1673ffffffffffffffffffffffffffffffffffffffff16815260200190815260200160002054905083811015610b12576040517f08c379a0000000000000000000000000000000000000000000000000000000008152600401610b0990611dd0565b60405180910390fd5b610b1f8286868403611057565b60019250505092915050565b600080610b3661104f565b9050610b438185856112ae565b600191505092915050565b600d60009054906101000a900460ff1681565b60098060000154908060010154908060020154908060030154905084565b6000600160008473ffffffffffffffffffffffffffffffffffffffff1673ffffffffffffffffffffffffffffffffffffffff16815260200190815260200160002060008373ffffffffffffffffffffffffffffffffffffffff1673ffffffffffffffffffffffffffffffffffffffff16815260200190815260200160002054905092915050565b600860009054906101000a900473ffffffffffffffffffffffffffffffffffffffff1681565b6002806002811115610c4157610c40611820565b5b600d60009054906101000a900460ff166002811115610c6357610c62611820565b5b14610ca3576040517f08c379a0000000000000000000000000000000000000000000000000000000008152600401610c9a90611adf565b60405180910390fd5b600760009054906101000a900473ffffffffffffffffffffffffffffffffffffffff1673ffffffffffffffffffffffffffffffffffffffff163373ffffffffffffffffffffffffffffffffffffffff1614610d33576040517f08c379a0000000000000000000000000000000000000000000000000000000008152600401610d2a90611e88565b60405180910390fd5b600860009054906101000a900473ffffffffffffffffffffffffffffffffffffffff1673ffffffffffffffffffffffffffffffffffffffff166323b872dd600760009054906101000a900473ffffffffffffffffffffffffffffffffffffffff16600660009054906101000a900473ffffffffffffffffffffffffffffffffffffffff166009600001546040518463ffffffff1660e01b8152600401610ddb93929190611ea8565b6020604051808303816000875af1158015610dfa573d6000803e3d6000fd5b505050506040513d601f19601f82011682018060405250810190610e1e9190611d31565b50600760009054906101000a900473ffffffffffffffffffffffffffffffffffffffff1673ffffffffffffffffffffffffffffffffffffffff16ff5b6001806002811115610e6f57610e6e611820565b5b600d60009054906101000a900460ff166002811115610e9157610e90611820565b5b14610ed1576040517f08c379a0000000000000000000000000000000000000000000000000000000008152600401610ec890611adf565b60405180910390fd5b6009600301543414610f18576040517f08c379a0000000000000000000000000000000000000000000000000000000008152600401610f0f90611f77565b60405180910390fd5b33600760006101000a81548173ffffffffffffffffffffffffffffffffffffffff021916908373ffffffffffffffffffffffffffffffffffffffff1602179055506002600d60006101000a81548160ff02191690836002811115610f7f57610f7e611820565b5b0217905550600860009054906101000a900473ffffffffffffffffffffffffffffffffffffffff1673ffffffffffffffffffffffffffffffffffffffff1663a9059cbb600760009054906101000a900473ffffffffffffffffffffffffffffffffffffffff166009600001546040518363ffffffff1660e01b8152600401611008929190611f97565b6020604051808303816000875af1158015611027573d6000803e3d6000fd5b505050506040513d601f19601f8201168201806040525081019061104b9190611d31565b5050565b600033905090565b600073ffffffffffffffffffffffffffffffffffffffff168373ffffffffffffffffffffffffffffffffffffffff1614156110c7576040517f08c379a00000000000000000000000000000000000000000000000000000000081526004016110be90612032565b60405180910390fd5b600073ffffffffffffffffffffffffffffffffffffffff168273ffffffffffffffffffffffffffffffffffffffff161415611137576040517f08c379a000000000000000000000000000000000000000000000000000000000815260040161112e906120c4565b60405180910390fd5b80600160008573ffffffffffffffffffffffffffffffffffffffff1673ffffffffffffffffffffffffffffffffffffffff16815260200190815260200160002060008473ffffffffffffffffffffffffffffffffffffffff1673ffffffffffffffffffffffffffffffffffffffff168152602001908152602001600020819055508173ffffffffffffffffffffffffffffffffffffffff168373ffffffffffffffffffffffffffffffffffffffff167f8c5be1e5ebec7d5bd14f71427d1e84f3dd0314c0f7b2291e5b200ac8c7c3b925836040516112159190611712565b60405180910390a3505050565b600061122e8484610b7f565b90507fffffffffffffffffffffffffffffffffffffffffffffffffffffffffffffffff81146112a8578181101561129a576040517f08c379a000000000000000000000000000000000000000000000000000000000815260040161129190612130565b60405180910390fd5b6112a78484848403611057565b5b50505050565b600073ffffffffffffffffffffffffffffffffffffffff168373ffffffffffffffffffffffffffffffffffffffff16141561131e576040517f08c379a0000000000000000000000000000000000000000000000000000000008152600401611315906121c2565b60405180910390fd5b600073ffffffffffffffffffffffffffffffffffffffff168273ffffffffffffffffffffffffffffffffffffffff16141561138e576040517f08c379a000000000000000000000000000000000000000000000000000000000815260040161138590612254565b60405180910390fd5b61139983838361152f565b60008060008573ffffffffffffffffffffffffffffffffffffffff1673ffffffffffffffffffffffffffffffffffffffff1681526020019081526020016000205490508181101561141f576040517f08c379a0000000000000000000000000000000000000000000000000000000008152600401611416906122e6565b60405180910390fd5b8181036000808673ffffffffffffffffffffffffffffffffffffffff1673ffffffffffffffffffffffffffffffffffffffff16815260200190815260200160002081905550816000808573ffffffffffffffffffffffffffffffffffffffff1673ffffffffffffffffffffffffffffffffffffffff16815260200190815260200160002060008282546114b291906119f1565b925050819055508273ffffffffffffffffffffffffffffffffffffffff168473ffffffffffffffffffffffffffffffffffffffff167fddf252ad1be2c89b69c2b068fc378daa952ba7f163c4a11628f55a4df523b3ef846040516115169190611712565b60405180910390a3611529848484611534565b50505050565b505050565b505050565b600081519050919050565b600082825260208201905092915050565b60005b83811015611573578082015181840152602081019050611558565b83811115611582576000848401525b50505050565b6000601f19601f8301169050919050565b60006115a482611539565b6115ae8185611544565b93506115be818560208601611555565b6115c781611588565b840191505092915050565b600060208201905081810360008301526115ec8184611599565b905092915050565b600080fd5b600073ffffffffffffffffffffffffffffffffffffffff82169050919050565b6000611624826115f9565b9050919050565b61163481611619565b811461163f57600080fd5b50565b6000813590506116518161162b565b92915050565b6000819050919050565b61166a81611657565b811461167557600080fd5b50565b60008135905061168781611661565b92915050565b600080604083850312156116a4576116a36115f4565b5b60006116b285828601611642565b92505060206116c385828601611678565b9150509250929050565b60008115159050919050565b6116e2816116cd565b82525050565b60006020820190506116fd60008301846116d9565b92915050565b61170c81611657565b82525050565b60006020820190506117276000830184611703565b92915050565b600080600060608486031215611746576117456115f4565b5b600061175486828701611642565b935050602061176586828701611642565b925050604061177686828701611678565b9150509250925092565b600060ff82169050919050565b61179681611780565b82525050565b60006020820190506117b1600083018461178d565b92915050565b60006117c2826115f9565b9050919050565b6117d2816117b7565b82525050565b60006020820190506117ed60008301846117c9565b92915050565b600060208284031215611809576118086115f4565b5b600061181784828501611642565b91505092915050565b7f4e487b7100000000000000000000000000000000000000000000000000000000600052602160045260246000fd5b600381106118605761185f611820565b5b50565b60008190506118718261184f565b919050565b600061188182611863565b9050919050565b61189181611876565b82525050565b60006020820190506118ac6000830184611888565b92915050565b60006080820190506118c76000830187611703565b6118d46020830186611703565b6118e16040830185611703565b6118ee6060830184611703565b95945050505050565b6000806040838503121561190e5761190d6115f4565b5b600061191c85828601611642565b925050602061192d85828601611642565b9150509250929050565b61194081611619565b82525050565b600060208201905061195b6000830184611937565b92915050565b7f4e487b7100000000000000000000000000000000000000000000000000000000600052602260045260246000fd5b600060028204905060018216806119a857607f821691505b602082108114156119bc576119bb611961565b5b50919050565b7f4e487b7100000000000000000000000000000000000000000000000000000000600052601160045260246000fd5b60006119fc82611657565b9150611a0783611657565b9250827fffffffffffffffffffffffffffffffffffffffffffffffffffffffffffffffff03821115611a3c57611a3b6119c2565b5b828201905092915050565b7f4e6f7420616c6c6f7765643a20546869732066756e6374696f6e2063616e206f60008201527f6e6c7920626520706572666f726d656420696e206120646966666572656e742060208201527f636f6e74726163742073746174652e0000000000000000000000000000000000604082015250565b6000611ac9604f83611544565b9150611ad482611a47565b606082019050919050565b60006020820190508181036000830152611af881611abc565b9050919050565b7f4f6e6c7920746865206c656e6465722063616e206c697175696461746520746860008201527f6973206c6f616e20616e6420636f6c6c6563742074686520636f6c6c6174657260208201527f616c2e0000000000000000000000000000000000000000000000000000000000604082015250565b6000611b81604383611544565b9150611b8c82611aff565b606082019050919050565b60006020820190508181036000830152611bb081611b74565b9050919050565b7f596f752063616e6e6f74206c69717569646174652074686973206c6f616e207560008201527f6e74696c207468652072657061796d656e74206475652064617465206861732060208201527f7061737365642e00000000000000000000000000000000000000000000000000604082015250565b6000611c39604783611544565b9150611c4482611bb7565b606082019050919050565b60006020820190508181036000830152611c6881611c2c565b9050919050565b6000819050919050565b6000611c94611c8f611c8a846115f9565b611c6f565b6115f9565b9050919050565b6000611ca682611c79565b9050919050565b6000611cb882611c9b565b9050919050565b611cc881611cad565b82525050565b6000606082019050611ce36000830186611cbf565b611cf06020830185611937565b611cfd6040830184611703565b949350505050565b611d0e816116cd565b8114611d1957600080fd5b50565b600081519050611d2b81611d05565b92915050565b600060208284031215611d4757611d466115f4565b5b6000611d5584828501611d1c565b91505092915050565b7f45524332303a2064656372656173656420616c6c6f77616e63652062656c6f7760008201527f207a65726f000000000000000000000000000000000000000000000000000000602082015250565b6000611dba602583611544565b9150611dc582611d5e565b604082019050919050565b60006020820190508181036000830152611de981611dad565b9050919050565b7f4f6e6c792074686520626f72726f7765722063616e207265706179207468697360008201527f206c6f616e20616e6420636f6c6c65637420746865697220636f6c6c6174657260208201527f616c2e0000000000000000000000000000000000000000000000000000000000604082015250565b6000611e72604383611544565b9150611e7d82611df0565b606082019050919050565b60006020820190508181036000830152611ea181611e65565b9050919050565b6000606082019050611ebd6000830186611cbf565b611eca6020830185611cbf565b611ed76040830184611703565b949350505050565b7f496e76616c696420636f6c6c61746572616c20616d6f756e742e20506c65617360008201527f65206d6174636820746f20746865206167726565642075706f6e207465726d7360208201527f2e00000000000000000000000000000000000000000000000000000000000000604082015250565b6000611f61604183611544565b9150611f6c82611edf565b606082019050919050565b60006020820190508181036000830152611f9081611f54565b9050919050565b6000604082019050611fac6000830185611cbf565b611fb96020830184611703565b9392505050565b7f45524332303a20617070726f76652066726f6d20746865207a65726f2061646460008201527f7265737300000000000000000000000000000000000000000000000000000000602082015250565b600061201c602483611544565b915061202782611fc0565b604082019050919050565b6000602082019050818103600083015261204b8161200f565b9050919050565b7f45524332303a20617070726f766520746f20746865207a65726f20616464726560008201527f7373000000000000000000000000000000000000000000000000000000000000602082015250565b60006120ae602283611544565b91506120b982612052565b604082019050919050565b600060208201905081810360008301526120dd816120a1565b9050919050565b7f45524332303a20696e73756666696369656e7420616c6c6f77616e6365000000600082015250565b600061211a601d83611544565b9150612125826120e4565b602082019050919050565b600060208201905081810360008301526121498161210d565b9050919050565b7f45524332303a207472616e736665722066726f6d20746865207a65726f20616460008201527f6472657373000000000000000000000000000000000000000000000000000000602082015250565b60006121ac602583611544565b91506121b782612150565b604082019050919050565b600060208201905081810360008301526121db8161219f565b9050919050565b7f45524332303a207472616e7366657220746f20746865207a65726f206164647260008201527f6573730000000000000000000000000000000000000000000000000000000000602082015250565b600061223e602383611544565b9150612249826121e2565b604082019050919050565b6000602082019050818103600083015261226d81612231565b9050919050565b7f45524332303a207472616e7366657220616d6f756e742065786365656473206260008201527f616c616e63650000000000000000000000000000000000000000000000000000602082015250565b60006122d0602683611544565b91506122db82612274565b604082019050919050565b600060208201905081810360008301526122ff816122c3565b905091905056fea2646970667358221220bc7a2445667680e77eff97a2a2acee8cfd0b4268ad36cfbf044ce93ff83a467364736f6c634300080b0033a2646970667358221220c67c08ee83bc228f671282d13a292382014c690e4b91fd92678d10fd3bfd5ec864736f6c634300080b0033",
  "immutableReferences": {},
  "source": "// SPDX-License-Identifier: MIT\r\npragma solidity ^0.8.0;\r\n\r\nimport \"./NFTCollection.sol\";\r\nimport \"./ERC20LoanSimple.sol\";\r\n\r\ncontract NFTMarketplace {\r\n  uint public offerCount;\r\n  mapping (uint => _Offer) public offers;\r\n  mapping (address => uint) public userFunds;\r\n  NFTCollection nftCollection;\r\n  PersonalLoanNFTCollateral nftCollateral;\r\n\r\n  struct _Offer {\r\n    uint offerId;\r\n    uint id;\r\n    address user;\r\n    uint price;\r\n    bool fulfilled;\r\n    bool cancelled;\r\n  }\r\n\r\n  event Offer(\r\n    uint offerId,\r\n    uint id,\r\n    address user,\r\n    uint price,\r\n    bool fulfilled,\r\n    bool cancelled\r\n  );\r\n\r\n  event OfferFilled(uint offerId, uint id, address newOwner);\r\n  event OfferCancelled(uint offerId, uint id, address owner);\r\n  event ClaimFunds(address user, uint amount);\r\n\r\n  constructor(address _nftCollection) {\r\n    nftCollection = NFTCollection(_nftCollection);\r\n  }\r\n  \r\n  function makeOffer(uint _id, uint _price) public {\r\n\r\n    // https://docs.openzeppelin.com/contracts/2.x/api/token/erc721\r\n    nftCollection.transferFrom(\r\n            msg.sender,     // from\r\n            address(this),  // to\r\n            _id);           // rokenId\r\n    offerCount ++;\r\n    offers[offerCount] = _Offer(offerCount, _id, msg.sender, _price, false, false);\r\n    emit Offer(offerCount, _id, msg.sender, _price, false, false);\r\n  }\r\n\r\n  function fundLoan(uint totalLoanAmountETH) public {\r\n\r\n    nftCollateral = new PersonalLoanNFTCollateral( uint256(totalLoanAmountETH) );\r\n    nftCollateral.fundLoan();\r\n  }\r\n\r\n  function fillOffer(uint _offerId) public payable {\r\n    _Offer storage _offer = offers[_offerId];\r\n    require(_offer.offerId == _offerId, 'The offer must exist');\r\n    require(_offer.user != msg.sender, 'The owner of the offer cannot fill it');\r\n    require(!_offer.fulfilled, 'An offer cannot be fulfilled twice');\r\n    require(!_offer.cancelled, 'A cancelled offer cannot be fulfilled');\r\n    require(msg.value == _offer.price, 'The ETH amount should match with the NFT Price');\r\n    nftCollection.transferFrom(address(this), msg.sender, _offer.id);\r\n    _offer.fulfilled = true;\r\n    userFunds[_offer.user] += msg.value;\r\n    emit OfferFilled(_offerId, _offer.id, msg.sender);\r\n  }\r\n\r\n  function cancelOffer(uint _offerId) public {\r\n    _Offer storage _offer = offers[_offerId];\r\n    require(_offer.offerId == _offerId, 'The offer must exist');\r\n    require(_offer.user == msg.sender, 'The offer can only be canceled by the owner');\r\n    require(_offer.fulfilled == false, 'A fulfilled offer cannot be cancelled');\r\n    require(_offer.cancelled == false, 'An offer cannot be cancelled twice');\r\n    nftCollection.transferFrom(address(this), msg.sender, _offer.id);\r\n    _offer.cancelled = true;\r\n    emit OfferCancelled(_offerId, _offer.id, msg.sender);\r\n  }\r\n\r\n  function claimFunds() public {\r\n    require(userFunds[msg.sender] > 0, 'This user has no funds to be claimed');\r\n    payable(msg.sender).transfer(userFunds[msg.sender]);\r\n    emit ClaimFunds(msg.sender, userFunds[msg.sender]);\r\n    userFunds[msg.sender] = 0;    \r\n  }\r\n\r\n  // Fallback: reverts if Ether is sent to this smart-contract by mistake\r\n  fallback () external {\r\n    revert();\r\n  }\r\n}",
  "sourcePath": "D:\\03.block-chain\\01.miquelTC__nft-marketplace\\test-proj\\nft-marketplace-master\\src\\contracts\\NFTMarketplace.sol",
  "compiler": {
    "name": "solc",
    "version": "0.8.11+commit.d7f03943.Emscripten.clang"
  },
  "schemaVersion": "3.4.4",
  "updatedAt": "2022-02-16T08:50:19.485Z",
  "devdoc": {
    "kind": "dev",
    "methods": {},
    "version": 1
  },
  "userdoc": {
    "kind": "user",
    "methods": {},
    "version": 1
  }
}