{
  "contractName": "NFTMarketplace",
  "abi": [
    {
      "inputs": [
        {
          "internalType": "address",
          "name": "_nftCollection",
          "type": "address"
        }
      ],
      "stateMutability": "nonpayable",
      "type": "constructor"
    },
    {
      "anonymous": false,
      "inputs": [
        {
          "indexed": false,
          "internalType": "address",
          "name": "user",
          "type": "address"
        },
        {
          "indexed": false,
          "internalType": "uint256",
          "name": "amount",
          "type": "uint256"
        }
      ],
      "name": "ClaimFunds",
      "type": "event"
    },
    {
      "anonymous": false,
      "inputs": [
        {
          "indexed": false,
          "internalType": "uint256",
          "name": "offerId",
          "type": "uint256"
        },
        {
          "indexed": false,
          "internalType": "address",
          "name": "id",
          "type": "address"
        },
        {
          "indexed": false,
          "internalType": "address",
          "name": "newOwner",
          "type": "address"
        }
      ],
      "name": "CollateralOffered",
      "type": "event"
    },
    {
      "anonymous": false,
      "inputs": [
        {
          "indexed": false,
          "internalType": "uint256",
          "name": "offerId",
          "type": "uint256"
        },
        {
          "indexed": false,
          "internalType": "uint256",
          "name": "id",
          "type": "uint256"
        },
        {
          "indexed": false,
          "internalType": "address",
          "name": "user",
          "type": "address"
        },
        {
          "indexed": false,
          "internalType": "uint256",
          "name": "price",
          "type": "uint256"
        },
        {
          "indexed": false,
          "internalType": "bool",
          "name": "fulfilled",
          "type": "bool"
        },
        {
          "indexed": false,
          "internalType": "bool",
          "name": "cancelled",
          "type": "bool"
        }
      ],
      "name": "Offer",
      "type": "event"
    },
    {
      "anonymous": false,
      "inputs": [
        {
          "indexed": false,
          "internalType": "uint256",
          "name": "offerId",
          "type": "uint256"
        },
        {
          "indexed": false,
          "internalType": "uint256",
          "name": "id",
          "type": "uint256"
        },
        {
          "indexed": false,
          "internalType": "address",
          "name": "owner",
          "type": "address"
        }
      ],
      "name": "OfferCancelled",
      "type": "event"
    },
    {
      "anonymous": false,
      "inputs": [
        {
          "indexed": false,
          "internalType": "uint256",
          "name": "offerId",
          "type": "uint256"
        },
        {
          "indexed": false,
          "internalType": "uint256",
          "name": "id",
          "type": "uint256"
        },
        {
          "indexed": false,
          "internalType": "address",
          "name": "newOwner",
          "type": "address"
        }
      ],
      "name": "OfferFilled",
      "type": "event"
    },
    {
      "stateMutability": "nonpayable",
      "type": "fallback"
    },
    {
      "inputs": [],
      "name": "offerCount",
      "outputs": [
        {
          "internalType": "uint256",
          "name": "",
          "type": "uint256"
        }
      ],
      "stateMutability": "view",
      "type": "function",
      "constant": true
    },
    {
      "inputs": [
        {
          "internalType": "uint256",
          "name": "",
          "type": "uint256"
        }
      ],
      "name": "offers",
      "outputs": [
        {
          "internalType": "uint256",
          "name": "offerId",
          "type": "uint256"
        },
        {
          "internalType": "uint256",
          "name": "id",
          "type": "uint256"
        },
        {
          "internalType": "address",
          "name": "user",
          "type": "address"
        },
        {
          "internalType": "uint256",
          "name": "price",
          "type": "uint256"
        },
        {
          "internalType": "bool",
          "name": "fulfilled",
          "type": "bool"
        },
        {
          "internalType": "bool",
          "name": "cancelled",
          "type": "bool"
        }
      ],
      "stateMutability": "view",
      "type": "function",
      "constant": true
    },
    {
      "inputs": [
        {
          "internalType": "address",
          "name": "",
          "type": "address"
        }
      ],
      "name": "userFunds",
      "outputs": [
        {
          "internalType": "uint256",
          "name": "",
          "type": "uint256"
        }
      ],
      "stateMutability": "view",
      "type": "function",
      "constant": true
    },
    {
      "inputs": [
        {
          "internalType": "uint256",
          "name": "_id",
          "type": "uint256"
        },
        {
          "internalType": "uint256",
          "name": "totalLoanAmountETH",
          "type": "uint256"
        }
      ],
      "name": "fundLoan",
      "outputs": [],
      "stateMutability": "nonpayable",
      "type": "function"
    },
    {
      "inputs": [
        {
          "internalType": "uint256",
          "name": "_id",
          "type": "uint256"
        },
        {
          "internalType": "uint256",
          "name": "_price",
          "type": "uint256"
        }
      ],
      "name": "makeOffer",
      "outputs": [],
      "stateMutability": "nonpayable",
      "type": "function"
    },
    {
      "inputs": [
        {
          "internalType": "uint256",
          "name": "_offerId",
          "type": "uint256"
        }
      ],
      "name": "fillOffer",
      "outputs": [],
      "stateMutability": "payable",
      "type": "function",
      "payable": true
    },
    {
      "inputs": [
        {
          "internalType": "uint256",
          "name": "_offerId",
          "type": "uint256"
        }
      ],
      "name": "cancelOffer",
      "outputs": [],
      "stateMutability": "nonpayable",
      "type": "function"
    },
    {
      "inputs": [],
      "name": "claimFunds",
      "outputs": [],
      "stateMutability": "nonpayable",
      "type": "function"
    }
  ],
  "bytecode": "0x60806040523480156200001157600080fd5b5060405162004222380380620042228339818101604052810190620000379190620000e9565b80600360006101000a81548173ffffffffffffffffffffffffffffffffffffffff021916908373ffffffffffffffffffffffffffffffffffffffff160217905550506200011b565b600080fd5b600073ffffffffffffffffffffffffffffffffffffffff82169050919050565b6000620000b18262000084565b9050919050565b620000c381620000a4565b8114620000cf57600080fd5b50565b600081519050620000e381620000b8565b92915050565b6000602082840312156200010257620001016200007f565b5b60006200011284828501620000d2565b91505092915050565b6140f7806200012b6000396000f3fe6080604052600436106200008b5760003560e01c80638a72ea6a11620000555780638a72ea6a1462000161578063ac30777314620001aa578063ef706adf14620001c4578063f4512bb614620001f2576200008c565b806305b7cdd3146200009f5780631115c24d14620000cd5780638387c6e114620000fd57806385dba8611462000141576200008c565b5b3480156200009957600080fd5b50600080fd5b348015620000ac57600080fd5b50620000cb6004803603810190620000c5919062000e18565b62000220565b005b348015620000da57600080fd5b50620000e56200041f565b604051620000f4919062000e70565b60405180910390f35b3480156200010a57600080fd5b5062000129600480360381019062000123919062000ef2565b62000425565b60405162000138919062000e70565b60405180910390f35b6200015f600480360381019062000159919062000f24565b6200043d565b005b3480156200016e57600080fd5b506200018d600480360381019062000187919062000f24565b6200079d565b604051620001a19695949392919062000f84565b60405180910390f35b348015620001b757600080fd5b50620001c262000813565b005b348015620001d157600080fd5b50620001f06004803603810190620001ea919062000f24565b620009e0565b005b348015620001ff57600080fd5b506200021e600480360381019062000218919062000e18565b62000c86565b005b600360009054906101000a900473ffffffffffffffffffffffffffffffffffffffff1673ffffffffffffffffffffffffffffffffffffffff166323b872dd3330856040518463ffffffff1660e01b8152600401620002819392919062000ff1565b600060405180830381600087803b1580156200029c57600080fd5b505af1158015620002b1573d6000803e3d6000fd5b50505050600080815480929190620002c9906200105d565b91905055506040518060c0016040528060005481526020018381526020013373ffffffffffffffffffffffffffffffffffffffff168152602001828152602001600015158152602001600015158152506001600080548152602001908152602001600020600082015181600001556020820151816001015560408201518160020160006101000a81548173ffffffffffffffffffffffffffffffffffffffff021916908373ffffffffffffffffffffffffffffffffffffffff1602179055506060820151816003015560808201518160040160006101000a81548160ff02191690831515021790555060a08201518160040160016101000a81548160ff0219169083151502179055509050507f93e711896d4ef527d199d7e101922e20f918cbb248a0fb0977c52fda24aa1f1d600054833384600080604051620004139695949392919062000f84565b60405180910390a15050565b60005481565b60026020528060005260406000206000915090505481565b6000600160008381526020019081526020016000209050818160000154146200049d576040517f08c379a000000000000000000000000000000000000000000000000000000000815260040162000494906200110c565b60405180910390fd5b3373ffffffffffffffffffffffffffffffffffffffff168160020160009054906101000a900473ffffffffffffffffffffffffffffffffffffffff1673ffffffffffffffffffffffffffffffffffffffff16141562000533576040517f08c379a00000000000000000000000000000000000000000000000000000000081526004016200052a90620011a4565b60405180910390fd5b8060040160009054906101000a900460ff161562000588576040517f08c379a00000000000000000000000000000000000000000000000000000000081526004016200057f906200123c565b60405180910390fd5b8060040160019054906101000a900460ff1615620005dd576040517f08c379a0000000000000000000000000000000000000000000000000000000008152600401620005d490620012d4565b60405180910390fd5b8060030154341462000626576040517f08c379a00000000000000000000000000000000000000000000000000000000081526004016200061d906200136c565b60405180910390fd5b600360009054906101000a900473ffffffffffffffffffffffffffffffffffffffff1673ffffffffffffffffffffffffffffffffffffffff166323b872dd303384600101546040518463ffffffff1660e01b81526004016200068b9392919062000ff1565b600060405180830381600087803b158015620006a657600080fd5b505af1158015620006bb573d6000803e3d6000fd5b5050505060018160040160006101000a81548160ff02191690831515021790555034600260008360020160009054906101000a900473ffffffffffffffffffffffffffffffffffffffff1673ffffffffffffffffffffffffffffffffffffffff1673ffffffffffffffffffffffffffffffffffffffff16815260200190815260200160002060008282546200075191906200138e565b925050819055507fd9157c065213ada613694e84b1e27fe2efd62d85c6b82bd6c842a4999491e72a828260010154336040516200079193929190620013eb565b60405180910390a15050565b60016020528060005260406000206000915090508060000154908060010154908060020160009054906101000a900473ffffffffffffffffffffffffffffffffffffffff16908060030154908060040160009054906101000a900460ff16908060040160019054906101000a900460ff16905086565b6000600260003373ffffffffffffffffffffffffffffffffffffffff1673ffffffffffffffffffffffffffffffffffffffff168152602001908152602001600020541162000898576040517f08c379a00000000000000000000000000000000000000000000000000000000081526004016200088f906200149e565b60405180910390fd5b3373ffffffffffffffffffffffffffffffffffffffff166108fc600260003373ffffffffffffffffffffffffffffffffffffffff1673ffffffffffffffffffffffffffffffffffffffff168152602001908152602001600020549081150290604051600060405180830381858888f193505050501580156200091e573d6000803e3d6000fd5b507f4f0554190111f93f8c2ccef2cc41473f187d7f29ff5a5c308ca41f9dfe4e989a33600260003373ffffffffffffffffffffffffffffffffffffffff1673ffffffffffffffffffffffffffffffffffffffff1681526020019081526020016000205460405162000991929190620014c0565b60405180910390a16000600260003373ffffffffffffffffffffffffffffffffffffffff1673ffffffffffffffffffffffffffffffffffffffff16815260200190815260200160002081905550565b60006001600083815260200190815260200160002090508181600001541462000a40576040517f08c379a000000000000000000000000000000000000000000000000000000000815260040162000a37906200110c565b60405180910390fd5b3373ffffffffffffffffffffffffffffffffffffffff168160020160009054906101000a900473ffffffffffffffffffffffffffffffffffffffff1673ffffffffffffffffffffffffffffffffffffffff161462000ad5576040517f08c379a000000000000000000000000000000000000000000000000000000000815260040162000acc9062001563565b60405180910390fd5b600015158160040160009054906101000a900460ff1615151462000b30576040517f08c379a000000000000000000000000000000000000000000000000000000000815260040162000b2790620015fb565b60405180910390fd5b600015158160040160019054906101000a900460ff1615151462000b8b576040517f08c379a000000000000000000000000000000000000000000000000000000000815260040162000b829062001693565b60405180910390fd5b600360009054906101000a900473ffffffffffffffffffffffffffffffffffffffff1673ffffffffffffffffffffffffffffffffffffffff166323b872dd303384600101546040518463ffffffff1660e01b815260040162000bf09392919062000ff1565b600060405180830381600087803b15801562000c0b57600080fd5b505af115801562000c20573d6000803e3d6000fd5b5050505060018160040160016101000a81548160ff0219169083151502179055507f5b166b4d0498ff8c4719999cb6154c5d197e6f020f9fbfcf9d347f84576cfab78282600101543360405162000c7a93929190620013eb565b60405180910390a15050565b8060405162000c959062000dca565b62000ca1919062000e70565b604051809103906000f08015801562000cbe573d6000803e3d6000fd5b50600460006101000a81548173ffffffffffffffffffffffffffffffffffffffff021916908373ffffffffffffffffffffffffffffffffffffffff160217905550600460009054906101000a900473ffffffffffffffffffffffffffffffffffffffff1673ffffffffffffffffffffffffffffffffffffffff16638db579946040518163ffffffff1660e01b8152600401600060405180830381600087803b15801562000d6a57600080fd5b505af115801562000d7f573d6000803e3d6000fd5b5050505060008290507fb7bea2986992da148c223ad765d8ea43b9e9424442cf262942fcabef3cf5eba081303360405162000dbd93929190620016b5565b60405180910390a1505050565b6129cf80620016f383390190565b600080fd5b6000819050919050565b62000df28162000ddd565b811462000dfe57600080fd5b50565b60008135905062000e128162000de7565b92915050565b6000806040838503121562000e325762000e3162000dd8565b5b600062000e428582860162000e01565b925050602062000e558582860162000e01565b9150509250929050565b62000e6a8162000ddd565b82525050565b600060208201905062000e87600083018462000e5f565b92915050565b600073ffffffffffffffffffffffffffffffffffffffff82169050919050565b600062000eba8262000e8d565b9050919050565b62000ecc8162000ead565b811462000ed857600080fd5b50565b60008135905062000eec8162000ec1565b92915050565b60006020828403121562000f0b5762000f0a62000dd8565b5b600062000f1b8482850162000edb565b91505092915050565b60006020828403121562000f3d5762000f3c62000dd8565b5b600062000f4d8482850162000e01565b91505092915050565b62000f618162000ead565b82525050565b60008115159050919050565b62000f7e8162000f67565b82525050565b600060c08201905062000f9b600083018962000e5f565b62000faa602083018862000e5f565b62000fb9604083018762000f56565b62000fc8606083018662000e5f565b62000fd7608083018562000f73565b62000fe660a083018462000f73565b979650505050505050565b600060608201905062001008600083018662000f56565b62001017602083018562000f56565b62001026604083018462000e5f565b949350505050565b7f4e487b7100000000000000000000000000000000000000000000000000000000600052601160045260246000fd5b60006200106a8262000ddd565b91507fffffffffffffffffffffffffffffffffffffffffffffffffffffffffffffffff821415620010a0576200109f6200102e565b5b600182019050919050565b600082825260208201905092915050565b7f546865206f66666572206d757374206578697374000000000000000000000000600082015250565b6000620010f4601483620010ab565b91506200110182620010bc565b602082019050919050565b600060208201905081810360008301526200112781620010e5565b9050919050565b7f546865206f776e6572206f6620746865206f666665722063616e6e6f7420666960008201527f6c6c206974000000000000000000000000000000000000000000000000000000602082015250565b60006200118c602583620010ab565b915062001199826200112e565b604082019050919050565b60006020820190508181036000830152620011bf816200117d565b9050919050565b7f416e206f666665722063616e6e6f742062652066756c66696c6c65642074776960008201527f6365000000000000000000000000000000000000000000000000000000000000602082015250565b600062001224602283620010ab565b91506200123182620011c6565b604082019050919050565b60006020820190508181036000830152620012578162001215565b9050919050565b7f412063616e63656c6c6564206f666665722063616e6e6f742062652066756c6660008201527f696c6c6564000000000000000000000000000000000000000000000000000000602082015250565b6000620012bc602583620010ab565b9150620012c9826200125e565b604082019050919050565b60006020820190508181036000830152620012ef81620012ad565b9050919050565b7f5468652045544820616d6f756e742073686f756c64206d61746368207769746860008201527f20746865204e4654205072696365000000000000000000000000000000000000602082015250565b600062001354602e83620010ab565b91506200136182620012f6565b604082019050919050565b60006020820190508181036000830152620013878162001345565b9050919050565b60006200139b8262000ddd565b9150620013a88362000ddd565b9250827fffffffffffffffffffffffffffffffffffffffffffffffffffffffffffffffff03821115620013e057620013df6200102e565b5b828201905092915050565b600060608201905062001402600083018662000e5f565b62001411602083018562000e5f565b62001420604083018462000f56565b949350505050565b7f54686973207573657220686173206e6f2066756e647320746f20626520636c6160008201527f696d656400000000000000000000000000000000000000000000000000000000602082015250565b600062001486602483620010ab565b9150620014938262001428565b604082019050919050565b60006020820190508181036000830152620014b98162001477565b9050919050565b6000604082019050620014d7600083018562000f56565b620014e6602083018462000e5f565b9392505050565b7f546865206f666665722063616e206f6e6c792062652063616e63656c6564206260008201527f7920746865206f776e6572000000000000000000000000000000000000000000602082015250565b60006200154b602b83620010ab565b91506200155882620014ed565b604082019050919050565b600060208201905081810360008301526200157e816200153c565b9050919050565b7f412066756c66696c6c6564206f666665722063616e6e6f742062652063616e6360008201527f656c6c6564000000000000000000000000000000000000000000000000000000602082015250565b6000620015e3602583620010ab565b9150620015f08262001585565b604082019050919050565b600060208201905081810360008301526200161681620015d4565b9050919050565b7f416e206f666665722063616e6e6f742062652063616e63656c6c65642074776960008201527f6365000000000000000000000000000000000000000000000000000000000000602082015250565b60006200167b602283620010ab565b915062001688826200161d565b604082019050919050565b60006020820190508181036000830152620016ae816200166c565b9050919050565b6000606082019050620016cc600083018662000e5f565b620016db602083018562000f56565b620016ea604083018462000f56565b94935050505056fe608060405266071afd498d00006005553480156200001c57600080fd5b50604051620029cf380380620029cf83398181016040528101906200004291906200046e565b6040518060400160405280600481526020017f6e616d65000000000000000000000000000000000000000000000000000000008152506040518060400160405280600681526020017f73796d626f6c00000000000000000000000000000000000000000000000000008152508160039080519060200190620000c69291906200037e565b508060049080519060200190620000df9291906200037e565b505050620000f43382620001fb60201b60201c565b604051806080016040528082815260200160055481526020014281526020018281525060096000820151816000015560208201518160010155604082015181600201556060820151816003015590505030600860006101000a81548173ffffffffffffffffffffffffffffffffffffffff021916908373ffffffffffffffffffffffffffffffffffffffff16021790555033600660006101000a81548173ffffffffffffffffffffffffffffffffffffffff021916908373ffffffffffffffffffffffffffffffffffffffff1602179055506000600d60006101000a81548160ff02191690836002811115620001ef57620001ee620004a0565b5b02179055505062000671565b600073ffffffffffffffffffffffffffffffffffffffff168273ffffffffffffffffffffffffffffffffffffffff1614156200026e576040517f08c379a0000000000000000000000000000000000000000000000000000000008152600401620002659062000530565b60405180910390fd5b62000282600083836200037460201b60201c565b806002600082825462000296919062000581565b92505081905550806000808473ffffffffffffffffffffffffffffffffffffffff1673ffffffffffffffffffffffffffffffffffffffff1681526020019081526020016000206000828254620002ed919062000581565b925050819055508173ffffffffffffffffffffffffffffffffffffffff16600073ffffffffffffffffffffffffffffffffffffffff167fddf252ad1be2c89b69c2b068fc378daa952ba7f163c4a11628f55a4df523b3ef83604051620003549190620005ef565b60405180910390a362000370600083836200037960201b60201c565b5050565b505050565b505050565b8280546200038c906200063b565b90600052602060002090601f016020900481019282620003b05760008555620003fc565b82601f10620003cb57805160ff1916838001178555620003fc565b82800160010185558215620003fc579182015b82811115620003fb578251825591602001919060010190620003de565b5b5090506200040b91906200040f565b5090565b5b808211156200042a57600081600090555060010162000410565b5090565b600080fd5b6000819050919050565b620004488162000433565b81146200045457600080fd5b50565b60008151905062000468816200043d565b92915050565b6000602082840312156200048757620004866200042e565b5b6000620004978482850162000457565b91505092915050565b7f4e487b7100000000000000000000000000000000000000000000000000000000600052602160045260246000fd5b600082825260208201905092915050565b7f45524332303a206d696e7420746f20746865207a65726f206164647265737300600082015250565b600062000518601f83620004cf565b91506200052582620004e0565b602082019050919050565b600060208201905081810360008301526200054b8162000509565b9050919050565b7f4e487b7100000000000000000000000000000000000000000000000000000000600052601160045260246000fd5b60006200058e8262000433565b91506200059b8362000433565b9250827fffffffffffffffffffffffffffffffffffffffffffffffffffffffffffffffff03821115620005d357620005d262000552565b5b828201905092915050565b620005e98162000433565b82525050565b6000602082019050620006066000830184620005de565b92915050565b7f4e487b7100000000000000000000000000000000000000000000000000000000600052602260045260246000fd5b600060028204905060018216806200065457607f821691505b602082108114156200066b576200066a6200060c565b5b50919050565b61234e80620006816000396000f3fe6080604052600436106101235760003560e01c80638db57994116100a0578063d502562511610064578063d5025625146103ff578063dd62ed3e1461042d578063f6b4dfb41461046a578063f966ade714610495578063feb554b8146104ac57610124565b80638db579941461031857806395d89b411461032f578063a457c2d71461035a578063a9059cbb14610397578063c19d93fb146103d457610124565b806339509351116100e7578063395093511461023157806366581e061461026e57806369d812551461028557806370a08231146102b05780637ba61ea5146102ed57610124565b806306fdde0314610136578063095ea7b31461016157806318160ddd1461019e57806323b872dd146101c9578063313ce5671461020657610124565b5b34801561013057600080fd5b50600080fd5b34801561014257600080fd5b5061014b6104b6565b60405161015891906115e4565b60405180910390f35b34801561016d57600080fd5b506101886004803603810190610183919061169f565b610548565b60405161019591906116fa565b60405180910390f35b3480156101aa57600080fd5b506101b361056b565b6040516101c09190611724565b60405180910390f35b3480156101d557600080fd5b506101f060048036038101906101eb919061173f565b610575565b6040516101fd91906116fa565b60405180910390f35b34801561021257600080fd5b5061021b6105a4565b60405161022891906117ae565b60405180910390f35b34801561023d57600080fd5b506102586004803603810190610253919061169f565b6105ad565b60405161026591906116fa565b60405180910390f35b34801561027a57600080fd5b50610283610657565b005b34801561029157600080fd5b5061029a6107e0565b6040516102a791906117ea565b60405180910390f35b3480156102bc57600080fd5b506102d760048036038101906102d29190611805565b610806565b6040516102e49190611724565b60405180910390f35b3480156102f957600080fd5b5061030261084e565b60405161030f91906117ea565b60405180910390f35b34801561032457600080fd5b5061032d610874565b005b34801561033b57600080fd5b506103446109c1565b60405161035191906115e4565b60405180910390f35b34801561036657600080fd5b50610381600480360381019061037c919061169f565b610a53565b60405161038e91906116fa565b60405180910390f35b3480156103a357600080fd5b506103be60048036038101906103b9919061169f565b610b3d565b6040516103cb91906116fa565b60405180910390f35b3480156103e057600080fd5b506103e9610b60565b6040516103f691906118a9565b60405180910390f35b34801561040b57600080fd5b50610414610b73565b60405161042494939291906118c4565b60405180910390f35b34801561043957600080fd5b50610454600480360381019061044f9190611909565b610b91565b6040516104619190611724565b60405180910390f35b34801561047657600080fd5b5061047f610c18565b60405161048c9190611958565b60405180910390f35b3480156104a157600080fd5b506104aa610c3e565b005b6104b4610e6c565b005b6060600380546104c5906119a2565b80601f01602080910402602001604051908101604052809291908181526020018280546104f1906119a2565b801561053e5780601f106105135761010080835404028352916020019161053e565b820191906000526020600020905b81548152906001019060200180831161052157829003601f168201915b5050505050905090565b600080610553611061565b9050610560818585611069565b600191505092915050565b6000600254905090565b600080610580611061565b905061058d858285611234565b6105988585856112c0565b60019150509392505050565b60006012905090565b6000806105b8611061565b905061064c818585600160008673ffffffffffffffffffffffffffffffffffffffff1673ffffffffffffffffffffffffffffffffffffffff16815260200190815260200160002060008973ffffffffffffffffffffffffffffffffffffffff1673ffffffffffffffffffffffffffffffffffffffff168152602001908152602001600020546106479190611a03565b611069565b600191505092915050565b600280600281111561066c5761066b611832565b5b600d60009054906101000a900460ff16600281111561068e5761068d611832565b5b146106ce576040517f08c379a00000000000000000000000000000000000000000000000000000000081526004016106c590611af1565b60405180910390fd5b600660009054906101000a900473ffffffffffffffffffffffffffffffffffffffff1673ffffffffffffffffffffffffffffffffffffffff163373ffffffffffffffffffffffffffffffffffffffff161461075e576040517f08c379a000000000000000000000000000000000000000000000000000000000815260040161075590611ba9565b60405180910390fd5b60096002015442116107a5576040517f08c379a000000000000000000000000000000000000000000000000000000000815260040161079c90611c61565b60405180910390fd5b600660009054906101000a900473ffffffffffffffffffffffffffffffffffffffff1673ffffffffffffffffffffffffffffffffffffffff16ff5b600660009054906101000a900473ffffffffffffffffffffffffffffffffffffffff1681565b60008060008373ffffffffffffffffffffffffffffffffffffffff1673ffffffffffffffffffffffffffffffffffffffff168152602001908152602001600020549050919050565b600760009054906101000a900473ffffffffffffffffffffffffffffffffffffffff1681565b600080600281111561088957610888611832565b5b600d60009054906101000a900460ff1660028111156108ab576108aa611832565b5b146108eb576040517f08c379a00000000000000000000000000000000000000000000000000000000081526004016108e290611af1565b60405180910390fd5b6001600d60006101000a81548160ff0219169083600281111561091157610910611832565b5b0217905550600860009054906101000a900473ffffffffffffffffffffffffffffffffffffffff1673ffffffffffffffffffffffffffffffffffffffff166323b872dd33306009600001546040518463ffffffff1660e01b815260040161097a93929190611ce0565b6020604051808303816000875af1158015610999573d6000803e3d6000fd5b505050506040513d601f19601f820116820180604052508101906109bd9190611d43565b5050565b6060600480546109d0906119a2565b80601f01602080910402602001604051908101604052809291908181526020018280546109fc906119a2565b8015610a495780601f10610a1e57610100808354040283529160200191610a49565b820191906000526020600020905b815481529060010190602001808311610a2c57829003601f168201915b5050505050905090565b600080610a5e611061565b90506000600160008373ffffffffffffffffffffffffffffffffffffffff1673ffffffffffffffffffffffffffffffffffffffff16815260200190815260200160002060008673ffffffffffffffffffffffffffffffffffffffff1673ffffffffffffffffffffffffffffffffffffffff16815260200190815260200160002054905083811015610b24576040517f08c379a0000000000000000000000000000000000000000000000000000000008152600401610b1b90611de2565b60405180910390fd5b610b318286868403611069565b60019250505092915050565b600080610b48611061565b9050610b558185856112c0565b600191505092915050565b600d60009054906101000a900460ff1681565b60098060000154908060010154908060020154908060030154905084565b6000600160008473ffffffffffffffffffffffffffffffffffffffff1673ffffffffffffffffffffffffffffffffffffffff16815260200190815260200160002060008373ffffffffffffffffffffffffffffffffffffffff1673ffffffffffffffffffffffffffffffffffffffff16815260200190815260200160002054905092915050565b600860009054906101000a900473ffffffffffffffffffffffffffffffffffffffff1681565b6002806002811115610c5357610c52611832565b5b600d60009054906101000a900460ff166002811115610c7557610c74611832565b5b14610cb5576040517f08c379a0000000000000000000000000000000000000000000000000000000008152600401610cac90611af1565b60405180910390fd5b600760009054906101000a900473ffffffffffffffffffffffffffffffffffffffff1673ffffffffffffffffffffffffffffffffffffffff163373ffffffffffffffffffffffffffffffffffffffff1614610d45576040517f08c379a0000000000000000000000000000000000000000000000000000000008152600401610d3c90611e9a565b60405180910390fd5b600860009054906101000a900473ffffffffffffffffffffffffffffffffffffffff1673ffffffffffffffffffffffffffffffffffffffff166323b872dd600760009054906101000a900473ffffffffffffffffffffffffffffffffffffffff16600660009054906101000a900473ffffffffffffffffffffffffffffffffffffffff166009600001546040518463ffffffff1660e01b8152600401610ded93929190611eba565b6020604051808303816000875af1158015610e0c573d6000803e3d6000fd5b505050506040513d601f19601f82011682018060405250810190610e309190611d43565b50600760009054906101000a900473ffffffffffffffffffffffffffffffffffffffff1673ffffffffffffffffffffffffffffffffffffffff16ff5b6001806002811115610e8157610e80611832565b5b600d60009054906101000a900460ff166002811115610ea357610ea2611832565b5b14610ee3576040517f08c379a0000000000000000000000000000000000000000000000000000000008152600401610eda90611af1565b60405180910390fd5b6009600301543414610f2a576040517f08c379a0000000000000000000000000000000000000000000000000000000008152600401610f2190611f89565b60405180910390fd5b33600760006101000a81548173ffffffffffffffffffffffffffffffffffffffff021916908373ffffffffffffffffffffffffffffffffffffffff1602179055506002600d60006101000a81548160ff02191690836002811115610f9157610f90611832565b5b0217905550600860009054906101000a900473ffffffffffffffffffffffffffffffffffffffff1673ffffffffffffffffffffffffffffffffffffffff1663a9059cbb600760009054906101000a900473ffffffffffffffffffffffffffffffffffffffff166009600001546040518363ffffffff1660e01b815260040161101a929190611fa9565b6020604051808303816000875af1158015611039573d6000803e3d6000fd5b505050506040513d601f19601f8201168201806040525081019061105d9190611d43565b5050565b600033905090565b600073ffffffffffffffffffffffffffffffffffffffff168373ffffffffffffffffffffffffffffffffffffffff1614156110d9576040517f08c379a00000000000000000000000000000000000000000000000000000000081526004016110d090612044565b60405180910390fd5b600073ffffffffffffffffffffffffffffffffffffffff168273ffffffffffffffffffffffffffffffffffffffff161415611149576040517f08c379a0000000000000000000000000000000000000000000000000000000008152600401611140906120d6565b60405180910390fd5b80600160008573ffffffffffffffffffffffffffffffffffffffff1673ffffffffffffffffffffffffffffffffffffffff16815260200190815260200160002060008473ffffffffffffffffffffffffffffffffffffffff1673ffffffffffffffffffffffffffffffffffffffff168152602001908152602001600020819055508173ffffffffffffffffffffffffffffffffffffffff168373ffffffffffffffffffffffffffffffffffffffff167f8c5be1e5ebec7d5bd14f71427d1e84f3dd0314c0f7b2291e5b200ac8c7c3b925836040516112279190611724565b60405180910390a3505050565b60006112408484610b91565b90507fffffffffffffffffffffffffffffffffffffffffffffffffffffffffffffffff81146112ba57818110156112ac576040517f08c379a00000000000000000000000000000000000000000000000000000000081526004016112a390612142565b60405180910390fd5b6112b98484848403611069565b5b50505050565b600073ffffffffffffffffffffffffffffffffffffffff168373ffffffffffffffffffffffffffffffffffffffff161415611330576040517f08c379a0000000000000000000000000000000000000000000000000000000008152600401611327906121d4565b60405180910390fd5b600073ffffffffffffffffffffffffffffffffffffffff168273ffffffffffffffffffffffffffffffffffffffff1614156113a0576040517f08c379a000000000000000000000000000000000000000000000000000000000815260040161139790612266565b60405180910390fd5b6113ab838383611541565b60008060008573ffffffffffffffffffffffffffffffffffffffff1673ffffffffffffffffffffffffffffffffffffffff16815260200190815260200160002054905081811015611431576040517f08c379a0000000000000000000000000000000000000000000000000000000008152600401611428906122f8565b60405180910390fd5b8181036000808673ffffffffffffffffffffffffffffffffffffffff1673ffffffffffffffffffffffffffffffffffffffff16815260200190815260200160002081905550816000808573ffffffffffffffffffffffffffffffffffffffff1673ffffffffffffffffffffffffffffffffffffffff16815260200190815260200160002060008282546114c49190611a03565b925050819055508273ffffffffffffffffffffffffffffffffffffffff168473ffffffffffffffffffffffffffffffffffffffff167fddf252ad1be2c89b69c2b068fc378daa952ba7f163c4a11628f55a4df523b3ef846040516115289190611724565b60405180910390a361153b848484611546565b50505050565b505050565b505050565b600081519050919050565b600082825260208201905092915050565b60005b8381101561158557808201518184015260208101905061156a565b83811115611594576000848401525b50505050565b6000601f19601f8301169050919050565b60006115b68261154b565b6115c08185611556565b93506115d0818560208601611567565b6115d98161159a565b840191505092915050565b600060208201905081810360008301526115fe81846115ab565b905092915050565b600080fd5b600073ffffffffffffffffffffffffffffffffffffffff82169050919050565b60006116368261160b565b9050919050565b6116468161162b565b811461165157600080fd5b50565b6000813590506116638161163d565b92915050565b6000819050919050565b61167c81611669565b811461168757600080fd5b50565b60008135905061169981611673565b92915050565b600080604083850312156116b6576116b5611606565b5b60006116c485828601611654565b92505060206116d58582860161168a565b9150509250929050565b60008115159050919050565b6116f4816116df565b82525050565b600060208201905061170f60008301846116eb565b92915050565b61171e81611669565b82525050565b60006020820190506117396000830184611715565b92915050565b60008060006060848603121561175857611757611606565b5b600061176686828701611654565b935050602061177786828701611654565b92505060406117888682870161168a565b9150509250925092565b600060ff82169050919050565b6117a881611792565b82525050565b60006020820190506117c3600083018461179f565b92915050565b60006117d48261160b565b9050919050565b6117e4816117c9565b82525050565b60006020820190506117ff60008301846117db565b92915050565b60006020828403121561181b5761181a611606565b5b600061182984828501611654565b91505092915050565b7f4e487b7100000000000000000000000000000000000000000000000000000000600052602160045260246000fd5b6003811061187257611871611832565b5b50565b600081905061188382611861565b919050565b600061189382611875565b9050919050565b6118a381611888565b82525050565b60006020820190506118be600083018461189a565b92915050565b60006080820190506118d96000830187611715565b6118e66020830186611715565b6118f36040830185611715565b6119006060830184611715565b95945050505050565b600080604083850312156119205761191f611606565b5b600061192e85828601611654565b925050602061193f85828601611654565b9150509250929050565b6119528161162b565b82525050565b600060208201905061196d6000830184611949565b92915050565b7f4e487b7100000000000000000000000000000000000000000000000000000000600052602260045260246000fd5b600060028204905060018216806119ba57607f821691505b602082108114156119ce576119cd611973565b5b50919050565b7f4e487b7100000000000000000000000000000000000000000000000000000000600052601160045260246000fd5b6000611a0e82611669565b9150611a1983611669565b9250827fffffffffffffffffffffffffffffffffffffffffffffffffffffffffffffffff03821115611a4e57611a4d6119d4565b5b828201905092915050565b7f4e6f7420616c6c6f7765643a20546869732066756e6374696f6e2063616e206f60008201527f6e6c7920626520706572666f726d656420696e206120646966666572656e742060208201527f636f6e74726163742073746174652e0000000000000000000000000000000000604082015250565b6000611adb604f83611556565b9150611ae682611a59565b606082019050919050565b60006020820190508181036000830152611b0a81611ace565b9050919050565b7f4f6e6c7920746865206c656e6465722063616e206c697175696461746520746860008201527f6973206c6f616e20616e6420636f6c6c6563742074686520636f6c6c6174657260208201527f616c2e0000000000000000000000000000000000000000000000000000000000604082015250565b6000611b93604383611556565b9150611b9e82611b11565b606082019050919050565b60006020820190508181036000830152611bc281611b86565b9050919050565b7f596f752063616e6e6f74206c69717569646174652074686973206c6f616e207560008201527f6e74696c207468652072657061796d656e74206475652064617465206861732060208201527f7061737365642e00000000000000000000000000000000000000000000000000604082015250565b6000611c4b604783611556565b9150611c5682611bc9565b606082019050919050565b60006020820190508181036000830152611c7a81611c3e565b9050919050565b6000819050919050565b6000611ca6611ca1611c9c8461160b565b611c81565b61160b565b9050919050565b6000611cb882611c8b565b9050919050565b6000611cca82611cad565b9050919050565b611cda81611cbf565b82525050565b6000606082019050611cf56000830186611cd1565b611d026020830185611949565b611d0f6040830184611715565b949350505050565b611d20816116df565b8114611d2b57600080fd5b50565b600081519050611d3d81611d17565b92915050565b600060208284031215611d5957611d58611606565b5b6000611d6784828501611d2e565b91505092915050565b7f45524332303a2064656372656173656420616c6c6f77616e63652062656c6f7760008201527f207a65726f000000000000000000000000000000000000000000000000000000602082015250565b6000611dcc602583611556565b9150611dd782611d70565b604082019050919050565b60006020820190508181036000830152611dfb81611dbf565b9050919050565b7f4f6e6c792074686520626f72726f7765722063616e207265706179207468697360008201527f206c6f616e20616e6420636f6c6c65637420746865697220636f6c6c6174657260208201527f616c2e0000000000000000000000000000000000000000000000000000000000604082015250565b6000611e84604383611556565b9150611e8f82611e02565b606082019050919050565b60006020820190508181036000830152611eb381611e77565b9050919050565b6000606082019050611ecf6000830186611cd1565b611edc6020830185611cd1565b611ee96040830184611715565b949350505050565b7f496e76616c696420636f6c6c61746572616c20616d6f756e742e20506c65617360008201527f65206d6174636820746f20746865206167726565642075706f6e207465726d7360208201527f2e00000000000000000000000000000000000000000000000000000000000000604082015250565b6000611f73604183611556565b9150611f7e82611ef1565b606082019050919050565b60006020820190508181036000830152611fa281611f66565b9050919050565b6000604082019050611fbe6000830185611cd1565b611fcb6020830184611715565b9392505050565b7f45524332303a20617070726f76652066726f6d20746865207a65726f2061646460008201527f7265737300000000000000000000000000000000000000000000000000000000602082015250565b600061202e602483611556565b915061203982611fd2565b604082019050919050565b6000602082019050818103600083015261205d81612021565b9050919050565b7f45524332303a20617070726f766520746f20746865207a65726f20616464726560008201527f7373000000000000000000000000000000000000000000000000000000000000602082015250565b60006120c0602283611556565b91506120cb82612064565b604082019050919050565b600060208201905081810360008301526120ef816120b3565b9050919050565b7f45524332303a20696e73756666696369656e7420616c6c6f77616e6365000000600082015250565b600061212c601d83611556565b9150612137826120f6565b602082019050919050565b6000602082019050818103600083015261215b8161211f565b9050919050565b7f45524332303a207472616e736665722066726f6d20746865207a65726f20616460008201527f6472657373000000000000000000000000000000000000000000000000000000602082015250565b60006121be602583611556565b91506121c982612162565b604082019050919050565b600060208201905081810360008301526121ed816121b1565b9050919050565b7f45524332303a207472616e7366657220746f20746865207a65726f206164647260008201527f6573730000000000000000000000000000000000000000000000000000000000602082015250565b6000612250602383611556565b915061225b826121f4565b604082019050919050565b6000602082019050818103600083015261227f81612243565b9050919050565b7f45524332303a207472616e7366657220616d6f756e742065786365656473206260008201527f616c616e63650000000000000000000000000000000000000000000000000000602082015250565b60006122e2602683611556565b91506122ed82612286565b604082019050919050565b60006020820190508181036000830152612311816122d5565b905091905056fea2646970667358221220057d93b53615ae3f04abe920f28a808ccab8878e120e52d5c866e45f39729f0164736f6c634300080c0033a26469706673582212204362d126afbbe16d47332c0db412c547f9ae54c1dec523e3bf5fddb6d5623f1b64736f6c634300080c0033",
  "immutableReferences": {},
  "source": "// SPDX-License-Identifier: MIT\r\npragma solidity ^0.8.0;\r\n\r\nimport \"./NFTCollection.sol\";\r\nimport \"./ERC20LoanSimple.sol\";\r\n\r\ncontract NFTMarketplace {\r\n  uint public offerCount;\r\n  mapping (uint => _Offer) public offers;\r\n  mapping (address => uint) public userFunds;\r\n  NFTCollection nftCollection;\r\n  PersonalLoanNFTCollateral nftCollateral;\r\n\r\n  struct _Offer {\r\n    uint offerId;\r\n    uint id;\r\n    address user;\r\n    uint price;\r\n    bool fulfilled;\r\n    bool cancelled;\r\n  }\r\n\r\n  event Offer(\r\n    uint offerId,\r\n    uint id,\r\n    address user,\r\n    uint price,\r\n    bool fulfilled,\r\n    bool cancelled\r\n  );\r\n\r\n  event OfferFilled(uint offerId, uint id, address newOwner);\r\n  event OfferCancelled(uint offerId, uint id, address owner);\r\n  event ClaimFunds(address user, uint amount);\r\n  event CollateralOffered(uint offerId, address id, address newOwner);\r\n\r\n  constructor(address _nftCollection) {\r\n    nftCollection = NFTCollection(_nftCollection);\r\n  }\r\n  \r\n  function fundLoan(uint _id, uint totalLoanAmountETH) public {\r\n      nftCollateral = new PersonalLoanNFTCollateral( uint256(totalLoanAmountETH) );\r\n      nftCollateral.fundLoan();\r\n      uint _offerId = _id;\r\n      emit CollateralOffered(_offerId, address(this), msg.sender);\r\n  }\r\n  \r\n  function makeOffer(uint _id, uint _price) public {\r\n\r\n    // https://docs.openzeppelin.com/contracts/2.x/api/token/erc721\r\n    nftCollection.transferFrom(\r\n            msg.sender,     // from\r\n            address(this),  // to\r\n            _id);           // rokenId\r\n    offerCount ++;\r\n    offers[offerCount] = _Offer(offerCount, _id, msg.sender, _price, false, false);\r\n    emit Offer(offerCount, _id, msg.sender, _price, false, false);\r\n  }\r\n\r\n\r\n  function fillOffer(uint _offerId) public payable {\r\n    _Offer storage _offer = offers[_offerId];\r\n    require(_offer.offerId == _offerId, 'The offer must exist');\r\n    require(_offer.user != msg.sender, 'The owner of the offer cannot fill it');\r\n    require(!_offer.fulfilled, 'An offer cannot be fulfilled twice');\r\n    require(!_offer.cancelled, 'A cancelled offer cannot be fulfilled');\r\n    require(msg.value == _offer.price, 'The ETH amount should match with the NFT Price');\r\n    nftCollection.transferFrom(address(this), msg.sender, _offer.id);\r\n    _offer.fulfilled = true;\r\n    userFunds[_offer.user] += msg.value;\r\n    emit OfferFilled(_offerId, _offer.id, msg.sender);\r\n  }\r\n\r\n  function cancelOffer(uint _offerId) public {\r\n    _Offer storage _offer = offers[_offerId];\r\n    require(_offer.offerId == _offerId, 'The offer must exist');\r\n    require(_offer.user == msg.sender, 'The offer can only be canceled by the owner');\r\n    require(_offer.fulfilled == false, 'A fulfilled offer cannot be cancelled');\r\n    require(_offer.cancelled == false, 'An offer cannot be cancelled twice');\r\n    nftCollection.transferFrom(address(this), msg.sender, _offer.id);\r\n    _offer.cancelled = true;\r\n    emit OfferCancelled(_offerId, _offer.id, msg.sender);\r\n  }\r\n\r\n  function claimFunds() public {\r\n    require(userFunds[msg.sender] > 0, 'This user has no funds to be claimed');\r\n    payable(msg.sender).transfer(userFunds[msg.sender]);\r\n    emit ClaimFunds(msg.sender, userFunds[msg.sender]);\r\n    userFunds[msg.sender] = 0;    \r\n  }\r\n\r\n  // Fallback: reverts if Ether is sent to this smart-contract by mistake\r\n  fallback () external {\r\n    revert();\r\n  }\r\n}",
  "sourcePath": "D:\\03.block-chain\\01.miquelTC__nft-marketplace\\test-proj\\nft-marketplace-master\\src\\contracts\\NFTMarketplace.sol",
  "compiler": {
    "name": "solc",
    "version": "0.8.12+commit.f00d7308.Emscripten.clang"
  },
  "schemaVersion": "3.4.4",
  "updatedAt": "2022-02-19T01:37:16.925Z",
  "networkType": "ethereum",
  "devdoc": {
    "kind": "dev",
    "methods": {},
    "version": 1
  },
  "userdoc": {
    "kind": "user",
    "methods": {},
    "version": 1
  }
}