{
  "contractName": "Sablier",
  "abi": [
    {
      "inputs": [
        {
          "internalType": "address",
          "name": "recipient",
          "type": "address"
        },
        {
          "internalType": "uint256",
          "name": "deposit",
          "type": "uint256"
        },
        {
          "internalType": "address",
          "name": "tokenAddress",
          "type": "address"
        },
        {
          "internalType": "uint256",
          "name": "startTime",
          "type": "uint256"
        },
        {
          "internalType": "uint256",
          "name": "stopTime",
          "type": "uint256"
        }
      ],
      "name": "createSalary",
      "outputs": [
        {
          "internalType": "uint256",
          "name": "",
          "type": "uint256"
        }
      ],
      "stateMutability": "nonpayable",
      "type": "function"
    },
    {
      "inputs": [
        {
          "internalType": "uint256",
          "name": "salaryId",
          "type": "uint256"
        }
      ],
      "name": "cancelSalary",
      "outputs": [
        {
          "internalType": "bool",
          "name": "",
          "type": "bool"
        }
      ],
      "stateMutability": "nonpayable",
      "type": "function"
    },
    {
      "inputs": [
        {
          "internalType": "uint256",
          "name": "salaryId",
          "type": "uint256"
        }
      ],
      "name": "getSalary",
      "outputs": [
        {
          "internalType": "address",
          "name": "company",
          "type": "address"
        },
        {
          "internalType": "address",
          "name": "employee",
          "type": "address"
        },
        {
          "internalType": "uint256",
          "name": "salary",
          "type": "uint256"
        },
        {
          "internalType": "address",
          "name": "tokenAddress",
          "type": "address"
        },
        {
          "internalType": "uint256",
          "name": "startTime",
          "type": "uint256"
        },
        {
          "internalType": "uint256",
          "name": "stopTime",
          "type": "uint256"
        },
        {
          "internalType": "uint256",
          "name": "remainingBalance",
          "type": "uint256"
        },
        {
          "internalType": "uint256",
          "name": "rate",
          "type": "uint256"
        }
      ],
      "stateMutability": "view",
      "type": "function"
    }
  ],
  "bytecode": "0x608060405234801561001057600080fd5b5061036a806100206000396000f3fe608060405234801561001057600080fd5b50600436106100415760003560e01c806380bfacc214610046578063c5a66ff91461007d578063dc7d9369146100ad575b600080fd5b610060600480360381019061005b9190610141565b6100dd565b6040516100749897969594939291906101be565b60405180910390f35b61009760048036038101906100929190610141565b6100f4565b6040516100a49190610257565b60405180910390f35b6100c760048036038101906100c2919061029e565b6100fb565b6040516100d49190610319565b60405180910390f35b600080600080600080600080919395975091939597565b6000919050565b600095945050505050565b600080fd5b6000819050919050565b61011e8161010b565b811461012957600080fd5b50565b60008135905061013b81610115565b92915050565b60006020828403121561015757610156610106565b5b60006101658482850161012c565b91505092915050565b600073ffffffffffffffffffffffffffffffffffffffff82169050919050565b60006101998261016e565b9050919050565b6101a98161018e565b82525050565b6101b88161010b565b82525050565b6000610100820190506101d4600083018b6101a0565b6101e1602083018a6101a0565b6101ee60408301896101af565b6101fb60608301886101a0565b61020860808301876101af565b61021560a08301866101af565b61022260c08301856101af565b61022f60e08301846101af565b9998505050505050505050565b60008115159050919050565b6102518161023c565b82525050565b600060208201905061026c6000830184610248565b92915050565b61027b8161018e565b811461028657600080fd5b50565b60008135905061029881610272565b92915050565b600080600080600060a086880312156102ba576102b9610106565b5b60006102c888828901610289565b95505060206102d98882890161012c565b94505060406102ea88828901610289565b93505060606102fb8882890161012c565b925050608061030c8882890161012c565b9150509295509295909350565b600060208201905061032e60008301846101af565b9291505056fea26469706673582212203759d26536c1a6f096c2d8220c66d318c9decf8b956657037391d3a5c6596e4764736f6c634300080c0033",
  "immutableReferences": {},
  "source": "// SPDX-License-Identifier: MIT\npragma solidity ^0.8.0;\n\nimport \"@openzeppelin/contracts-upgradeable/proxy/utils/Initializable.sol\";\n// import \"./ERC721/token/ERC20/IERC20.sol\";\n// import \"./ERC721/token/ERC721/IERC721.sol\";\n// import \"./ERC721/utils/Address.sol\";\n// import \"./ERC721/utils/math/SafeMath.sol\";\n\nimport \"@openzeppelin/contracts/token/ERC20/ERC20.sol\";\nimport \"@openzeppelin/contracts/token/ERC721/ERC721.sol\";\nimport \"@openzeppelin/contracts/utils/Address.sol\";\nimport \"@openzeppelin/contracts/utils/math/SafeMath.sol\";\n\n// Sablier is abstract class originally\n// contract Sablier {\n//   function createSalary(address recipient, uint256 deposit, address tokenAddress, uint256 startTime, uint256 stopTime) public returns(uint256);\n//   function cancelSalary(uint256 salaryId) public returns (bool);\n//   function getSalary(uint256 salaryId) public view returns (\n//     address company,\n//     address employee,\n//     uint256 salary,\n//     address tokenAddress,\n//     uint256 startTime,\n//     uint256 stopTime,\n//     uint256 remainingBalance,\n//     uint256 rate\n//   );\n// }\ncontract Sablier {\n  function createSalary(address recipient, uint256 deposit, address tokenAddress, uint256 startTime, uint256 stopTime) public returns(uint256) { }\n  function cancelSalary(uint256 salaryId) public returns (bool) { }\n  function getSalary(uint256 salaryId) public view returns (\n    address company,\n    address employee,\n    uint256 salary,\n    address tokenAddress,\n    uint256 startTime,\n    uint256 stopTime,\n    uint256 remainingBalance,\n    uint256 rate\n  ) {}\n}\n\ncontract ERC721Lending is Initializable {\n  address public acceptedPayTokenAddress;\n\n  struct ERC721ForLend {\n    uint256 durationHours;\n    uint256 initialWorth;\n    uint256 earningGoal;\n    uint256 borrowedAtTimestamp;\n    address lender;\n    address borrower;\n    bool lenderClaimedCollateral;\n    uint256 sablierSalaryId;\n    uint256 platformFeesPercent;\n  }\n\n  // V1 mapping\n  mapping(address => mapping(uint256 => ERC721ForLend)) public lentERC721List;\n\n  struct ERC721TokenEntry {\n    address lenderAddress;\n    address tokenAddress;\n    uint256 tokenId;\n  }\n\n  ERC721TokenEntry[] public lendersWithTokens;\n\n  event ERC721ForLendUpdated(address tokenAddress, uint256 tokenId);\n  event ERC721ForLendRemoved(address tokenAddress, uint256 tokenId);\n\n  address public sablierContractAddress;\n\n  // V2, token address -> token id -> owner (lender) address -> lending details\n  mapping(address => mapping(uint256 => mapping(address => ERC721ForLend))) public lendingPool;\n\n  // Note: version helper for migrations\n  uint256 migrateVersion;\n\n  address public feesContractAddress;\n\n  event ERC721ForLendUpdatedV2(address lenderAddress, address tokenAddress, uint256 tokenId);\n  event ERC721ForLendRemovedV2(address lenderAddress, address tokenAddress, uint256 tokenId);\n\n  function initialize(address tokenAddress) public initializer {\n    acceptedPayTokenAddress = tokenAddress;\n  }\n\n  function setSablierContractAddress(address contractAddress) public {\n    require(sablierContractAddress == address(0), 'Sablier contract address already set');\n    sablierContractAddress = contractAddress;\n  }\n\n  function setFeesContractAddress(address contractAddress) public {\n    require(feesContractAddress == address(0), 'Fees contract address already set');\n    feesContractAddress = contractAddress;\n  }\n\n  function setLendSettings(address tokenAddress, uint256 tokenId, uint256 durationHours, uint256 initialWorth, uint256 earningGoal) public {\n    require(initialWorth > 0, 'Lending: Initial token worth must be above 0');\n    require(earningGoal > 0, 'Lending: Earning goal must be above 0');\n    require(durationHours > 0, 'Lending: Lending duration must be above 0');\n    require(lentERC721List[tokenAddress][tokenId].borrower == address(0), 'Lending: Cannot change settings, token already lent');\n    require(lentERC721List[tokenAddress][tokenId].lenderClaimedCollateral == false, 'Lending: Collateral already claimed');\n\n    // assuming token transfer is approved\n    IERC721(tokenAddress).transferFrom(msg.sender, address(this), tokenId);\n\n    lentERC721List[tokenAddress][tokenId] = ERC721ForLend(durationHours, initialWorth, earningGoal, 0, msg.sender, address(0), false, 0, 0);\n\n    lendersWithTokens.push(ERC721TokenEntry(msg.sender, tokenAddress, tokenId));\n\n    emit ERC721ForLendUpdated(tokenAddress, tokenId);\n  }\n\n  function startBorrowing(address tokenAddress, uint256 tokenId) public {\n    require(lentERC721List[tokenAddress][tokenId].borrower == address(0), 'Borrowing: Already lent');\n    require(lentERC721List[tokenAddress][tokenId].earningGoal > 0, 'Borrowing: Lender did not set earning goal yet');\n    require(lentERC721List[tokenAddress][tokenId].initialWorth > 0, 'Borrowing: Lender did not set initial worth yet');\n\n    IERC20 _payToken = IERC20(acceptedPayTokenAddress);\n    uint256 _requiredSum = calculateLendSum(tokenAddress, tokenId);\n    uint256 _allowedCollateral = _payToken.allowance(msg.sender, address(this));\n    require(_allowedCollateral >= _requiredSum, 'Borrowing: Not enough collateral received');\n\n    IERC20(acceptedPayTokenAddress).transferFrom(msg.sender, address(this), _requiredSum);\n\n    // check if needs approval as some tokens fail due this\n    (bool success,) = tokenAddress.call(abi.encodeWithSignature(\n        \"approve(address,uint256)\",\n        address(this),\n        tokenId\n      ));\n    if (success) {\n      IERC721(tokenAddress).approve(address(this), tokenId);\n    }\n    IERC721(tokenAddress).transferFrom(address(this), msg.sender, tokenId);\n\n    lentERC721List[tokenAddress][tokenId].borrower = msg.sender;\n    lentERC721List[tokenAddress][tokenId].borrowedAtTimestamp = block.timestamp;\n\n    // check if sablier address set and setup salary\n    createSalaryIfPossible(tokenAddress, tokenId);\n\n    emit ERC721ForLendUpdated(tokenAddress, tokenId);\n  }\n\n  function stopBorrowing(address tokenAddress, uint256 tokenId) public {\n    address _borrower = lentERC721List[tokenAddress][tokenId].borrower;\n    require(_borrower == msg.sender, 'Borrowing: Can be stopped only by active borrower');\n\n    if (lentERC721List[tokenAddress][tokenId].lenderClaimedCollateral == false) {\n      // assuming token transfer is approved\n      IERC721(tokenAddress).transferFrom(msg.sender, address(this), tokenId);\n\n      uint256 _initialWorth = lentERC721List[tokenAddress][tokenId].initialWorth;\n\n      IERC20(acceptedPayTokenAddress).transfer(_borrower, _initialWorth);\n\n      lentERC721List[tokenAddress][tokenId].borrower = address(0);\n      lentERC721List[tokenAddress][tokenId].borrowedAtTimestamp = 0;\n\n      address lenderAddress = lentERC721List[tokenAddress][tokenId].lender;\n\n      uint256 _sablierSalaryId = lentERC721List[tokenAddress][tokenId].sablierSalaryId;\n      if (_sablierSalaryId != 0) {\n        // get balance that is not streamed during period, it will be returned to borrower\n        (\n        ,\n        ,\n        uint256 _streamSalaryAmount,\n        ,\n        uint256 _streamStartTime,\n        uint256 _streamStopTime,\n        ,\n        uint256 _streamRatePerSecond\n        ) = Sablier(sablierContractAddress).getSalary(_sablierSalaryId);\n\n        int256 _balanceNotStreamed = 0;\n        // now = block.timestamp\n        if (block.timestamp < _streamStopTime) {\n          _balanceNotStreamed = int256(_streamSalaryAmount) - int256(SafeMath.mul(block.timestamp - _streamStartTime, _streamRatePerSecond));\n        }\n\n        // cancel salary to lender if sablier salary exists\n        Sablier(sablierContractAddress).cancelSalary(_sablierSalaryId);\n        lentERC721List[tokenAddress][tokenId].sablierSalaryId = 0;\n\n        // check if lending entry has fees\n        uint256 _platformFeeToCollect = 0;\n        uint256 _feesPercent = lentERC721List[tokenAddress][tokenId].platformFeesPercent;\n        if (_feesPercent > 0) {\n          _platformFeeToCollect = SafeMath.mul(SafeMath.div(_streamSalaryAmount, 100), _feesPercent);\n        }\n\n        if (_balanceNotStreamed > 0) {\n          // check if lending has fees\n          if (_platformFeeToCollect > 0) {\n            // lending did not go through full period, fees percent will be lower, lets refund to lender\n            uint256 _actualSalaryLenderReceives = SafeMath.sub(_streamSalaryAmount, uint256(_balanceNotStreamed));\n            uint256 _platformFeeToCollectUpdated = SafeMath.mul(SafeMath.div(_actualSalaryLenderReceives, 100), _feesPercent);\n            uint256 _platformFeeToRefund = SafeMath.sub(_platformFeeToCollect, _platformFeeToCollectUpdated);\n            _platformFeeToCollect =_platformFeeToCollectUpdated;\n            IERC20(acceptedPayTokenAddress).transfer(lenderAddress, uint256(_platformFeeToRefund));\n          }\n\n          // return unstreamed balance to borrower\n          IERC20(acceptedPayTokenAddress).transfer(_borrower, uint256(_balanceNotStreamed));\n        }\n\n        // check if fees collecting address set and lending has fees\n        if (feesContractAddress != address(0) && _platformFeeToCollect > 0) {\n          IERC20(acceptedPayTokenAddress).transfer(feesContractAddress, _platformFeeToCollect);\n        }\n      } else {\n        // legacy: send lender his interest\n        uint256 _earningGoal = lentERC721List[tokenAddress][tokenId].earningGoal;\n        IERC20(acceptedPayTokenAddress).transfer(lenderAddress, _earningGoal);\n      }\n    } else {\n      // lender claimed collateral, this is borrower's last call, let's reset everything\n      lentERC721List[tokenAddress][tokenId] = ERC721ForLend(0, 0, 0, 0, address(0), address(0), false, 0, 0); // reset details\n    }\n\n    emit ERC721ForLendUpdated(tokenAddress, tokenId);\n  }\n\n  function calculateLendSum(address tokenAddress, uint256 tokenId) public view returns(uint256) {\n    uint256 _earningGoal = lentERC721List[tokenAddress][tokenId].earningGoal;\n    uint256 _initialWorth = lentERC721List[tokenAddress][tokenId].initialWorth;\n    return _initialWorth + _earningGoal;\n  }\n\n  function isDurationExpired(uint256 borrowedAtTimestamp, uint256 durationHours) public view returns(bool) {\n    uint256 secondsPassed = block.timestamp - borrowedAtTimestamp;\n    uint256 hoursPassed = secondsPassed * 60 * 60;\n    return hoursPassed > durationHours;\n  }\n\n  function removeFromLendersWithTokens(address tokenAddress, uint256 tokenId) internal {\n    // reset lenders to sent token mapping, swap with last element to fill the gap\n    uint totalCount = lendersWithTokens.length;\n    if (totalCount > 1) {\n      for (uint i = 0; i<totalCount; i++) {\n        ERC721TokenEntry memory tokenEntry = lendersWithTokens[i];\n        if (tokenEntry.lenderAddress == msg.sender && tokenEntry.tokenAddress == tokenAddress && tokenEntry.tokenId == tokenId) {\n          lendersWithTokens[i] = lendersWithTokens[totalCount-1]; // insert last from array\n        }\n      }\n      // lendersWithTokens.length--; deleted josh\n    } else {\n      delete lendersWithTokens[0];\n    }\n  }\n\n  function createSalaryIfPossible(address tokenAddress, uint256 tokenId) internal {\n    if (sablierContractAddress != address(0)) {\n      uint256 _salaryStartTime = block.timestamp + 60;\n      uint256 _salaryStopTime = _salaryStartTime + (lentERC721List[tokenAddress][tokenId].durationHours * 3600);\n      uint256 _actualSalaryAmount = lentERC721List[tokenAddress][tokenId].earningGoal;\n\n                  // set platform fees percent for borrowed entry\n                  // v1.1\n            //      uint256 _feesPercent = 5;\n            //      lentERC721List[tokenAddress][tokenId].platformFeesPercent = _feesPercent;\n\n                  // reserve fees percent from salary\n            //      uint256 _actualSalaryAmountAfterPlatformFees = SafeMath.sub(\n            //        _actualSalaryAmount,\n            //        SafeMath.mul(SafeMath.div(_actualSalaryAmount, 100), _feesPercent)\n            //      );\n\n      // per Sablier docs  deposit amount must be divided by the time delta\n      // and then the remainder subtracted from the initial deposit number\n      uint256 _timeDelta = _salaryStopTime - _salaryStartTime;\n      uint256 _salaryAmount = _actualSalaryAmount - (_actualSalaryAmount % _timeDelta);\n\n      // approve amount for Sablier contract usage\n      IERC20(acceptedPayTokenAddress).approve(sablierContractAddress, _salaryAmount);\n\n      // the salary id is needed later to withdraw from or cancel the salary\n      uint256 _sablierSalaryId = Sablier(sablierContractAddress).createSalary(\n        lentERC721List[tokenAddress][tokenId].lender,\n        _salaryAmount,\n        acceptedPayTokenAddress,\n        _salaryStartTime,\n        _salaryStopTime\n      );\n\n      lentERC721List[tokenAddress][tokenId].sablierSalaryId = _sablierSalaryId;\n    }\n  }\n\n  function removeFromLending(address tokenAddress, uint256 tokenId) public {\n    require(lentERC721List[tokenAddress][tokenId].lender == msg.sender, 'Claim: Cannot claim not owned lend');\n\n    require(lentERC721List[tokenAddress][tokenId].borrower == address(0), 'Lending: Cannot cancel if lent');\n    require(lentERC721List[tokenAddress][tokenId].lenderClaimedCollateral == false, 'Lending: Collateral claimed');\n\n    // check if needs approval as some tokens fail due this\n    (bool success,) = tokenAddress.call(abi.encodeWithSignature(\n        \"approve(address,uint256)\",\n        address(this),\n        tokenId\n      ));\n    if (success) {\n      IERC721(tokenAddress).approve(address(this), tokenId);\n    }\n    IERC721(tokenAddress).transferFrom(address(this), msg.sender, tokenId);\n\n    lentERC721List[tokenAddress][tokenId] = ERC721ForLend(0, 0, 0, 0, address(0), address(0), false, 0, 0); // reset details\n\n    // reset lenders to sent token mapping, swap with last element to fill the gap\n    removeFromLendersWithTokens(tokenAddress, tokenId);\n\n    emit ERC721ForLendRemoved(tokenAddress, tokenId);\n  }\n\n  function claimBorrowerCollateral(address tokenAddress, uint256 tokenId) public {\n    require(lentERC721List[tokenAddress][tokenId].borrower != address(0), 'Claim: Cannot claim if stopped');\n    require(lentERC721List[tokenAddress][tokenId].lender == msg.sender, 'Claim: Cannot claim not owned lend');\n\n    uint256 _borrowedAtTimestamp = lentERC721List[tokenAddress][tokenId].borrowedAtTimestamp;\n    uint256 _durationHours = lentERC721List[tokenAddress][tokenId].durationHours;\n    require(isDurationExpired(_borrowedAtTimestamp, _durationHours), 'Claim: Cannot claim before lending expired');\n\n    require(lentERC721List[tokenAddress][tokenId].lenderClaimedCollateral == false, 'Claim: Already claimed');\n\n    lentERC721List[tokenAddress][tokenId].lenderClaimedCollateral = true;\n\n    uint256 _sablierSalaryId = lentERC721List[tokenAddress][tokenId].sablierSalaryId;\n    if (_sablierSalaryId != 0) {\n      // get salary amount to send to fees collector address\n      (,, uint256 _streamSalaryAmount,,,,,) = Sablier(sablierContractAddress).getSalary(_sablierSalaryId);\n\n      // if salary exists cancel salary and send only initial worth collateral amount\n      IERC20(acceptedPayTokenAddress).transfer(msg.sender, lentERC721List[tokenAddress][tokenId].initialWorth);\n      Sablier(sablierContractAddress).cancelSalary(_sablierSalaryId);\n      lentERC721List[tokenAddress][tokenId].sablierSalaryId = 0;\n\n      // check if lending entry has fees\n      uint256 _feesPercent = lentERC721List[tokenAddress][tokenId].platformFeesPercent;\n      if (feesContractAddress != address(0) && _feesPercent > 0) {\n        // send collected fees to collecting contract address\n        uint256 _platformFeeToCollect = SafeMath.mul(SafeMath.div(_streamSalaryAmount, 100), _feesPercent);\n        IERC20(acceptedPayTokenAddress).transfer(feesContractAddress, _platformFeeToCollect);\n      }\n    } else {\n      // legacy: send interest and collateral sum amount\n      uint256 _collateralSum = calculateLendSum(tokenAddress, tokenId);\n      IERC20(acceptedPayTokenAddress).transfer(msg.sender, _collateralSum);\n    }\n\n    // reset lenders to sent token mapping, swap with last element to fill the gap\n    removeFromLendersWithTokens(tokenAddress, tokenId);\n\n    emit ERC721ForLendUpdated(tokenAddress, tokenId);\n  }\n\n  function isValidNFT(address tokenAddress, uint256 tokenId) public view returns(bool) {\n    // no owner is most likely burnt NFT\n    return IERC721(tokenAddress).ownerOf(tokenId) != address(0);\n  }\n}\n",
  "sourcePath": "D:\\03.block-chain\\01.miquelTC__nft-marketplace\\test-proj\\nft-marketplace-master\\src\\contracts\\ERC721Lending.sol",
  "compiler": {
    "name": "solc",
    "version": "0.8.12+commit.f00d7308.Emscripten.clang"
  },
  "schemaVersion": "3.4.4",
  "updatedAt": "2022-02-19T01:26:07.123Z",
  "devdoc": {
    "kind": "dev",
    "methods": {},
    "version": 1
  },
  "userdoc": {
    "kind": "user",
    "methods": {},
    "version": 1
  }
}